{
  "contractName": "Bridge",
  "abi": [
    {
      "inputs": [
        {
          "internalType": "address",
          "name": "_origin",
          "type": "address"
        },
        {
          "internalType": "address",
          "name": "_latest",
          "type": "address"
        }
      ],
      "payable": false,
      "stateMutability": "nonpayable",
      "type": "constructor"
    },
    {
      "anonymous": false,
      "inputs": [
        {
          "indexed": true,
          "internalType": "address",
          "name": "previousOwner",
          "type": "address"
        },
        {
          "indexed": true,
          "internalType": "address",
          "name": "newOwner",
          "type": "address"
        }
      ],
      "name": "OwnershipTransferred",
      "type": "event"
    },
    {
      "constant": true,
      "inputs": [],
      "name": "isOwner",
      "outputs": [
        {
          "internalType": "bool",
          "name": "",
          "type": "bool"
        }
      ],
      "payable": false,
      "stateMutability": "view",
      "type": "function"
    },
    {
      "constant": true,
      "inputs": [],
      "name": "owner",
      "outputs": [
        {
          "internalType": "address payable",
          "name": "",
          "type": "address"
        }
      ],
      "payable": false,
      "stateMutability": "view",
      "type": "function"
    },
    {
      "constant": false,
      "inputs": [],
      "name": "renounceOwnership",
      "outputs": [],
      "payable": false,
      "stateMutability": "nonpayable",
      "type": "function"
    },
    {
      "constant": false,
      "inputs": [
        {
          "internalType": "address payable",
          "name": "newOwner",
          "type": "address"
        }
      ],
      "name": "transferOwnership",
      "outputs": [],
      "payable": false,
      "stateMutability": "nonpayable",
      "type": "function"
    },
    {
      "constant": true,
      "inputs": [],
      "name": "name",
      "outputs": [
        {
          "internalType": "string",
          "name": "",
          "type": "string"
        },
        {
          "internalType": "string",
          "name": "",
          "type": "string"
        }
      ],
      "payable": false,
      "stateMutability": "view",
      "type": "function"
    },
    {
      "constant": false,
      "inputs": [],
      "name": "migration",
      "outputs": [
        {
          "internalType": "bool",
          "name": "",
          "type": "bool"
        }
      ],
      "payable": false,
      "stateMutability": "nonpayable",
      "type": "function"
    }
  ],
  "bytecode": "0x608060405234801561001057600080fd5b50604051610ccf380380610ccf83398101604081905261002f916100ba565b600080546001600160a01b03191633178082556040516001600160a01b039190911691907f8be0079c531659141344cd1fd0a4f28419497f9722a3daafe3b4186f6b6457e0908290a3600180546001600160a01b039384166001600160a01b0319918216179091556002805492909316911617905561011c565b80516100b481610105565b92915050565b600080604083850312156100cd57600080fd5b60006100d985856100a9565b92505060206100ea858286016100a9565b9150509250929050565b60006001600160a01b0382166100b4565b61010e816100f4565b811461011957600080fd5b50565b610ba48061012b6000396000f3fe608060405234801561001057600080fd5b50600436106100725760003560e01c80638da5cb5b116100505780638da5cb5b146100b55780638f32d59b146100ca578063f2fde38b146100d257610072565b806306fdde03146100775780631705a3bd14610096578063715018a6146100ab575b600080fd5b61007f6100e5565b60405161008d9291906109e0565b60405180910390f35b61009e610274565b60405161008d91906109d2565b6100b36104fa565b005b6100bd6105b0565b60405161008d919061097a565b61009e6105cc565b6100b36100e03660046107c0565b6105ea565b606080600160009054906101000a900473ffffffffffffffffffffffffffffffffffffffff1673ffffffffffffffffffffffffffffffffffffffff166306fdde036040518163ffffffff1660e01b815260040160006040518083038186803b15801561015057600080fd5b505afa158015610164573d6000803e3d6000fd5b505050506040513d6000823e601f3d9081017fffffffffffffffffffffffffffffffffffffffffffffffffffffffffffffffe01682016040526101aa91908101906107e6565b600260009054906101000a900473ffffffffffffffffffffffffffffffffffffffff1673ffffffffffffffffffffffffffffffffffffffff166306fdde036040518163ffffffff1660e01b815260040160006040518083038186803b15801561021257600080fd5b505afa158015610226573d6000803e3d6000fd5b505050506040513d6000823e601f3d9081017fffffffffffffffffffffffffffffffffffffffffffffffffffffffffffffffe016820160405261026c91908101906107e6565b915091509091565b600080805b6001546040517f70a0823100000000000000000000000000000000000000000000000000000000815273ffffffffffffffffffffffffffffffffffffffff909116906370a08231906102cf90339060040161096c565b60206040518083038186803b1580156102e757600080fd5b505afa1580156102fb573d6000803e3d6000fd5b505050506040513d601f19601f8201168201806040525061031f919081019061081b565b8110156104f1576001546040517f2f745c5900000000000000000000000000000000000000000000000000000000815273ffffffffffffffffffffffffffffffffffffffff90911690632f745c599061037e90339085906004016109b0565b60206040518083038186803b15801561039657600080fd5b505afa1580156103aa573d6000803e3d6000fd5b505050506040513d601f19601f820116820180604052506103ce919081019061081b565b6001546040517f23b872dd00000000000000000000000000000000000000000000000000000000815291935073ffffffffffffffffffffffffffffffffffffffff16906323b872dd9061042b90339061dead908790600401610988565b600060405180830381600087803b15801561044557600080fd5b505af1158015610459573d6000803e3d6000fd5b505060025473ffffffffffffffffffffffffffffffffffffffff1691506323b872dd90506104856105b0565b33856040518463ffffffff1660e01b81526004016104a593929190610988565b600060405180830381600087803b1580156104bf57600080fd5b505af11580156104d3573d6000803e3d6000fd5b505050506104eb60018261063490919063ffffffff16565b50610279565b50600191505090565b6105026105cc565b610541576040517f08c379a000000000000000000000000000000000000000000000000000000000815260040161053890610a25565b60405180910390fd5b6000805460405173ffffffffffffffffffffffffffffffffffffffff909116907f8be0079c531659141344cd1fd0a4f28419497f9722a3daafe3b4186f6b6457e0908390a3600080547fffffffffffffffffffffffff0000000000000000000000000000000000000000169055565b60005473ffffffffffffffffffffffffffffffffffffffff1690565b60005473ffffffffffffffffffffffffffffffffffffffff16331490565b6105f26105cc565b610628576040517f08c379a000000000000000000000000000000000000000000000000000000000815260040161053890610a25565b6106318161067c565b50565b600082820183811015610673576040517f08c379a000000000000000000000000000000000000000000000000000000000815260040161053890610a15565b90505b92915050565b73ffffffffffffffffffffffffffffffffffffffff81166106c9576040517f08c379a000000000000000000000000000000000000000000000000000000000815260040161053890610a05565b6000805460405173ffffffffffffffffffffffffffffffffffffffff808516939216917f8be0079c531659141344cd1fd0a4f28419497f9722a3daafe3b4186f6b6457e091a3600080547fffffffffffffffffffffffff00000000000000000000000000000000000000001673ffffffffffffffffffffffffffffffffffffffff92909216919091179055565b803561067681610b44565b600082601f83011261077257600080fd5b815161078561078082610a5c565b610a35565b915080825260208301602083018583830111156107a157600080fd5b6107ac838284610aec565b50505092915050565b805161067681610b58565b6000602082840312156107d257600080fd5b60006107de8484610756565b949350505050565b6000602082840312156107f857600080fd5b815167ffffffffffffffff81111561080f57600080fd5b6107de84828501610761565b60006020828403121561082d57600080fd5b60006107de84846107b5565b61084281610adb565b82525050565b61084281610aaf565b61084281610aba565b600061086582610aa2565b61086f8185610aa6565b935061087f818560208601610aec565b61088881610b1c565b9093019392505050565b600061089f602683610aa6565b7f4f776e61626c653a206e6577206f776e657220697320746865207a65726f206181527f6464726573730000000000000000000000000000000000000000000000000000602082015260400192915050565b60006108fe601b83610aa6565b7f536166654d6174683a206164646974696f6e206f766572666c6f770000000000815260200192915050565b6000610937602083610aa6565b7f4f776e61626c653a2063616c6c6572206973206e6f7420746865206f776e6572815260200192915050565b61084281610ad8565b602081016106768284610839565b602081016106768284610848565b606081016109968286610839565b6109a36020830185610839565b6107de6040830184610963565b604081016109be8285610839565b6109cb6020830184610963565b9392505050565b602081016106768284610851565b604080825281016109f1818561085a565b905081810360208301526107de818461085a565b6020808252810161067681610892565b60208082528101610676816108f1565b602080825281016106768161092a565b60405181810167ffffffffffffffff81118282101715610a5457600080fd5b604052919050565b600067ffffffffffffffff821115610a7357600080fd5b506020601f919091017fffffffffffffffffffffffffffffffffffffffffffffffffffffffffffffffe0160190565b5190565b90815260200190565b600061067682610abf565b151590565b73ffffffffffffffffffffffffffffffffffffffff1690565b90565b600061067682600061067682610aaf565b60005b83811015610b07578181015183820152602001610aef565b83811115610b16576000848401525b50505050565b601f017fffffffffffffffffffffffffffffffffffffffffffffffffffffffffffffffe01690565b610b4d81610aaf565b811461063157600080fd5b610b4d81610ad856fea365627a7a72315820e712ac2d9be87c0dbff42b4f25f6209793d59a3feac633c2dd8783a4a52009a76c6578706572696d656e74616cf564736f6c63430005110040",
  "source": "pragma solidity ^0.5.0;\npragma experimental ABIEncoderV2;\n\nimport \"./klaytn-contracts/token/KIP17/KIP17Token.sol\";\nimport \"./klaytn-contracts/ownership/Ownable.sol\";\nimport \"./klaytn-contracts/math/SafeMath.sol\";\nimport \"./klaytn-contracts/utils/Address.sol\";\n\ncontract Bridge is Ownable {\n    using SafeMath for uint256;\n    using Address for address;\n\n    KIP17Token private origin;\n    KIP17Token private latest;\n\n    constructor(address _origin, address _latest) public {\n        origin = KIP17Token(_origin);\n        latest = KIP17Token(_latest);\n    }\n\n    function name() public view returns(string memory, string memory) {\n        return (origin.name(), latest.name());\n    }\n\n    function migration() public returns(bool) {\n        uint256 tokenId;\n\n        for (uint256 i = 0; i < origin.balanceOf(msg.sender); i.add(1)) {\n            tokenId = origin.tokenOfOwnerByIndex(msg.sender, i);\n            origin.transferFrom(msg.sender, address(0xdead), tokenId);\n            latest.transferFrom(owner(), msg.sender, tokenId);\n        }\n        return true;\n    }\n\n    // function migrationForOwner(uint256[] memory tokenId) public onlyOwner returns(bool) {\n    //     for (uint256 i = 0; i < tokenId.length; i.add(1)) {\n    //         origin.transferFrom(msg.sender, address(0xdead), tokenId[i]);\n    //     }\n\n    //     return true;\n    // }\n\n    // function airdrop(address[] memory user, uint256[] memory tokenId) public onlyOwner returns(bool) {\n    //     for (uint256 i = 0; i < tokenId.length; i.add(1)) {\n    //         latest.transferFrom(owner(), user[i], tokenId[i]);\n    //     }\n\n    //     return true;\n    // }\n\n    // function minting(uint256 [] memory tokenId, string [] memory uri) public onlyOwner returns(bool) {\n    //     for(uint i = 0; i < tokenId.length; i++) {\n    //         latest.mintWithTokenURI(msg.sender, tokenId[i], uri[i]);\n    //     }\n\n    //     return true;\n    // }\n}",
  "sourcePath": "/root/Proj/Migration-Contract/contracts/Bridge.sol",
  "compiler": {
    "name": "solc",
    "version": "0.5.17+commit.d19bba13.Emscripten.clang"
  },
  "schemaVersion": "3.1.0",
  "updatedAt": "2022-04-06T12:19:10.114Z",
  "networkType": "ethereum",
  "devdoc": {
    "methods": {
      "isOwner()": {
        "details": "Returns true if the caller is the current owner."
      },
      "owner()": {
        "details": "Returns the address of the current owner."
      },
      "renounceOwnership()": {
        "details": "Leaves the contract without owner. It will not be possible to call `onlyOwner` functions anymore. Can only be called by the current owner.     * > Note: Renouncing ownership will leave the contract without an owner, thereby removing any functionality that is only available to the owner."
      },
      "transferOwnership(address)": {
        "details": "Transfers ownership of the contract to a new account (`newOwner`). Can only be called by the current owner."
      }
    }
  },
  "userdoc": {
    "methods": {}
  }
}