{
  "contractName": "ERC721ReceiverMock",
  "abi": [
    {
      "inputs": [
        {
          "internalType": "bytes4",
          "name": "retval",
          "type": "bytes4"
        }
      ],
      "payable": false,
      "stateMutability": "nonpayable",
      "type": "constructor"
    },
    {
      "anonymous": false,
      "inputs": [
        {
          "indexed": false,
          "internalType": "address",
          "name": "operator",
          "type": "address"
        },
        {
          "indexed": false,
          "internalType": "address",
          "name": "from",
          "type": "address"
        },
        {
          "indexed": false,
          "internalType": "uint256",
          "name": "tokenId",
          "type": "uint256"
        },
        {
          "indexed": false,
          "internalType": "bytes",
          "name": "data",
          "type": "bytes"
        },
        {
          "indexed": false,
          "internalType": "uint256",
          "name": "gas",
          "type": "uint256"
        }
      ],
      "name": "Received",
      "type": "event"
    },
    {
      "constant": false,
      "inputs": [
        {
          "internalType": "address",
          "name": "operator",
          "type": "address"
        },
        {
          "internalType": "address",
          "name": "from",
          "type": "address"
        },
        {
          "internalType": "uint256",
          "name": "tokenId",
          "type": "uint256"
        },
        {
          "internalType": "bytes",
          "name": "data",
          "type": "bytes"
        }
      ],
      "name": "onERC721Received",
      "outputs": [
        {
          "internalType": "bytes4",
          "name": "",
          "type": "bytes4"
        }
      ],
      "payable": false,
      "stateMutability": "nonpayable",
      "type": "function"
    }
  ],
  "bytecode": "0x608060405234801561001057600080fd5b506040516102ec3803806102ec8339818101604052602081101561003357600080fd5b50516000805460e09290921c63ffffffff1990921691909117905561028f8061005d6000396000f3fe608060405234801561001057600080fd5b506004361061002b5760003560e01c8063150b7a0214610030575b600080fd5b6101036004803603608081101561004657600080fd5b73ffffffffffffffffffffffffffffffffffffffff82358116926020810135909116916040820135919081019060808101606082013564010000000081111561008e57600080fd5b8201836020820111156100a057600080fd5b803590602001918460018302840111640100000000831117156100c257600080fd5b91908080601f016020809104026020016040519081016040528093929190818152602001838380828437600092019190915250929550610138945050505050565b604080517fffffffff000000000000000000000000000000000000000000000000000000009092168252519081900360200190f35b60007f28fa6e16458f9c24aa59ddd4085264573006dbe30304837873c7deafc702b038858585855a604051808673ffffffffffffffffffffffffffffffffffffffff1673ffffffffffffffffffffffffffffffffffffffff1681526020018573ffffffffffffffffffffffffffffffffffffffff1673ffffffffffffffffffffffffffffffffffffffff16815260200184815260200180602001838152602001828103825284818151815260200191508051906020019080838360005b8381101561020d5781810151838201526020016101f5565b50505050905090810190601f16801561023a5780820380516001836020036101000a031916815260200191505b50965050505050505060405180910390a15060005460e01b94935050505056fea265627a7a723158202f8c5d6f9a8714518b2f2177005f9c63d61f6710e8f905cb7de73bd466bf0fdf64736f6c63430005110032",
  "source": "pragma solidity ^0.5.0;\n\nimport \"../token/KIP17/IERC721Receiver.sol\";\n\ncontract ERC721ReceiverMock is IERC721Receiver {\n    bytes4 private _retval;\n\n    event Received(address operator, address from, uint256 tokenId, bytes data, uint256 gas);\n\n    constructor (bytes4 retval) public {\n        _retval = retval;\n    }\n\n    function onERC721Received(address operator, address from, uint256 tokenId, bytes memory data)\n        public returns (bytes4)\n    {\n        emit Received(operator, from, tokenId, data, gasleft());\n        return _retval;\n    }\n}\n",
  "sourcePath": "/root/Proj/Migration-Contract/contracts/klaytn-contracts/mocks/ERC721ReceiverMock.sol",
  "compiler": {
    "name": "solc",
    "version": "0.5.17+commit.d19bba13.Emscripten.clang"
  },
  "schemaVersion": "3.1.0",
  "updatedAt": "2022-04-05T10:24:04.344Z",
  "devdoc": {
    "methods": {}
  },
  "userdoc": {
    "methods": {}
  }
}