{
  "contractName": "KIP17PausableMock",
  "abi": [
    {
      "anonymous": false,
      "inputs": [
        {
          "indexed": true,
          "internalType": "address",
          "name": "owner",
          "type": "address"
        },
        {
          "indexed": true,
          "internalType": "address",
          "name": "approved",
          "type": "address"
        },
        {
          "indexed": true,
          "internalType": "uint256",
          "name": "tokenId",
          "type": "uint256"
        }
      ],
      "name": "Approval",
      "type": "event"
    },
    {
      "anonymous": false,
      "inputs": [
        {
          "indexed": true,
          "internalType": "address",
          "name": "owner",
          "type": "address"
        },
        {
          "indexed": true,
          "internalType": "address",
          "name": "operator",
          "type": "address"
        },
        {
          "indexed": false,
          "internalType": "bool",
          "name": "approved",
          "type": "bool"
        }
      ],
      "name": "ApprovalForAll",
      "type": "event"
    },
    {
      "anonymous": false,
      "inputs": [
        {
          "indexed": false,
          "internalType": "address",
          "name": "account",
          "type": "address"
        }
      ],
      "name": "Paused",
      "type": "event"
    },
    {
      "anonymous": false,
      "inputs": [
        {
          "indexed": true,
          "internalType": "address",
          "name": "account",
          "type": "address"
        }
      ],
      "name": "PauserAdded",
      "type": "event"
    },
    {
      "anonymous": false,
      "inputs": [
        {
          "indexed": true,
          "internalType": "address",
          "name": "account",
          "type": "address"
        }
      ],
      "name": "PauserRemoved",
      "type": "event"
    },
    {
      "anonymous": false,
      "inputs": [
        {
          "indexed": true,
          "internalType": "address",
          "name": "from",
          "type": "address"
        },
        {
          "indexed": true,
          "internalType": "address",
          "name": "to",
          "type": "address"
        },
        {
          "indexed": true,
          "internalType": "uint256",
          "name": "tokenId",
          "type": "uint256"
        }
      ],
      "name": "Transfer",
      "type": "event"
    },
    {
      "anonymous": false,
      "inputs": [
        {
          "indexed": false,
          "internalType": "address",
          "name": "account",
          "type": "address"
        }
      ],
      "name": "Unpaused",
      "type": "event"
    },
    {
      "constant": false,
      "inputs": [
        {
          "internalType": "address",
          "name": "account",
          "type": "address"
        }
      ],
      "name": "addPauser",
      "outputs": [],
      "payable": false,
      "stateMutability": "nonpayable",
      "type": "function"
    },
    {
      "constant": false,
      "inputs": [
        {
          "internalType": "address",
          "name": "to",
          "type": "address"
        },
        {
          "internalType": "uint256",
          "name": "tokenId",
          "type": "uint256"
        }
      ],
      "name": "approve",
      "outputs": [],
      "payable": false,
      "stateMutability": "nonpayable",
      "type": "function"
    },
    {
      "constant": true,
      "inputs": [
        {
          "internalType": "address",
          "name": "owner",
          "type": "address"
        }
      ],
      "name": "balanceOf",
      "outputs": [
        {
          "internalType": "uint256",
          "name": "",
          "type": "uint256"
        }
      ],
      "payable": false,
      "stateMutability": "view",
      "type": "function"
    },
    {
      "constant": true,
      "inputs": [
        {
          "internalType": "uint256",
          "name": "tokenId",
          "type": "uint256"
        }
      ],
      "name": "getApproved",
      "outputs": [
        {
          "internalType": "address",
          "name": "",
          "type": "address"
        }
      ],
      "payable": false,
      "stateMutability": "view",
      "type": "function"
    },
    {
      "constant": true,
      "inputs": [
        {
          "internalType": "address",
          "name": "owner",
          "type": "address"
        },
        {
          "internalType": "address",
          "name": "operator",
          "type": "address"
        }
      ],
      "name": "isApprovedForAll",
      "outputs": [
        {
          "internalType": "bool",
          "name": "",
          "type": "bool"
        }
      ],
      "payable": false,
      "stateMutability": "view",
      "type": "function"
    },
    {
      "constant": true,
      "inputs": [
        {
          "internalType": "address",
          "name": "account",
          "type": "address"
        }
      ],
      "name": "isPauser",
      "outputs": [
        {
          "internalType": "bool",
          "name": "",
          "type": "bool"
        }
      ],
      "payable": false,
      "stateMutability": "view",
      "type": "function"
    },
    {
      "constant": true,
      "inputs": [],
      "name": "onlyPauserMock",
      "outputs": [],
      "payable": false,
      "stateMutability": "view",
      "type": "function"
    },
    {
      "constant": true,
      "inputs": [
        {
          "internalType": "uint256",
          "name": "tokenId",
          "type": "uint256"
        }
      ],
      "name": "ownerOf",
      "outputs": [
        {
          "internalType": "address",
          "name": "",
          "type": "address"
        }
      ],
      "payable": false,
      "stateMutability": "view",
      "type": "function"
    },
    {
      "constant": false,
      "inputs": [],
      "name": "pause",
      "outputs": [],
      "payable": false,
      "stateMutability": "nonpayable",
      "type": "function"
    },
    {
      "constant": true,
      "inputs": [],
      "name": "paused",
      "outputs": [
        {
          "internalType": "bool",
          "name": "",
          "type": "bool"
        }
      ],
      "payable": false,
      "stateMutability": "view",
      "type": "function"
    },
    {
      "constant": false,
      "inputs": [
        {
          "internalType": "address",
          "name": "account",
          "type": "address"
        }
      ],
      "name": "removePauser",
      "outputs": [],
      "payable": false,
      "stateMutability": "nonpayable",
      "type": "function"
    },
    {
      "constant": false,
      "inputs": [],
      "name": "renouncePauser",
      "outputs": [],
      "payable": false,
      "stateMutability": "nonpayable",
      "type": "function"
    },
    {
      "constant": false,
      "inputs": [
        {
          "internalType": "address",
          "name": "from",
          "type": "address"
        },
        {
          "internalType": "address",
          "name": "to",
          "type": "address"
        },
        {
          "internalType": "uint256",
          "name": "tokenId",
          "type": "uint256"
        }
      ],
      "name": "safeTransferFrom",
      "outputs": [],
      "payable": false,
      "stateMutability": "nonpayable",
      "type": "function"
    },
    {
      "constant": false,
      "inputs": [
        {
          "internalType": "address",
          "name": "from",
          "type": "address"
        },
        {
          "internalType": "address",
          "name": "to",
          "type": "address"
        },
        {
          "internalType": "uint256",
          "name": "tokenId",
          "type": "uint256"
        },
        {
          "internalType": "bytes",
          "name": "_data",
          "type": "bytes"
        }
      ],
      "name": "safeTransferFrom",
      "outputs": [],
      "payable": false,
      "stateMutability": "nonpayable",
      "type": "function"
    },
    {
      "constant": false,
      "inputs": [
        {
          "internalType": "address",
          "name": "to",
          "type": "address"
        },
        {
          "internalType": "bool",
          "name": "approved",
          "type": "bool"
        }
      ],
      "name": "setApprovalForAll",
      "outputs": [],
      "payable": false,
      "stateMutability": "nonpayable",
      "type": "function"
    },
    {
      "constant": true,
      "inputs": [
        {
          "internalType": "bytes4",
          "name": "interfaceId",
          "type": "bytes4"
        }
      ],
      "name": "supportsInterface",
      "outputs": [
        {
          "internalType": "bool",
          "name": "",
          "type": "bool"
        }
      ],
      "payable": false,
      "stateMutability": "view",
      "type": "function"
    },
    {
      "constant": false,
      "inputs": [
        {
          "internalType": "address",
          "name": "from",
          "type": "address"
        },
        {
          "internalType": "address",
          "name": "to",
          "type": "address"
        },
        {
          "internalType": "uint256",
          "name": "tokenId",
          "type": "uint256"
        }
      ],
      "name": "transferFrom",
      "outputs": [],
      "payable": false,
      "stateMutability": "nonpayable",
      "type": "function"
    },
    {
      "constant": false,
      "inputs": [],
      "name": "unpause",
      "outputs": [],
      "payable": false,
      "stateMutability": "nonpayable",
      "type": "function"
    },
    {
      "constant": false,
      "inputs": [
        {
          "internalType": "address",
          "name": "to",
          "type": "address"
        },
        {
          "internalType": "uint256",
          "name": "tokenId",
          "type": "uint256"
        }
      ],
      "name": "mint",
      "outputs": [],
      "payable": false,
      "stateMutability": "nonpayable",
      "type": "function"
    },
    {
      "constant": false,
      "inputs": [
        {
          "internalType": "uint256",
          "name": "tokenId",
          "type": "uint256"
        }
      ],
      "name": "burn",
      "outputs": [],
      "payable": false,
      "stateMutability": "nonpayable",
      "type": "function"
    },
    {
      "constant": true,
      "inputs": [
        {
          "internalType": "uint256",
          "name": "tokenId",
          "type": "uint256"
        }
      ],
      "name": "exists",
      "outputs": [
        {
          "internalType": "bool",
          "name": "",
          "type": "bool"
        }
      ],
      "payable": false,
      "stateMutability": "view",
      "type": "function"
    }
  ],
  "bytecode": "0x60806040526200001f6301ffc9a760e01b6001600160e01b036200007916565b6200003a6380ac58cd60e01b6001600160e01b036200007916565b6200004e336001600160e01b03620000fe16565b6006805460ff1916905562000073634d5507ff60e01b6001600160e01b036200007916565b62000246565b6001600160e01b03198082161415620000d9576040805162461bcd60e51b815260206004820152601b60248201527f4b495031333a20696e76616c696420696e746572666163652069640000000000604482015290519081900360640190fd5b6001600160e01b0319166000908152602081905260409020805460ff19166001179055565b620001198160056200015060201b62001d5b1790919060201c565b6040516001600160a01b038216907f6719d08c1888103bea251a4ed56406bd0c3e69723c8a1686e017e7bbe159b6f890600090a250565b6200016582826001600160e01b03620001dd16565b15620001b8576040805162461bcd60e51b815260206004820152601f60248201527f526f6c65733a206163636f756e7420616c72656164792068617320726f6c6500604482015290519081900360640190fd5b6001600160a01b0316600090815260209190915260409020805460ff19166001179055565b60006001600160a01b038216620002265760405162461bcd60e51b8152600401808060200182810382526022815260200180620024ef6022913960400191505060405180910390fd5b506001600160a01b03166000908152602091909152604090205460ff1690565b61229980620002566000396000f3fe608060405234801561001057600080fd5b50600436106101775760003560e01c80634f558e79116100d857806370a082311161008c578063a22cb46511610066578063a22cb4651461046c578063b88d4fde146104a7578063e985e9c51461057a57610177565b806370a08231146103ec57806382dc1ec4146104315780638456cb591461046457610177565b80636352211e116100bd5780636352211e146103945780636b2c0f55146103b15780636ef8d66d146103e457610177565b80634f558e791461036f5780635c975abb1461038c57610177565b80633f4ba83a1161012f57806342842e0e1161011457806342842e0e146102dc57806342966c681461031f57806346fbf68e1461033c57610177565b80633f4ba83a1461029b57806340c10f19146102a357610177565b8063095ea7b311610160578063095ea7b31461021557806323b872dd14610250578063329daf901461029357610177565b806301ffc9a71461017c578063081812fc146101cf575b600080fd5b6101bb6004803603602081101561019257600080fd5b50357fffffffff00000000000000000000000000000000000000000000000000000000166105b5565b604080519115158252519081900360200190f35b6101ec600480360360208110156101e557600080fd5b50356105ec565b6040805173ffffffffffffffffffffffffffffffffffffffff9092168252519081900360200190f35b61024e6004803603604081101561022b57600080fd5b5073ffffffffffffffffffffffffffffffffffffffff8135169060200135610675565b005b61024e6004803603606081101561026657600080fd5b5073ffffffffffffffffffffffffffffffffffffffff8135811691602081013590911690604001356106f5565b61024e610777565b61024e6107d7565b61024e600480360360408110156102b957600080fd5b5073ffffffffffffffffffffffffffffffffffffffff8135169060200135610903565b61024e600480360360608110156102f257600080fd5b5073ffffffffffffffffffffffffffffffffffffffff81358116916020810135909116906040013561090d565b61024e6004803603602081101561033557600080fd5b5035610928565b6101bb6004803603602081101561035257600080fd5b503573ffffffffffffffffffffffffffffffffffffffff16610934565b6101bb6004803603602081101561038557600080fd5b503561094d565b6101bb610958565b6101ec600480360360208110156103aa57600080fd5b5035610961565b61024e600480360360208110156103c757600080fd5b503573ffffffffffffffffffffffffffffffffffffffff166109dc565b61024e6109e5565b61041f6004803603602081101561040257600080fd5b503573ffffffffffffffffffffffffffffffffffffffff166109ee565b60408051918252519081900360200190f35b61024e6004803603602081101561044757600080fd5b503573ffffffffffffffffffffffffffffffffffffffff16610a8a565b61024e610af1565b61024e6004803603604081101561048257600080fd5b5073ffffffffffffffffffffffffffffffffffffffff81351690602001351515610c21565b61024e600480360360808110156104bd57600080fd5b73ffffffffffffffffffffffffffffffffffffffff82358116926020810135909116916040820135919081019060808101606082013564010000000081111561050557600080fd5b82018360208201111561051757600080fd5b8035906020019184600183028401116401000000008311171561053957600080fd5b91908080601f016020809104026020016040519081016040528093929190818152602001838380828437600092019190915250929550610c9d945050505050565b6101bb6004803603604081101561059057600080fd5b5073ffffffffffffffffffffffffffffffffffffffff81358116916020013516610d0f565b7fffffffff000000000000000000000000000000000000000000000000000000001660009081526020819052604090205460ff1690565b60006105f782610d4a565b61064c576040517f08c379a000000000000000000000000000000000000000000000000000000000815260040180806020018281038252602b8152602001806121d8602b913960400191505060405180910390fd5b5060009081526002602052604090205473ffffffffffffffffffffffffffffffffffffffff1690565b60065460ff16156106e757604080517f08c379a000000000000000000000000000000000000000000000000000000000815260206004820152601060248201527f5061757361626c653a2070617573656400000000000000000000000000000000604482015290519081900360640190fd5b6106f18282610d74565b5050565b60065460ff161561076757604080517f08c379a000000000000000000000000000000000000000000000000000000000815260206004820152601060248201527f5061757361626c653a2070617573656400000000000000000000000000000000604482015290519081900360640190fd5b610772838383610f1b565b505050565b61078033610934565b6107d5576040517f08c379a00000000000000000000000000000000000000000000000000000000081526004018080602001828103825260308152602001806120456030913960400191505060405180910390fd5b565b6107e033610934565b610835576040517f08c379a00000000000000000000000000000000000000000000000000000000081526004018080602001828103825260308152602001806120456030913960400191505060405180910390fd5b60065460ff166108a657604080517f08c379a000000000000000000000000000000000000000000000000000000000815260206004820152601460248201527f5061757361626c653a206e6f7420706175736564000000000000000000000000604482015290519081900360640190fd5b600680547fffffffffffffffffffffffffffffffffffffffffffffffffffffffffffffff001690556040805133815290517f5db9ee0a495bf2e6ff9c91a7834c1ba4fdd244a5e8aa4e537bd38aeae4b073aa9181900360200190a1565b6106f18282610f85565b61077283838360405180602001604052806000815250610c9d565b61093181611129565b50565b600061094760058363ffffffff61113b16565b92915050565b600061094782610d4a565b60065460ff1690565b60008181526001602052604081205473ffffffffffffffffffffffffffffffffffffffff1680610947576040517f08c379a00000000000000000000000000000000000000000000000000000000081526004018080602001828103825260288152602001806120b96028913960400191505060405180910390fd5b610931816111d6565b6107d5336111d6565b600073ffffffffffffffffffffffffffffffffffffffff8216610a5c576040517f08c379a00000000000000000000000000000000000000000000000000000000081526004018080602001828103825260298152602001806121636029913960400191505060405180910390fd5b73ffffffffffffffffffffffffffffffffffffffff82166000908152600360205260409020610947906111df565b610a9333610934565b610ae8576040517f08c379a00000000000000000000000000000000000000000000000000000000081526004018080602001828103825260308152602001806120456030913960400191505060405180910390fd5b610931816111e3565b610afa33610934565b610b4f576040517f08c379a00000000000000000000000000000000000000000000000000000000081526004018080602001828103825260308152602001806120456030913960400191505060405180910390fd5b60065460ff1615610bc157604080517f08c379a000000000000000000000000000000000000000000000000000000000815260206004820152601060248201527f5061757361626c653a2070617573656400000000000000000000000000000000604482015290519081900360640190fd5b600680547fffffffffffffffffffffffffffffffffffffffffffffffffffffffffffffff001660011790556040805133815290517f62e78cea01bee320cd4e420270b5ea74000d11b0c9f74754ebdbfc544b05a2589181900360200190a1565b60065460ff1615610c9357604080517f08c379a000000000000000000000000000000000000000000000000000000000815260206004820152601060248201527f5061757361626c653a2070617573656400000000000000000000000000000000604482015290519081900360640190fd5b6106f18282611238565b610ca88484846106f5565b610cb484848484611356565b610d09576040517f08c379a00000000000000000000000000000000000000000000000000000000081526004018080602001828103825260308152602001806121336030913960400191505060405180910390fd5b50505050565b73ffffffffffffffffffffffffffffffffffffffff918216600090815260046020908152604080832093909416825291909152205460ff1690565b60009081526001602052604090205473ffffffffffffffffffffffffffffffffffffffff16151590565b6000610d7f82610961565b90508073ffffffffffffffffffffffffffffffffffffffff168373ffffffffffffffffffffffffffffffffffffffff161415610e1c57604080517f08c379a000000000000000000000000000000000000000000000000000000000815260206004820181905260248201527f4b495031373a20617070726f76616c20746f2063757272656e74206f776e6572604482015290519081900360640190fd5b3373ffffffffffffffffffffffffffffffffffffffff82161480610e455750610e458133610d0f565b610e9a576040517f08c379a00000000000000000000000000000000000000000000000000000000081526004018080602001828103825260378152602001806122036037913960400191505060405180910390fd5b60008281526002602052604080822080547fffffffffffffffffffffffff00000000000000000000000000000000000000001673ffffffffffffffffffffffffffffffffffffffff87811691821790925591518593918516917f8c5be1e5ebec7d5bd14f71427d1e84f3dd0314c0f7b2291e5b200ac8c7c3b92591a4505050565b610f2533826118f8565b610f7a576040517f08c379a00000000000000000000000000000000000000000000000000000000081526004018080602001828103825260308152602001806120e16030913960400191505060405180910390fd5b6107728383836119e2565b73ffffffffffffffffffffffffffffffffffffffff821661100757604080517f08c379a000000000000000000000000000000000000000000000000000000000815260206004820152601f60248201527f4b495031373a206d696e7420746f20746865207a65726f206164647265737300604482015290519081900360640190fd5b61101081610d4a565b1561107c57604080517f08c379a000000000000000000000000000000000000000000000000000000000815260206004820152601b60248201527f4b495031373a20746f6b656e20616c7265616479206d696e7465640000000000604482015290519081900360640190fd5b600081815260016020908152604080832080547fffffffffffffffffffffffff00000000000000000000000000000000000000001673ffffffffffffffffffffffffffffffffffffffff87169081179091558352600390915290206110e090611bc0565b604051819073ffffffffffffffffffffffffffffffffffffffff8416906000907fddf252ad1be2c89b69c2b068fc378daa952ba7f163c4a11628f55a4df523b3ef908290a45050565b61093161113582610961565b82611bc9565b600073ffffffffffffffffffffffffffffffffffffffff82166111a9576040517f08c379a00000000000000000000000000000000000000000000000000000000081526004018080602001828103825260228152602001806121116022913960400191505060405180910390fd5b5073ffffffffffffffffffffffffffffffffffffffff166000908152602091909152604090205460ff1690565b61093181611d06565b5490565b6111f460058263ffffffff611d5b16565b60405173ffffffffffffffffffffffffffffffffffffffff8216907f6719d08c1888103bea251a4ed56406bd0c3e69723c8a1686e017e7bbe159b6f890600090a250565b73ffffffffffffffffffffffffffffffffffffffff82163314156112bd57604080517f08c379a000000000000000000000000000000000000000000000000000000000815260206004820152601860248201527f4b495031373a20617070726f766520746f2063616c6c65720000000000000000604482015290519081900360640190fd5b33600081815260046020908152604080832073ffffffffffffffffffffffffffffffffffffffff87168085529083529281902080547fffffffffffffffffffffffffffffffffffffffffffffffffffffffffffffff0016861515908117909155815190815290519293927f17307eab39ab6107e8899845ad3d59bd9653f200f220920489ca2b5937696c31929181900390910190a35050565b600080606061137a8673ffffffffffffffffffffffffffffffffffffffff16611e21565b611389576001925050506118f0565b8573ffffffffffffffffffffffffffffffffffffffff1663150b7a0260e01b33898888604051602401808573ffffffffffffffffffffffffffffffffffffffff1673ffffffffffffffffffffffffffffffffffffffff1681526020018473ffffffffffffffffffffffffffffffffffffffff1673ffffffffffffffffffffffffffffffffffffffff16815260200183815260200180602001828103825283818151815260200191508051906020019080838360005b8381101561145657818101518382015260200161143e565b50505050905090810190601f1680156114835780820380516001836020036101000a031916815260200191505b50604080517fffffffffffffffffffffffffffffffffffffffffffffffffffffffffffffffe08184030181529181526020820180517bffffffffffffffffffffffffffffffffffffffffffffffffffffffff167fffffffff00000000000000000000000000000000000000000000000000000000909a16999099178952518151919890975087965094509250829150849050835b6020831061155457805182527fffffffffffffffffffffffffffffffffffffffffffffffffffffffffffffffe09092019160209182019101611517565b6001836020036101000a0380198251168184511680821785525050505050509050019150506000604051808303816000865af19150503d80600081146115b6576040519150601f19603f3d011682016040523d82523d6000602084013e6115bb565b606091505b508051919350915015801590611629575080517f150b7a0200000000000000000000000000000000000000000000000000000000906020808401919081101561160357600080fd5b50517fffffffff0000000000000000000000000000000000000000000000000000000016145b15611639576001925050506118f0565b8573ffffffffffffffffffffffffffffffffffffffff16636745782b60e01b33898888604051602401808573ffffffffffffffffffffffffffffffffffffffff1673ffffffffffffffffffffffffffffffffffffffff1681526020018473ffffffffffffffffffffffffffffffffffffffff1673ffffffffffffffffffffffffffffffffffffffff16815260200183815260200180602001828103825283818151815260200191508051906020019080838360005b838110156117065781810151838201526020016116ee565b50505050905090810190601f1680156117335780820380516001836020036101000a031916815260200191505b50604080517fffffffffffffffffffffffffffffffffffffffffffffffffffffffffffffffe08184030181529181526020820180517bffffffffffffffffffffffffffffffffffffffffffffffffffffffff167fffffffff00000000000000000000000000000000000000000000000000000000909a16999099178952518151919890975087965094509250829150849050835b6020831061180457805182527fffffffffffffffffffffffffffffffffffffffffffffffffffffffffffffffe090920191602091820191016117c7565b6001836020036101000a0380198251168184511680821785525050505050509050019150506000604051808303816000865af19150503d8060008114611866576040519150601f19603f3d011682016040523d82523d6000602084013e61186b565b606091505b5080519193509150158015906118d9575080517f6745782b0000000000000000000000000000000000000000000000000000000090602080840191908110156118b357600080fd5b50517fffffffff0000000000000000000000000000000000000000000000000000000016145b156118e9576001925050506118f0565b6000925050505b949350505050565b600061190382610d4a565b611958576040517f08c379a000000000000000000000000000000000000000000000000000000000815260040180806020018281038252602b81526020018061223a602b913960400191505060405180910390fd5b600061196383610961565b90508073ffffffffffffffffffffffffffffffffffffffff168473ffffffffffffffffffffffffffffffffffffffff1614806119d257508373ffffffffffffffffffffffffffffffffffffffff166119ba846105ec565b73ffffffffffffffffffffffffffffffffffffffff16145b806118f057506118f08185610d0f565b8273ffffffffffffffffffffffffffffffffffffffff16611a0282610961565b73ffffffffffffffffffffffffffffffffffffffff1614611a6e576040517f08c379a000000000000000000000000000000000000000000000000000000000815260040180806020018281038252602881526020018061218c6028913960400191505060405180910390fd5b73ffffffffffffffffffffffffffffffffffffffff8216611ada576040517f08c379a00000000000000000000000000000000000000000000000000000000081526004018080602001828103825260238152602001806120756023913960400191505060405180910390fd5b611ae381611e27565b73ffffffffffffffffffffffffffffffffffffffff83166000908152600360205260409020611b1190611e87565b73ffffffffffffffffffffffffffffffffffffffff82166000908152600360205260409020611b3f90611bc0565b60008181526001602052604080822080547fffffffffffffffffffffffff00000000000000000000000000000000000000001673ffffffffffffffffffffffffffffffffffffffff86811691821790925591518493918716917fddf252ad1be2c89b69c2b068fc378daa952ba7f163c4a11628f55a4df523b3ef91a4505050565b80546001019055565b8173ffffffffffffffffffffffffffffffffffffffff16611be982610961565b73ffffffffffffffffffffffffffffffffffffffff1614611c55576040517f08c379a00000000000000000000000000000000000000000000000000000000081526004018080602001828103825260248152602001806121b46024913960400191505060405180910390fd5b611c5e81611e27565b73ffffffffffffffffffffffffffffffffffffffff82166000908152600360205260409020611c8c90611e87565b60008181526001602052604080822080547fffffffffffffffffffffffff00000000000000000000000000000000000000001690555182919073ffffffffffffffffffffffffffffffffffffffff8516907fddf252ad1be2c89b69c2b068fc378daa952ba7f163c4a11628f55a4df523b3ef908390a45050565b611d1760058263ffffffff611e9e16565b60405173ffffffffffffffffffffffffffffffffffffffff8216907fcd265ebaf09df2871cc7bd4133404a235ba12eff2041bb89d9c714a2621c7c7e90600090a250565b611d65828261113b565b15611dd157604080517f08c379a000000000000000000000000000000000000000000000000000000000815260206004820152601f60248201527f526f6c65733a206163636f756e7420616c72656164792068617320726f6c6500604482015290519081900360640190fd5b73ffffffffffffffffffffffffffffffffffffffff1660009081526020919091526040902080547fffffffffffffffffffffffffffffffffffffffffffffffffffffffffffffff00166001179055565b3b151590565b60008181526002602052604090205473ffffffffffffffffffffffffffffffffffffffff161561093157600090815260026020526040902080547fffffffffffffffffffffffff0000000000000000000000000000000000000000169055565b8054611e9a90600163ffffffff611f4a16565b9055565b611ea8828261113b565b611efd576040517f08c379a00000000000000000000000000000000000000000000000000000000081526004018080602001828103825260218152602001806120986021913960400191505060405180910390fd5b73ffffffffffffffffffffffffffffffffffffffff1660009081526020919091526040902080547fffffffffffffffffffffffffffffffffffffffffffffffffffffffffffffff00169055565b6000611f8c83836040518060400160405280601e81526020017f536166654d6174683a207375627472616374696f6e206f766572666c6f770000815250611f93565b9392505050565b6000818484111561203c576040517f08c379a00000000000000000000000000000000000000000000000000000000081526004018080602001828103825283818151815260200191508051906020019080838360005b83811015612001578181015183820152602001611fe9565b50505050905090810190601f16801561202e5780820380516001836020036101000a031916815260200191505b509250505060405180910390fd5b50505090039056fe506175736572526f6c653a2063616c6c657220646f6573206e6f742068617665207468652050617573657220726f6c654b495031373a207472616e7366657220746f20746865207a65726f2061646472657373526f6c65733a206163636f756e7420646f6573206e6f74206861766520726f6c654b495031373a206f776e657220717565727920666f72206e6f6e6578697374656e7420746f6b656e4b495031373a207472616e736665722063616c6c6572206973206e6f74206f776e6572206e6f7220617070726f766564526f6c65733a206163636f756e7420697320746865207a65726f20616464726573734b495031373a207472616e7366657220746f206e6f6e204b49503137526563656976657220696d706c656d656e7465724b495031373a2062616c616e636520717565727920666f7220746865207a65726f20616464726573734b495031373a207472616e73666572206f6620746f6b656e2074686174206973206e6f74206f776e4b495031373a206275726e206f6620746f6b656e2074686174206973206e6f74206f776e4b495031373a20617070726f76656420717565727920666f72206e6f6e6578697374656e7420746f6b656e4b495031373a20617070726f76652063616c6c6572206973206e6f74206f776e6572206e6f7220617070726f76656420666f7220616c6c4b495031373a206f70657261746f7220717565727920666f72206e6f6e6578697374656e7420746f6b656ea265627a7a72315820f76b6a7d860668d16ed75adb3bcca116246294693a30da172b37ead4ed967ac664736f6c63430005110032526f6c65733a206163636f756e7420697320746865207a65726f2061646472657373",
  "source": "pragma solidity ^0.5.0;\n\nimport \"../token/KIP17/KIP17Pausable.sol\";\nimport \"./PauserRoleMock.sol\";\n\n/**\n * @title KIP17PausableMock\n * This mock just provides a public mint, burn and exists functions for testing purposes\n */\ncontract KIP17PausableMock is KIP17Pausable, PauserRoleMock {\n    function mint(address to, uint256 tokenId) public {\n        super._mint(to, tokenId);\n    }\n\n    function burn(uint256 tokenId) public {\n        super._burn(tokenId);\n    }\n\n    function exists(uint256 tokenId) public view returns (bool) {\n        return super._exists(tokenId);\n    }\n}\n",
  "sourcePath": "/root/Proj/Migration-Contract/contracts/klaytn-contracts/mocks/KIP17PausableMock.sol",
  "compiler": {
    "name": "solc",
    "version": "0.5.17+commit.d19bba13.Emscripten.clang"
  },
  "schemaVersion": "3.1.0",
  "updatedAt": "2022-04-05T10:24:04.360Z",
  "devdoc": {
    "methods": {
      "balanceOf(address)": {
        "details": "Gets the balance of the specified address.",
        "params": {
          "owner": "address to query the balance of"
        },
        "return": "uint256 representing the amount owned by the passed address"
      },
      "getApproved(uint256)": {
        "details": "Gets the approved address for a token ID, or zero if no address set Reverts if the token ID does not exist.",
        "params": {
          "tokenId": "uint256 ID of the token to query the approval of"
        },
        "return": "address currently approved for the given token ID"
      },
      "isApprovedForAll(address,address)": {
        "details": "Tells whether an operator is approved by a given owner.",
        "params": {
          "operator": "operator address which you want to query the approval of",
          "owner": "owner address which you want to query the approval of"
        },
        "return": "bool whether the given operator is approved by the given owner"
      },
      "ownerOf(uint256)": {
        "details": "Gets the owner of the specified token ID.",
        "params": {
          "tokenId": "uint256 ID of the token to query the owner of"
        },
        "return": "address currently marked as the owner of the given token ID"
      },
      "pause()": {
        "details": "Called by a pauser to pause, triggers stopped state."
      },
      "paused()": {
        "details": "Returns true if the contract is paused, and false otherwise."
      },
      "safeTransferFrom(address,address,uint256)": {
        "details": "Safely transfers the ownership of a given token ID to another address If the target address is a contract, it must implement `onKIP17Received`, which is called upon a safe transfer, and return the magic value `bytes4(keccak256(\"onKIP17Received(address,address,uint256,bytes)\"))`; otherwise, the transfer is reverted. Requires the msg.sender to be the owner, approved, or operator",
        "params": {
          "from": "current owner of the token",
          "to": "address to receive the ownership of the given token ID",
          "tokenId": "uint256 ID of the token to be transferred"
        }
      },
      "safeTransferFrom(address,address,uint256,bytes)": {
        "details": "Safely transfers the ownership of a given token ID to another address If the target address is a contract, it must implement `onKIP17Received`, which is called upon a safe transfer, and return the magic value `bytes4(keccak256(\"onKIP17Received(address,address,uint256,bytes)\"))`; otherwise, the transfer is reverted. Requires the msg.sender to be the owner, approved, or operator",
        "params": {
          "_data": "bytes data to send along with a safe transfer check",
          "from": "current owner of the token",
          "to": "address to receive the ownership of the given token ID",
          "tokenId": "uint256 ID of the token to be transferred"
        }
      },
      "supportsInterface(bytes4)": {
        "details": "See `IKIP13.supportsInterface`.     * Time complexity O(1), guaranteed to always use less than 30 000 gas."
      },
      "unpause()": {
        "details": "Called by a pauser to unpause, returns to normal state."
      }
    },
    "title": "KIP17PausableMock This mock just provides a public mint, burn and exists functions for testing purposes"
  },
  "userdoc": {
    "methods": {}
  }
}