{
  "contractName": "KIP13CheckerMock",
  "abi": [
    {
      "constant": true,
      "inputs": [
        {
          "internalType": "address",
          "name": "account",
          "type": "address"
        }
      ],
      "name": "supportsKIP13",
      "outputs": [
        {
          "internalType": "bool",
          "name": "",
          "type": "bool"
        }
      ],
      "payable": false,
      "stateMutability": "view",
      "type": "function"
    },
    {
      "constant": true,
      "inputs": [
        {
          "internalType": "address",
          "name": "account",
          "type": "address"
        },
        {
          "internalType": "bytes4",
          "name": "interfaceId",
          "type": "bytes4"
        }
      ],
      "name": "supportsInterface",
      "outputs": [
        {
          "internalType": "bool",
          "name": "",
          "type": "bool"
        }
      ],
      "payable": false,
      "stateMutability": "view",
      "type": "function"
    },
    {
      "constant": true,
      "inputs": [
        {
          "internalType": "address",
          "name": "account",
          "type": "address"
        },
        {
          "internalType": "bytes4[]",
          "name": "interfaceIds",
          "type": "bytes4[]"
        }
      ],
      "name": "supportsAllInterfaces",
      "outputs": [
        {
          "internalType": "bool",
          "name": "",
          "type": "bool"
        }
      ],
      "payable": false,
      "stateMutability": "view",
      "type": "function"
    }
  ],
  "bytecode": "0x608060405234801561001057600080fd5b5061040b806100206000396000f3fe608060405234801561001057600080fd5b50600436106100415760003560e01c80634b9dd90414610046578063aad8e2c21461011a578063d90570071461014d575b600080fd5b6101066004803603604081101561005c57600080fd5b73ffffffffffffffffffffffffffffffffffffffff823516919081019060408101602082013564010000000081111561009457600080fd5b8201836020820111156100a657600080fd5b803590602001918460208302840111640100000000831117156100c857600080fd5b9190808060200260200160405190810160405280939291908181526020018383602002808284376000920191909152509295506101a8945050505050565b604080519115158252519081900360200190f35b6101066004803603602081101561013057600080fd5b503573ffffffffffffffffffffffffffffffffffffffff166101d9565b6101066004803603604081101561016357600080fd5b50803573ffffffffffffffffffffffffffffffffffffffff1690602001357fffffffff00000000000000000000000000000000000000000000000000000000166101fa565b60006101d073ffffffffffffffffffffffffffffffffffffffff84168363ffffffff61022216565b90505b92915050565b60006101d38273ffffffffffffffffffffffffffffffffffffffff16610282565b60006101d073ffffffffffffffffffffffffffffffffffffffff84168363ffffffff6102e616565b600061022d83610282565b610239575060006101d3565b60005b8251811015610278576102628484838151811061025557fe5b60200260200101516102fe565b6102705760009150506101d3565b60010161023c565b5060019392505050565b60006102ae827f01ffc9a7000000000000000000000000000000000000000000000000000000006102fe565b80156101d357506102df827fffffffff000000000000000000000000000000000000000000000000000000006102fe565b1592915050565b60006102f183610282565b80156101d057506101d083835b600080600061030d8585610324565b9150915081801561031b5750805b95945050505050565b604080517fffffffff0000000000000000000000000000000000000000000000000000000083166024808301919091528251808303909101815260449091018252602081810180517bffffffffffffffffffffffffffffffffffffffffffffffffffffffff167f01ffc9a700000000000000000000000000000000000000000000000000000000178152825193516000808252948594939091908183858b617530fa905190989097509550505050505056fea265627a7a72315820351bad90854f46e8eed726867cbe90e614bae628f5290abd50b4027c066f8ea264736f6c63430005110032",
  "source": "pragma solidity ^0.5.0;\n\nimport \"../introspection/KIP13Checker.sol\";\n\ncontract KIP13CheckerMock {\n    using KIP13Checker for address;\n\n    function supportsKIP13(address account) public view returns (bool) {\n        return account._supportsKIP13();\n    }\n\n    function supportsInterface(address account, bytes4 interfaceId) public view returns (bool) {\n        return account._supportsInterface(interfaceId);\n    }\n\n    function supportsAllInterfaces(address account, bytes4[] memory interfaceIds) public view returns (bool) {\n        return account._supportsAllInterfaces(interfaceIds);\n    }\n}\n",
  "sourcePath": "/root/Proj/Migration-Contract/contracts/klaytn-contracts/mocks/KIP13CheckerMock.sol",
  "compiler": {
    "name": "solc",
    "version": "0.5.17+commit.d19bba13.Emscripten.clang"
  },
  "schemaVersion": "3.1.0",
  "updatedAt": "2022-04-05T10:24:04.350Z",
  "devdoc": {
    "methods": {}
  },
  "userdoc": {
    "methods": {}
  }
}