{
  "contractName": "KIP37PausableMock",
  "abi": [
    {
      "inputs": [
        {
          "internalType": "string",
          "name": "uri",
          "type": "string"
        }
      ],
      "payable": false,
      "stateMutability": "nonpayable",
      "type": "constructor"
    },
    {
      "anonymous": false,
      "inputs": [
        {
          "indexed": true,
          "internalType": "address",
          "name": "account",
          "type": "address"
        },
        {
          "indexed": true,
          "internalType": "address",
          "name": "operator",
          "type": "address"
        },
        {
          "indexed": false,
          "internalType": "bool",
          "name": "approved",
          "type": "bool"
        }
      ],
      "name": "ApprovalForAll",
      "type": "event"
    },
    {
      "anonymous": false,
      "inputs": [
        {
          "indexed": false,
          "internalType": "uint256",
          "name": "tokenId",
          "type": "uint256"
        },
        {
          "indexed": false,
          "internalType": "address",
          "name": "account",
          "type": "address"
        }
      ],
      "name": "Paused",
      "type": "event"
    },
    {
      "anonymous": false,
      "inputs": [
        {
          "indexed": false,
          "internalType": "address",
          "name": "account",
          "type": "address"
        }
      ],
      "name": "Paused",
      "type": "event"
    },
    {
      "anonymous": false,
      "inputs": [
        {
          "indexed": true,
          "internalType": "address",
          "name": "account",
          "type": "address"
        }
      ],
      "name": "PauserAdded",
      "type": "event"
    },
    {
      "anonymous": false,
      "inputs": [
        {
          "indexed": true,
          "internalType": "address",
          "name": "account",
          "type": "address"
        }
      ],
      "name": "PauserRemoved",
      "type": "event"
    },
    {
      "anonymous": false,
      "inputs": [
        {
          "indexed": true,
          "internalType": "address",
          "name": "operator",
          "type": "address"
        },
        {
          "indexed": true,
          "internalType": "address",
          "name": "from",
          "type": "address"
        },
        {
          "indexed": true,
          "internalType": "address",
          "name": "to",
          "type": "address"
        },
        {
          "indexed": false,
          "internalType": "uint256[]",
          "name": "ids",
          "type": "uint256[]"
        },
        {
          "indexed": false,
          "internalType": "uint256[]",
          "name": "values",
          "type": "uint256[]"
        }
      ],
      "name": "TransferBatch",
      "type": "event"
    },
    {
      "anonymous": false,
      "inputs": [
        {
          "indexed": true,
          "internalType": "address",
          "name": "operator",
          "type": "address"
        },
        {
          "indexed": true,
          "internalType": "address",
          "name": "from",
          "type": "address"
        },
        {
          "indexed": true,
          "internalType": "address",
          "name": "to",
          "type": "address"
        },
        {
          "indexed": false,
          "internalType": "uint256",
          "name": "id",
          "type": "uint256"
        },
        {
          "indexed": false,
          "internalType": "uint256",
          "name": "value",
          "type": "uint256"
        }
      ],
      "name": "TransferSingle",
      "type": "event"
    },
    {
      "anonymous": false,
      "inputs": [
        {
          "indexed": false,
          "internalType": "string",
          "name": "value",
          "type": "string"
        },
        {
          "indexed": true,
          "internalType": "uint256",
          "name": "id",
          "type": "uint256"
        }
      ],
      "name": "URI",
      "type": "event"
    },
    {
      "anonymous": false,
      "inputs": [
        {
          "indexed": false,
          "internalType": "uint256",
          "name": "tokenId",
          "type": "uint256"
        },
        {
          "indexed": false,
          "internalType": "address",
          "name": "account",
          "type": "address"
        }
      ],
      "name": "Unpaused",
      "type": "event"
    },
    {
      "anonymous": false,
      "inputs": [
        {
          "indexed": false,
          "internalType": "address",
          "name": "account",
          "type": "address"
        }
      ],
      "name": "Unpaused",
      "type": "event"
    },
    {
      "constant": false,
      "inputs": [
        {
          "internalType": "address",
          "name": "account",
          "type": "address"
        }
      ],
      "name": "addPauser",
      "outputs": [],
      "payable": false,
      "stateMutability": "nonpayable",
      "type": "function"
    },
    {
      "constant": true,
      "inputs": [
        {
          "internalType": "address",
          "name": "account",
          "type": "address"
        },
        {
          "internalType": "uint256",
          "name": "id",
          "type": "uint256"
        }
      ],
      "name": "balanceOf",
      "outputs": [
        {
          "internalType": "uint256",
          "name": "",
          "type": "uint256"
        }
      ],
      "payable": false,
      "stateMutability": "view",
      "type": "function"
    },
    {
      "constant": true,
      "inputs": [
        {
          "internalType": "address[]",
          "name": "accounts",
          "type": "address[]"
        },
        {
          "internalType": "uint256[]",
          "name": "ids",
          "type": "uint256[]"
        }
      ],
      "name": "balanceOfBatch",
      "outputs": [
        {
          "internalType": "uint256[]",
          "name": "",
          "type": "uint256[]"
        }
      ],
      "payable": false,
      "stateMutability": "view",
      "type": "function"
    },
    {
      "constant": false,
      "inputs": [
        {
          "internalType": "address",
          "name": "owner",
          "type": "address"
        },
        {
          "internalType": "uint256",
          "name": "id",
          "type": "uint256"
        },
        {
          "internalType": "uint256",
          "name": "value",
          "type": "uint256"
        }
      ],
      "name": "burn",
      "outputs": [],
      "payable": false,
      "stateMutability": "nonpayable",
      "type": "function"
    },
    {
      "constant": false,
      "inputs": [
        {
          "internalType": "address",
          "name": "owner",
          "type": "address"
        },
        {
          "internalType": "uint256[]",
          "name": "ids",
          "type": "uint256[]"
        },
        {
          "internalType": "uint256[]",
          "name": "values",
          "type": "uint256[]"
        }
      ],
      "name": "burnBatch",
      "outputs": [],
      "payable": false,
      "stateMutability": "nonpayable",
      "type": "function"
    },
    {
      "constant": true,
      "inputs": [
        {
          "internalType": "address",
          "name": "account",
          "type": "address"
        },
        {
          "internalType": "address",
          "name": "operator",
          "type": "address"
        }
      ],
      "name": "isApprovedForAll",
      "outputs": [
        {
          "internalType": "bool",
          "name": "",
          "type": "bool"
        }
      ],
      "payable": false,
      "stateMutability": "view",
      "type": "function"
    },
    {
      "constant": true,
      "inputs": [
        {
          "internalType": "address",
          "name": "account",
          "type": "address"
        }
      ],
      "name": "isPauser",
      "outputs": [
        {
          "internalType": "bool",
          "name": "",
          "type": "bool"
        }
      ],
      "payable": false,
      "stateMutability": "view",
      "type": "function"
    },
    {
      "constant": false,
      "inputs": [
        {
          "internalType": "address",
          "name": "to",
          "type": "address"
        },
        {
          "internalType": "uint256",
          "name": "id",
          "type": "uint256"
        },
        {
          "internalType": "uint256",
          "name": "value",
          "type": "uint256"
        },
        {
          "internalType": "bytes",
          "name": "data",
          "type": "bytes"
        }
      ],
      "name": "mint",
      "outputs": [],
      "payable": false,
      "stateMutability": "nonpayable",
      "type": "function"
    },
    {
      "constant": false,
      "inputs": [
        {
          "internalType": "address",
          "name": "to",
          "type": "address"
        },
        {
          "internalType": "uint256[]",
          "name": "ids",
          "type": "uint256[]"
        },
        {
          "internalType": "uint256[]",
          "name": "values",
          "type": "uint256[]"
        },
        {
          "internalType": "bytes",
          "name": "data",
          "type": "bytes"
        }
      ],
      "name": "mintBatch",
      "outputs": [],
      "payable": false,
      "stateMutability": "nonpayable",
      "type": "function"
    },
    {
      "constant": false,
      "inputs": [
        {
          "internalType": "uint256",
          "name": "_id",
          "type": "uint256"
        }
      ],
      "name": "pause",
      "outputs": [],
      "payable": false,
      "stateMutability": "nonpayable",
      "type": "function"
    },
    {
      "constant": false,
      "inputs": [],
      "name": "pause",
      "outputs": [],
      "payable": false,
      "stateMutability": "nonpayable",
      "type": "function"
    },
    {
      "constant": true,
      "inputs": [
        {
          "internalType": "uint256",
          "name": "_id",
          "type": "uint256"
        }
      ],
      "name": "paused",
      "outputs": [
        {
          "internalType": "bool",
          "name": "",
          "type": "bool"
        }
      ],
      "payable": false,
      "stateMutability": "view",
      "type": "function"
    },
    {
      "constant": true,
      "inputs": [],
      "name": "paused",
      "outputs": [
        {
          "internalType": "bool",
          "name": "",
          "type": "bool"
        }
      ],
      "payable": false,
      "stateMutability": "view",
      "type": "function"
    },
    {
      "constant": false,
      "inputs": [],
      "name": "renouncePauser",
      "outputs": [],
      "payable": false,
      "stateMutability": "nonpayable",
      "type": "function"
    },
    {
      "constant": false,
      "inputs": [
        {
          "internalType": "address",
          "name": "from",
          "type": "address"
        },
        {
          "internalType": "address",
          "name": "to",
          "type": "address"
        },
        {
          "internalType": "uint256[]",
          "name": "ids",
          "type": "uint256[]"
        },
        {
          "internalType": "uint256[]",
          "name": "amounts",
          "type": "uint256[]"
        },
        {
          "internalType": "bytes",
          "name": "data",
          "type": "bytes"
        }
      ],
      "name": "safeBatchTransferFrom",
      "outputs": [],
      "payable": false,
      "stateMutability": "nonpayable",
      "type": "function"
    },
    {
      "constant": false,
      "inputs": [
        {
          "internalType": "address",
          "name": "from",
          "type": "address"
        },
        {
          "internalType": "address",
          "name": "to",
          "type": "address"
        },
        {
          "internalType": "uint256",
          "name": "id",
          "type": "uint256"
        },
        {
          "internalType": "uint256",
          "name": "amount",
          "type": "uint256"
        },
        {
          "internalType": "bytes",
          "name": "data",
          "type": "bytes"
        }
      ],
      "name": "safeTransferFrom",
      "outputs": [],
      "payable": false,
      "stateMutability": "nonpayable",
      "type": "function"
    },
    {
      "constant": false,
      "inputs": [
        {
          "internalType": "address",
          "name": "operator",
          "type": "address"
        },
        {
          "internalType": "bool",
          "name": "approved",
          "type": "bool"
        }
      ],
      "name": "setApprovalForAll",
      "outputs": [],
      "payable": false,
      "stateMutability": "nonpayable",
      "type": "function"
    },
    {
      "constant": false,
      "inputs": [
        {
          "internalType": "string",
          "name": "newuri",
          "type": "string"
        }
      ],
      "name": "setURI",
      "outputs": [],
      "payable": false,
      "stateMutability": "nonpayable",
      "type": "function"
    },
    {
      "constant": true,
      "inputs": [
        {
          "internalType": "bytes4",
          "name": "interfaceId",
          "type": "bytes4"
        }
      ],
      "name": "supportsInterface",
      "outputs": [
        {
          "internalType": "bool",
          "name": "",
          "type": "bool"
        }
      ],
      "payable": false,
      "stateMutability": "view",
      "type": "function"
    },
    {
      "constant": true,
      "inputs": [
        {
          "internalType": "uint256",
          "name": "_tokenId",
          "type": "uint256"
        }
      ],
      "name": "totalSupply",
      "outputs": [
        {
          "internalType": "uint256",
          "name": "",
          "type": "uint256"
        }
      ],
      "payable": false,
      "stateMutability": "view",
      "type": "function"
    },
    {
      "constant": false,
      "inputs": [],
      "name": "unpause",
      "outputs": [],
      "payable": false,
      "stateMutability": "nonpayable",
      "type": "function"
    },
    {
      "constant": false,
      "inputs": [
        {
          "internalType": "uint256",
          "name": "_id",
          "type": "uint256"
        }
      ],
      "name": "unpause",
      "outputs": [],
      "payable": false,
      "stateMutability": "nonpayable",
      "type": "function"
    },
    {
      "constant": true,
      "inputs": [
        {
          "internalType": "uint256",
          "name": "",
          "type": "uint256"
        }
      ],
      "name": "uri",
      "outputs": [
        {
          "internalType": "string",
          "name": "",
          "type": "string"
        }
      ],
      "payable": false,
      "stateMutability": "view",
      "type": "function"
    }
  ],
  "bytecode": "0x60806040523480156200001157600080fd5b506040516200433538038062004335833981810160405260208110156200003757600080fd5b81019080805160405193929190846401000000008211156200005857600080fd5b9083019060208201858111156200006e57600080fd5b82516401000000008111828201881017156200008957600080fd5b82525081516020918201929091019080838360005b83811015620000b85781810151838201526020016200009e565b50505050905090810190601f168015620000e65780820380516001836020036101000a031916815260200191505b50604052508291508190506200010c6301ffc9a760e01b6001600160e01b036200019916565b62000120816001600160e01b036200021e16565b6200013b636433ca1f60e01b6001600160e01b036200019916565b620001566303a24d0760e21b6001600160e01b036200019916565b506200016d9050336001600160e01b036200023716565b6006805460ff1916905562000192630e8ffdb760e01b6001600160e01b036200019916565b5062000424565b6001600160e01b03198082161415620001f9576040805162461bcd60e51b815260206004820152601b60248201527f4b495031333a20696e76616c696420696e746572666163652069640000000000604482015290519081900360640190fd5b6001600160e01b0319166000908152602081905260409020805460ff19166001179055565b8051620002339060049060208401906200037f565b5050565b620002528160056200028960201b62003a4f1790919060201c565b6040516001600160a01b038216907f6719d08c1888103bea251a4ed56406bd0c3e69723c8a1686e017e7bbe159b6f890600090a250565b6200029e82826001600160e01b036200031616565b15620002f1576040805162461bcd60e51b815260206004820152601f60248201527f526f6c65733a206163636f756e7420616c72656164792068617320726f6c6500604482015290519081900360640190fd5b6001600160a01b0316600090815260209190915260409020805460ff19166001179055565b60006001600160a01b0382166200035f5760405162461bcd60e51b8152600401808060200182810382526022815260200180620043136022913960400191505060405180910390fd5b506001600160a01b03166000908152602091909152604090205460ff1690565b828054600181600116156101000203166002900490600052602060002090601f016020900481019282601f10620003c257805160ff1916838001178555620003f2565b82800160010185558215620003f2579182015b82811115620003f2578251825591602001919060010190620003d5565b506200040092915062000404565b5090565b6200042191905b808211156200040057600081556001016200040b565b90565b613edf80620004346000396000f3fe608060405234801561001057600080fd5b506004361061018b5760003560e01c80635c975abb116100e3578063a22cb4651161008c578063f242432a11610066578063f242432a14610be4578063f5298aca14610cbc578063fabc1cbc14610cfb5761018b565b8063a22cb46514610b51578063bd85b03914610b8c578063e985e9c514610ba95761018b565b8063731133e9116100bd578063731133e914610a4757806382dc1ec414610b165780638456cb5914610b495761018b565b80635c975abb146108f35780636b20c454146108fb5780636ef8d66d14610a3f5761018b565b8063136439dd116101455780633f4ba83a1161011f5780633f4ba83a1461074157806346fbf68e146107495780634e1273f41461077c5761018b565b8063136439dd146103855780631f7fdffa146103a25780632eb2c2d61461056d5761018b565b806301ffc9a71161017657806301ffc9a71461020c57806302fe53051461024b5780630e89341c146102f35761018b565b8062dde10e14610190578062fdd58e146101c1575b600080fd5b6101ad600480360360208110156101a657600080fd5b5035610d18565b604080519115158252519081900360200190f35b6101fa600480360360408110156101d757600080fd5b5073ffffffffffffffffffffffffffffffffffffffff8135169060200135610d2d565b60408051918252519081900360200190f35b6101ad6004803603602081101561022257600080fd5b50357fffffffff0000000000000000000000000000000000000000000000000000000016610dd0565b6102f16004803603602081101561026157600080fd5b81019060208101813564010000000081111561027c57600080fd5b82018360208201111561028e57600080fd5b803590602001918460018302840111640100000000831117156102b057600080fd5b91908080601f016020809104026020016040519081016040528093929190818152602001838380828437600092019190915250929550610e07945050505050565b005b6103106004803603602081101561030957600080fd5b5035610e13565b6040805160208082528351818301528351919283929083019185019080838360005b8381101561034a578181015183820152602001610332565b50505050905090810190601f1680156103775780820380516001836020036101000a031916815260200191505b509250505060405180910390f35b6102f16004803603602081101561039b57600080fd5b5035610ec9565b6102f1600480360360808110156103b857600080fd5b73ffffffffffffffffffffffffffffffffffffffff82351691908101906040810160208201356401000000008111156103f057600080fd5b82018360208201111561040257600080fd5b8035906020019184602083028401116401000000008311171561042457600080fd5b919080806020026020016040519081016040528093929190818152602001838360200280828437600092019190915250929594936020810193503591505064010000000081111561047457600080fd5b82018360208201111561048657600080fd5b803590602001918460208302840111640100000000831117156104a857600080fd5b91908080602002602001604051908101604052809392919081815260200183836020028082843760009201919091525092959493602081019350359150506401000000008111156104f857600080fd5b82018360208201111561050a57600080fd5b8035906020019184600183028401116401000000008311171561052c57600080fd5b91908080601f01602080910402602001604051908101604052809392919081815260200183838082843760009201919091525092955061101d945050505050565b6102f1600480360360a081101561058357600080fd5b73ffffffffffffffffffffffffffffffffffffffff82358116926020810135909116918101906060810160408201356401000000008111156105c457600080fd5b8201836020820111156105d657600080fd5b803590602001918460208302840111640100000000831117156105f857600080fd5b919080806020026020016040519081016040528093929190818152602001838360200280828437600092019190915250929594936020810193503591505064010000000081111561064857600080fd5b82018360208201111561065a57600080fd5b8035906020019184602083028401116401000000008311171561067c57600080fd5b91908080602002602001604051908101604052809392919081815260200183836020028082843760009201919091525092959493602081019350359150506401000000008111156106cc57600080fd5b8201836020820111156106de57600080fd5b8035906020019184600183028401116401000000008311171561070057600080fd5b91908080601f01602080910402602001604051908101604052809392919081815260200183838082843760009201919091525092955061102f945050505050565b6102f1611452565b6101ad6004803603602081101561075f57600080fd5b503573ffffffffffffffffffffffffffffffffffffffff1661157e565b6108a36004803603604081101561079257600080fd5b8101906020810181356401000000008111156107ad57600080fd5b8201836020820111156107bf57600080fd5b803590602001918460208302840111640100000000831117156107e157600080fd5b919080806020026020016040519081016040528093929190818152602001838360200280828437600092019190915250929594936020810193503591505064010000000081111561083157600080fd5b82018360208201111561084357600080fd5b8035906020019184602083028401116401000000008311171561086557600080fd5b919080806020026020016040519081016040528093929190818152602001838360200280828437600092019190915250929550611597945050505050565b60408051602080825283518183015283519192839290830191858101910280838360005b838110156108df5781810151838201526020016108c7565b505050509050019250505060405180910390f35b6101ad611766565b6102f16004803603606081101561091157600080fd5b73ffffffffffffffffffffffffffffffffffffffff823516919081019060408101602082013564010000000081111561094957600080fd5b82018360208201111561095b57600080fd5b8035906020019184602083028401116401000000008311171561097d57600080fd5b91908080602002602001604051908101604052809392919081815260200183836020028082843760009201919091525092959493602081019350359150506401000000008111156109cd57600080fd5b8201836020820111156109df57600080fd5b80359060200191846020830284011164010000000083111715610a0157600080fd5b919080806020026020016040519081016040528093929190818152602001838360200280828437600092019190915250929550611770945050505050565b6102f1611780565b6102f160048036036080811015610a5d57600080fd5b73ffffffffffffffffffffffffffffffffffffffff8235169160208101359160408201359190810190608081016060820135640100000000811115610aa157600080fd5b820183602082011115610ab357600080fd5b80359060200191846001830284011164010000000083111715610ad557600080fd5b91908080601f01602080910402602001604051908101604052809392919081815260200183838082843760009201919091525092955061178b945050505050565b6102f160048036036020811015610b2c57600080fd5b503573ffffffffffffffffffffffffffffffffffffffff16611797565b6102f16117fe565b6102f160048036036040811015610b6757600080fd5b5073ffffffffffffffffffffffffffffffffffffffff8135169060200135151561192e565b6101fa60048036036020811015610ba257600080fd5b5035611a89565b6101ad60048036036040811015610bbf57600080fd5b5073ffffffffffffffffffffffffffffffffffffffff81358116916020013516611a9b565b6102f1600480360360a0811015610bfa57600080fd5b73ffffffffffffffffffffffffffffffffffffffff823581169260208101359091169160408201359160608101359181019060a081016080820135640100000000811115610c4757600080fd5b820183602082011115610c5957600080fd5b80359060200191846001830284011164010000000083111715610c7b57600080fd5b91908080601f016020809104026020016040519081016040528093929190818152602001838380828437600092019190915250929550611ad6945050505050565b6102f160048036036060811015610cd257600080fd5b5073ffffffffffffffffffffffffffffffffffffffff8135169060208101359060400135611d7e565b6102f160048036036020811015610d1157600080fd5b5035611d89565b60009081526007602052604090205460ff1690565b600073ffffffffffffffffffffffffffffffffffffffff8316610d9b576040517f08c379a0000000000000000000000000000000000000000000000000000000008152600401808060200182810382526029815260200180613c486029913960400191505060405180910390fd5b50600090815260016020908152604080832073ffffffffffffffffffffffffffffffffffffffff949094168352929052205490565b7fffffffff000000000000000000000000000000000000000000000000000000001660009081526020819052604090205460ff1690565b610e1081611ede565b50565b60048054604080516020601f60027fffffffffffffffffffffffffffffffffffffffffffffffffffffffffffffffff610100600188161502019095169490940493840181900481028201810190925282815260609390929091830182828015610ebd5780601f10610e9257610100808354040283529160200191610ebd565b820191906000526020600020905b815481529060010190602001808311610ea057829003601f168201915b50505050509050919050565b610ed23361157e565b610f27576040517f08c379a0000000000000000000000000000000000000000000000000000000008152600401808060200182810382526030815260200180613bd56030913960400191505060405180910390fd5b60008181526007602052604090205460ff1615610fa557604080517f08c379a000000000000000000000000000000000000000000000000000000000815260206004820152601d60248201527f4b495033375061757361626c653a20616c726561647920706175736564000000604482015290519081900360640190fd5b60008181526007602090815260409182902080547fffffffffffffffffffffffffffffffffffffffffffffffffffffffffffffff001660011790558151838152339181019190915281517fabdb1c9133626eb4f8c5f2ec7e3c60a969a2fb148a0c341a3cf6597242c8f8f5929181900390910190a150565b61102984848484611ef5565b50505050565b8151835114611089576040517f08c379a0000000000000000000000000000000000000000000000000000000008152600401808060200182810382526026815260200180613c986026913960400191505060405180910390fd5b73ffffffffffffffffffffffffffffffffffffffff84166110f5576040517f08c379a0000000000000000000000000000000000000000000000000000000008152600401808060200182810382526023815260200180613e016023913960400191505060405180910390fd5b6110fd6122be565b73ffffffffffffffffffffffffffffffffffffffff168573ffffffffffffffffffffffffffffffffffffffff16148061114257506111428561113d6122be565b611a9b565b611197576040517f08c379a0000000000000000000000000000000000000000000000000000000008152600401808060200182810382526030815260200180613cbe6030913960400191505060405180910390fd5b60006111a16122be565b90506111b18187878787876122c2565b60005b84518110156112e65760008582815181106111cb57fe5b6020026020010151905060008583815181106111e357fe5b6020026020010151905061126a81604051806060016040528060288152602001613cee602891396001600086815260200190815260200160002060008d73ffffffffffffffffffffffffffffffffffffffff1673ffffffffffffffffffffffffffffffffffffffff168152602001908152602001600020546122d09092919063ffffffff16565b600083815260016020908152604080832073ffffffffffffffffffffffffffffffffffffffff8e811685529252808320939093558a16815220546112ae9082612381565b600092835260016020818152604080862073ffffffffffffffffffffffffffffffffffffffff8d1687529091529093205550016111b4565b508473ffffffffffffffffffffffffffffffffffffffff168673ffffffffffffffffffffffffffffffffffffffff168273ffffffffffffffffffffffffffffffffffffffff167f4a39dc06d4c0dbc64b70af90fd698a233a518aa5d07e595d983b8c0526c8f7fb8787604051808060200180602001838103835285818151815260200191508051906020019060200280838360005b8381101561139357818101518382015260200161137b565b50505050905001838103825284818151815260200191508051906020019060200280838360005b838110156113d25781810151838201526020016113ba565b5050505090500194505050505060405180910390a46113f58187878787876123fc565b61144a576040517f08c379a0000000000000000000000000000000000000000000000000000000008152600401808060200182810382526036815260200180613e246036913960400191505060405180910390fd5b505050505050565b61145b3361157e565b6114b0576040517f08c379a0000000000000000000000000000000000000000000000000000000008152600401808060200182810382526030815260200180613bd56030913960400191505060405180910390fd5b60065460ff1661152157604080517f08c379a000000000000000000000000000000000000000000000000000000000815260206004820152601460248201527f5061757361626c653a206e6f7420706175736564000000000000000000000000604482015290519081900360640190fd5b600680547fffffffffffffffffffffffffffffffffffffffffffffffffffffffffffffff001690556040805133815290517f5db9ee0a495bf2e6ff9c91a7834c1ba4fdd244a5e8aa4e537bd38aeae4b073aa9181900360200190a1565b600061159160058363ffffffff612a6a16565b92915050565b606081518351146115f3576040517f08c379a0000000000000000000000000000000000000000000000000000000008152600401808060200182810382526027815260200180613bae6027913960400191505060405180910390fd5b60608351604051908082528060200260200182016040528015611620578160200160208202803883390190505b50905060005b845181101561175e57600073ffffffffffffffffffffffffffffffffffffffff1685828151811061165357fe5b602002602001015173ffffffffffffffffffffffffffffffffffffffff1614156116c8576040517f08c379a000000000000000000000000000000000000000000000000000000000815260040180806020018281038252602f815260200180613e5a602f913960400191505060405180910390fd5b600160008583815181106116d857fe5b6020026020010151815260200190815260200160002060008683815181106116fc57fe5b602002602001015173ffffffffffffffffffffffffffffffffffffffff1673ffffffffffffffffffffffffffffffffffffffff1681526020019081526020016000205482828151811061174b57fe5b6020908102919091010152600101611626565b509392505050565b60065460ff165b90565b61177b838383612b05565b505050565b61178933612eac565b565b61102984848484612f01565b6117a03361157e565b6117f5576040517f08c379a0000000000000000000000000000000000000000000000000000000008152600401808060200182810382526030815260200180613bd56030913960400191505060405180910390fd5b610e10816130f9565b6118073361157e565b61185c576040517f08c379a0000000000000000000000000000000000000000000000000000000008152600401808060200182810382526030815260200180613bd56030913960400191505060405180910390fd5b60065460ff16156118ce57604080517f08c379a000000000000000000000000000000000000000000000000000000000815260206004820152601060248201527f5061757361626c653a2070617573656400000000000000000000000000000000604482015290519081900360640190fd5b600680547fffffffffffffffffffffffffffffffffffffffffffffffffffffffffffffff001660011790556040805133815290517f62e78cea01bee320cd4e420270b5ea74000d11b0c9f74754ebdbfc544b05a2589181900360200190a1565b8173ffffffffffffffffffffffffffffffffffffffff1661194d6122be565b73ffffffffffffffffffffffffffffffffffffffff1614156119ba576040517f08c379a0000000000000000000000000000000000000000000000000000000008152600401808060200182810382526027815260200180613d616027913960400191505060405180910390fd5b80600260006119c76122be565b73ffffffffffffffffffffffffffffffffffffffff90811682526020808301939093526040918201600090812091871680825291909352912080547fffffffffffffffffffffffffffffffffffffffffffffffffffffffffffffff001692151592909217909155611a366122be565b604080518415158152905173ffffffffffffffffffffffffffffffffffffffff92909216917f17307eab39ab6107e8899845ad3d59bd9653f200f220920489ca2b5937696c319181900360200190a35050565b60009081526003602052604090205490565b73ffffffffffffffffffffffffffffffffffffffff918216600090815260026020908152604080832093909416825291909152205460ff1690565b73ffffffffffffffffffffffffffffffffffffffff8416611b42576040517f08c379a0000000000000000000000000000000000000000000000000000000008152600401808060200182810382526023815260200180613e016023913960400191505060405180910390fd5b611b4a6122be565b73ffffffffffffffffffffffffffffffffffffffff168573ffffffffffffffffffffffffffffffffffffffff161480611b8a5750611b8a8561113d6122be565b611bdf576040517f08c379a0000000000000000000000000000000000000000000000000000000008152600401808060200182810382526027815260200180613dda6027913960400191505060405180910390fd5b6000611be96122be565b9050611c09818787611bfa8861314e565b611c038861314e565b876122c2565b611c6383604051806060016040528060288152602001613cee60289139600087815260016020908152604080832073ffffffffffffffffffffffffffffffffffffffff8d168452909152902054919063ffffffff6122d016565b600085815260016020908152604080832073ffffffffffffffffffffffffffffffffffffffff8b81168552925280832093909355871681522054611ca79084612381565b600085815260016020908152604080832073ffffffffffffffffffffffffffffffffffffffff808b168086529184529382902094909455805188815291820187905280518a8416938616927fc3d58168c5ae7397731d063d5bbf3d657854427343f4c083240f7aacaa2d0f6292908290030190a4611d29818787878787613192565b61144a576040517f08c379a0000000000000000000000000000000000000000000000000000000008152600401808060200182810382526030815260200180613daa6030913960400191505060405180910390fd5b61177b8383836136c1565b611d923361157e565b611de7576040517f08c379a0000000000000000000000000000000000000000000000000000000008152600401808060200182810382526030815260200180613bd56030913960400191505060405180910390fd5b60008181526007602052604090205460ff161515600114611e6957604080517f08c379a000000000000000000000000000000000000000000000000000000000815260206004820152601f60248201527f4b495033375061757361626c653a20616c726561647920756e70617573656400604482015290519081900360640190fd5b60008181526007602090815260409182902080547fffffffffffffffffffffffffffffffffffffffffffffffffffffffffffffff001690558151838152339181019190915281517ffe9b5e5216db9de81757f43d20f846bea509c040a560d136b8263dd8cd764238929181900390910190a150565b8051611ef1906004906020840190613b15565b5050565b73ffffffffffffffffffffffffffffffffffffffff8416611f7757604080517f08c379a000000000000000000000000000000000000000000000000000000000815260206004820152601f60248201527f4b495033373a206d696e7420746f20746865207a65726f206164647265737300604482015290519081900360640190fd5b8151835114611fd1576040517f08c379a0000000000000000000000000000000000000000000000000000000008152600401808060200182810382526026815260200180613c986026913960400191505060405180910390fd5b6000611fdb6122be565b9050611fec816000878787876122c2565b60005b8451811015612151576120816001600087848151811061200b57fe5b6020026020010151815260200190815260200160002060008873ffffffffffffffffffffffffffffffffffffffff1673ffffffffffffffffffffffffffffffffffffffff1681526020019081526020016000205485838151811061206b57fe5b602002602001015161238190919063ffffffff16565b6001600087848151811061209157fe5b6020026020010151815260200190815260200160002060008873ffffffffffffffffffffffffffffffffffffffff1673ffffffffffffffffffffffffffffffffffffffff1681526020019081526020016000208190555061211e600360008784815181106120fb57fe5b602002602001015181526020019081526020016000205485838151811061206b57fe5b6003600087848151811061212e57fe5b602090810291909101810151825281019190915260400160002055600101611fef565b508473ffffffffffffffffffffffffffffffffffffffff16600073ffffffffffffffffffffffffffffffffffffffff168273ffffffffffffffffffffffffffffffffffffffff167f4a39dc06d4c0dbc64b70af90fd698a233a518aa5d07e595d983b8c0526c8f7fb8787604051808060200180602001838103835285818151815260200191508051906020019060200280838360005b838110156121ff5781810151838201526020016121e7565b50505050905001838103825284818151815260200191508051906020019060200280838360005b8381101561223e578181015183820152602001612226565b5050505090500194505050505060405180910390a4612262816000878787876123fc565b6122b7576040517f08c379a0000000000000000000000000000000000000000000000000000000008152600401808060200182810382526036815260200180613e246036913960400191505060405180910390fd5b5050505050565b3390565b61144a86868686868661389e565b60008184841115612379576040517f08c379a00000000000000000000000000000000000000000000000000000000081526004018080602001828103825283818151815260200191508051906020019080838360005b8381101561233e578181015183820152602001612326565b50505050905090810190601f16801561236b5780820380516001836020036101000a031916815260200191505b509250505060405180910390fd5b505050900390565b6000828201838110156123f557604080517f08c379a000000000000000000000000000000000000000000000000000000000815260206004820152601b60248201527f536166654d6174683a206164646974696f6e206f766572666c6f770000000000604482015290519081900360640190fd5b9392505050565b60008060606124208773ffffffffffffffffffffffffffffffffffffffff1661399d565b61242f57600192505050612a60565b8673ffffffffffffffffffffffffffffffffffffffff1663bc197c8160e01b8a8a898989604051602401808673ffffffffffffffffffffffffffffffffffffffff1673ffffffffffffffffffffffffffffffffffffffff1681526020018573ffffffffffffffffffffffffffffffffffffffff1673ffffffffffffffffffffffffffffffffffffffff168152602001806020018060200180602001848103845287818151815260200191508051906020019060200280838360005b838110156125025781810151838201526020016124ea565b50505050905001848103835286818151815260200191508051906020019060200280838360005b83811015612541578181015183820152602001612529565b50505050905001848103825285818151815260200191508051906020019080838360005b8381101561257d578181015183820152602001612565565b50505050905090810190601f1680156125aa5780820380516001836020036101000a031916815260200191505b5098505050505050505050604051602081830303815290604052907bffffffffffffffffffffffffffffffffffffffffffffffffffffffff19166020820180517bffffffffffffffffffffffffffffffffffffffffffffffffffffffff83818316178352505050506040518082805190602001908083835b6020831061265f57805182527fffffffffffffffffffffffffffffffffffffffffffffffffffffffffffffffe09092019160209182019101612622565b6001836020036101000a0380198251168184511680821785525050505050509050019150506000604051808303816000865af19150503d80600081146126c1576040519150601f19603f3d011682016040523d82523d6000602084013e6126c6565b606091505b508051919350915015801590612734575080517fbc197c8100000000000000000000000000000000000000000000000000000000906020808401919081101561270e57600080fd5b50517fffffffff0000000000000000000000000000000000000000000000000000000016145b1561274457600192505050612a60565b8673ffffffffffffffffffffffffffffffffffffffff16639b49e33260e01b8a8a898989604051602401808673ffffffffffffffffffffffffffffffffffffffff1673ffffffffffffffffffffffffffffffffffffffff1681526020018573ffffffffffffffffffffffffffffffffffffffff1673ffffffffffffffffffffffffffffffffffffffff168152602001806020018060200180602001848103845287818151815260200191508051906020019060200280838360005b838110156128175781810151838201526020016127ff565b50505050905001848103835286818151815260200191508051906020019060200280838360005b8381101561285657818101518382015260200161283e565b50505050905001848103825285818151815260200191508051906020019080838360005b8381101561289257818101518382015260200161287a565b50505050905090810190601f1680156128bf5780820380516001836020036101000a031916815260200191505b5098505050505050505050604051602081830303815290604052907bffffffffffffffffffffffffffffffffffffffffffffffffffffffff19166020820180517bffffffffffffffffffffffffffffffffffffffffffffffffffffffff83818316178352505050506040518082805190602001908083835b6020831061297457805182527fffffffffffffffffffffffffffffffffffffffffffffffffffffffffffffffe09092019160209182019101612937565b6001836020036101000a0380198251168184511680821785525050505050509050019150506000604051808303816000865af19150503d80600081146129d6576040519150601f19603f3d011682016040523d82523d6000602084013e6129db565b606091505b508051919350915015801590612a49575080517f9b49e332000000000000000000000000000000000000000000000000000000009060208084019190811015612a2357600080fd5b50517fffffffff0000000000000000000000000000000000000000000000000000000016145b15612a5957600192505050612a60565b6000925050505b9695505050505050565b600073ffffffffffffffffffffffffffffffffffffffff8216612ad8576040517f08c379a0000000000000000000000000000000000000000000000000000000008152600401808060200182810382526022815260200180613d886022913960400191505060405180910390fd5b5073ffffffffffffffffffffffffffffffffffffffff166000908152602091909152604090205460ff1690565b73ffffffffffffffffffffffffffffffffffffffff8316612b71576040517f08c379a0000000000000000000000000000000000000000000000000000000008152600401808060200182810382526021815260200180613c276021913960400191505060405180910390fd5b8051825114612bcb576040517f08c379a0000000000000000000000000000000000000000000000000000000008152600401808060200182810382526026815260200180613c986026913960400191505060405180910390fd5b6000612bd56122be565b9050612bf5818560008686604051806020016040528060008152506122c2565b60005b8351811015612da457612ca4838281518110612c1057fe5b6020026020010151604051806060016040528060228152602001613c056022913960016000888681518110612c4157fe5b6020026020010151815260200190815260200160002060008973ffffffffffffffffffffffffffffffffffffffff1673ffffffffffffffffffffffffffffffffffffffff168152602001908152602001600020546122d09092919063ffffffff16565b60016000868481518110612cb457fe5b6020026020010151815260200190815260200160002060008773ffffffffffffffffffffffffffffffffffffffff1673ffffffffffffffffffffffffffffffffffffffff16815260200190815260200160002081905550612d71838281518110612d1a57fe5b6020026020010151604051806060016040528060278152602001613c716027913960036000888681518110612d4b57fe5b60200260200101518152602001908152602001600020546122d09092919063ffffffff16565b60036000868481518110612d8157fe5b602090810291909101810151825281019190915260400160002055600101612bf8565b50600073ffffffffffffffffffffffffffffffffffffffff168473ffffffffffffffffffffffffffffffffffffffff168273ffffffffffffffffffffffffffffffffffffffff167f4a39dc06d4c0dbc64b70af90fd698a233a518aa5d07e595d983b8c0526c8f7fb8686604051808060200180602001838103835285818151815260200191508051906020019060200280838360005b83811015612e52578181015183820152602001612e3a565b50505050905001838103825284818151815260200191508051906020019060200280838360005b83811015612e91578181015183820152602001612e79565b5050505090500194505050505060405180910390a450505050565b612ebd60058263ffffffff6139a316565b60405173ffffffffffffffffffffffffffffffffffffffff8216907fcd265ebaf09df2871cc7bd4133404a235ba12eff2041bb89d9c714a2621c7c7e90600090a250565b73ffffffffffffffffffffffffffffffffffffffff8416612f8357604080517f08c379a000000000000000000000000000000000000000000000000000000000815260206004820152601f60248201527f4b495033373a206d696e7420746f20746865207a65726f206164647265737300604482015290519081900360640190fd5b6000612f8d6122be565b9050612f9f81600087611bfa8861314e565b600084815260016020908152604080832073ffffffffffffffffffffffffffffffffffffffff89168452909152902054612fdf908463ffffffff61238116565b600085815260016020908152604080832073ffffffffffffffffffffffffffffffffffffffff8a16845282528083209390935586825260039052205461302b908463ffffffff61238116565b6000858152600360209081526040808320939093558251878152908101869052825173ffffffffffffffffffffffffffffffffffffffff808a1694908616927fc3d58168c5ae7397731d063d5bbf3d657854427343f4c083240f7aacaa2d0f62929081900390910190a46130a481600087878787613192565b6122b7576040517f08c379a0000000000000000000000000000000000000000000000000000000008152600401808060200182810382526030815260200180613daa6030913960400191505060405180910390fd5b61310a60058263ffffffff613a4f16565b60405173ffffffffffffffffffffffffffffffffffffffff8216907f6719d08c1888103bea251a4ed56406bd0c3e69723c8a1686e017e7bbe159b6f890600090a250565b60408051600180825281830190925260609182919060208083019080388339019050509050828160008151811061318157fe5b602090810291909101015292915050565b60008060606131b68773ffffffffffffffffffffffffffffffffffffffff1661399d565b6131c557600192505050612a60565b8673ffffffffffffffffffffffffffffffffffffffff1663f23a6e6160e01b8a8a898989604051602401808673ffffffffffffffffffffffffffffffffffffffff1673ffffffffffffffffffffffffffffffffffffffff1681526020018573ffffffffffffffffffffffffffffffffffffffff1673ffffffffffffffffffffffffffffffffffffffff16815260200184815260200183815260200180602001828103825283818151815260200191508051906020019080838360005b83811015613299578181015183820152602001613281565b50505050905090810190601f1680156132c65780820380516001836020036101000a031916815260200191505b509650505050505050604051602081830303815290604052907bffffffffffffffffffffffffffffffffffffffffffffffffffffffff19166020820180517bffffffffffffffffffffffffffffffffffffffffffffffffffffffff83818316178352505050506040518082805190602001908083835b6020831061337957805182527fffffffffffffffffffffffffffffffffffffffffffffffffffffffffffffffe0909201916020918201910161333c565b6001836020036101000a0380198251168184511680821785525050505050509050019150506000604051808303816000865af19150503d80600081146133db576040519150601f19603f3d011682016040523d82523d6000602084013e6133e0565b606091505b50805191935091501580159061344e575080517ff23a6e6100000000000000000000000000000000000000000000000000000000906020808401919081101561342857600080fd5b50517fffffffff0000000000000000000000000000000000000000000000000000000016145b1561345e57600192505050612a60565b8673ffffffffffffffffffffffffffffffffffffffff1663e78b332560e01b8a8a898989604051602401808673ffffffffffffffffffffffffffffffffffffffff1673ffffffffffffffffffffffffffffffffffffffff1681526020018573ffffffffffffffffffffffffffffffffffffffff1673ffffffffffffffffffffffffffffffffffffffff16815260200184815260200183815260200180602001828103825283818151815260200191508051906020019080838360005b8381101561353257818101518382015260200161351a565b50505050905090810190601f16801561355f5780820380516001836020036101000a031916815260200191505b509650505050505050604051602081830303815290604052907bffffffffffffffffffffffffffffffffffffffffffffffffffffffff19166020820180517bffffffffffffffffffffffffffffffffffffffffffffffffffffffff83818316178352505050506040518082805190602001908083835b6020831061361257805182527fffffffffffffffffffffffffffffffffffffffffffffffffffffffffffffffe090920191602091820191016135d5565b6001836020036101000a0380198251168184511680821785525050505050509050019150506000604051808303816000865af19150503d8060008114613674576040519150601f19603f3d011682016040523d82523d6000602084013e613679565b606091505b508051919350915015801590612a49575080517fe78b3325000000000000000000000000000000000000000000000000000000009060208084019190811015612a2357600080fd5b73ffffffffffffffffffffffffffffffffffffffff831661372d576040517f08c379a0000000000000000000000000000000000000000000000000000000008152600401808060200182810382526021815260200180613c276021913960400191505060405180910390fd5b60006137376122be565b9050613767818560006137498761314e565b6137528761314e565b604051806020016040528060008152506122c2565b6137c182604051806060016040528060228152602001613c0560229139600086815260016020908152604080832073ffffffffffffffffffffffffffffffffffffffff8b168452909152902054919063ffffffff6122d016565b600084815260016020908152604080832073ffffffffffffffffffffffffffffffffffffffff8916845282529182902092909255805160608101909152602780825261382e9285929190613c7190830139600086815260036020526040902054919063ffffffff6122d016565b60008481526003602090815260408083209390935582518681529081018590528251919273ffffffffffffffffffffffffffffffffffffffff88811693908616927fc3d58168c5ae7397731d063d5bbf3d657854427343f4c083240f7aacaa2d0f6292908290030190a450505050565b6138a6611766565b156138fc576040517f08c379a000000000000000000000000000000000000000000000000000000000815260040180806020018281038252602a815260200180613d37602a913960400191505060405180910390fd5b60005b8351811015613994576007600085838151811061391857fe5b60209081029190910181015182528101919091526040016000205460ff161561398c576040517f08c379a0000000000000000000000000000000000000000000000000000000008152600401808060200182810382526022815260200180613e896022913960400191505060405180910390fd5b6001016138ff565b50505050505050565b3b151590565b6139ad8282612a6a565b613a02576040517f08c379a0000000000000000000000000000000000000000000000000000000008152600401808060200182810382526021815260200180613d166021913960400191505060405180910390fd5b73ffffffffffffffffffffffffffffffffffffffff1660009081526020919091526040902080547fffffffffffffffffffffffffffffffffffffffffffffffffffffffffffffff00169055565b613a598282612a6a565b15613ac557604080517f08c379a000000000000000000000000000000000000000000000000000000000815260206004820152601f60248201527f526f6c65733a206163636f756e7420616c72656164792068617320726f6c6500604482015290519081900360640190fd5b73ffffffffffffffffffffffffffffffffffffffff1660009081526020919091526040902080547fffffffffffffffffffffffffffffffffffffffffffffffffffffffffffffff00166001179055565b828054600181600116156101000203166002900490600052602060002090601f016020900481019282601f10613b5657805160ff1916838001178555613b83565b82800160010185558215613b83579182015b82811115613b83578251825591602001919060010190613b68565b50613b8f929150613b93565b5090565b61176d91905b80821115613b8f5760008155600101613b9956fe4b495033373a206163636f756e747320616e6420696473206c656e677468206d69736d61746368506175736572526f6c653a2063616c6c657220646f6573206e6f742068617665207468652050617573657220726f6c654b495033373a206275726e20616d6f756e7420657863656564732062616c616e63654b495033373a206275726e2066726f6d20746865207a65726f20616464726573734b495033373a2062616c616e636520717565727920666f7220746865207a65726f20616464726573734b495033373a206275726e20616d6f756e74206578636565647320746f74616c20737570706c794b495033373a2069647320616e6420616d6f756e7473206c656e677468206d69736d617463684b495033373a207472616e736665722063616c6c6572206973206e6f74206f776e6572206e6f7220617070726f7665644b495033373a20696e73756666696369656e742062616c616e636520666f72207472616e73666572526f6c65733a206163636f756e7420646f6573206e6f74206861766520726f6c654b495033375061757361626c653a20746f6b656e207472616e73666572207768696c65207061757365644b495033373a2073657474696e6720617070726f76616c2073746174757320666f722073656c66526f6c65733a206163636f756e7420697320746865207a65726f20616464726573734b495033373a207472616e7366657220746f206e6f6e204b49503337526563656976657220696d706c656d656e7465724b495033373a2063616c6c6572206973206e6f74206f776e6572206e6f7220617070726f7665644b495033373a207472616e7366657220746f20746865207a65726f20616464726573734b495033373a206261746368207472616e7366657220746f206e6f6e204b49503337526563656976657220696d706c656d656e7465724b495033373a2062617463682062616c616e636520717565727920666f7220746865207a65726f20616464726573734b495033375061757361626c653a2074686520746f6b656e20697320706175736564a265627a7a72315820f479fc058aa352a60a7cfda5b8f7715d350087850d25f7f44bf7238b2c3e028764736f6c63430005110032526f6c65733a206163636f756e7420697320746865207a65726f2061646472657373",
  "source": "// SPDX-License-Identifier: MIT\n\npragma solidity ^0.5.0;\n\nimport \"./KIP37Mock.sol\";\nimport \"../token/KIP37/KIP37Pausable.sol\";\n\ncontract KIP37PausableMock is KIP37Mock, KIP37Pausable {\n    constructor(string memory uri) public KIP37Mock(uri) { }\n\n    function _beforeTokenTransfer(\n        address operator,\n        address from,\n        address to,\n        uint256[] memory ids,\n        uint256[] memory amounts,\n        bytes memory data\n    )\n        internal\n    {\n        super._beforeTokenTransfer(operator, from, to, ids, amounts, data);\n    }\n}\n",
  "sourcePath": "/root/Proj/Migration-Contract/contracts/klaytn-contracts/mocks/KIP37PausableMock.sol",
  "compiler": {
    "name": "solc",
    "version": "0.5.17+commit.d19bba13.Emscripten.clang"
  },
  "schemaVersion": "3.1.0",
  "updatedAt": "2022-04-05T10:24:04.369Z",
  "devdoc": {
    "methods": {
      "balanceOf(address,uint256)": {
        "details": "See {IKIP37-balanceOf}.     * Requirements:     * - `account` cannot be the zero address."
      },
      "balanceOfBatch(address[],uint256[])": {
        "details": "See {IKIP37-balanceOfBatch}.     * Requirements:     * - `accounts` and `ids` must have the same length."
      },
      "isApprovedForAll(address,address)": {
        "details": "See {IKIP37-isApprovedForAll}."
      },
      "pause()": {
        "details": "Called by a pauser to pause, triggers stopped state."
      },
      "pause(uint256)": {
        "details": "Throws if `msg.sender` is not allowed to pause.   Throws if the specific token is paused."
      },
      "paused()": {
        "details": "Returns true if the contract is paused, and false otherwise."
      },
      "paused(uint256)": {
        "return": "True if the specific token is paused, false otherwise"
      },
      "safeBatchTransferFrom(address,address,uint256[],uint256[],bytes)": {
        "details": "See {IKIP37-safeBatchTransferFrom}."
      },
      "safeTransferFrom(address,address,uint256,uint256,bytes)": {
        "details": "See {IKIP37-safeTransferFrom}."
      },
      "setApprovalForAll(address,bool)": {
        "details": "See {IKIP37-setApprovalForAll}."
      },
      "supportsInterface(bytes4)": {
        "details": "See `IKIP13.supportsInterface`.     * Time complexity O(1), guaranteed to always use less than 30 000 gas."
      },
      "unpause()": {
        "details": "Called by a pauser to unpause, returns to normal state."
      },
      "unpause(uint256)": {
        "details": "Throws if `msg.sender` is not allowed to unpause.   Throws if the specific token is not paused."
      },
      "uri(uint256)": {
        "details": "See {IKIP37MetadataURI-uri}.     * This implementation returns the same URI for *all* token types. It relies on the token type ID substituion mechanism http://kips.klaytn.com/KIPs/kip-37#metadata     * Clients calling this function must replace the `\\{id\\}` substring with the actual token type ID."
      }
    }
  },
  "userdoc": {
    "methods": {
      "pause(uint256)": {
        "notice": "Pauses actions related to transfer and approval of the specific token."
      },
      "paused(uint256)": {
        "notice": "Checks whether the specific token is paused."
      },
      "unpause(uint256)": {
        "notice": "Resumes from the paused state of the specific token."
      }
    }
  }
}