{
  "contractName": "KIP37Mock",
  "abi": [
    {
      "inputs": [
        {
          "internalType": "string",
          "name": "uri",
          "type": "string"
        }
      ],
      "payable": false,
      "stateMutability": "nonpayable",
      "type": "constructor"
    },
    {
      "anonymous": false,
      "inputs": [
        {
          "indexed": true,
          "internalType": "address",
          "name": "account",
          "type": "address"
        },
        {
          "indexed": true,
          "internalType": "address",
          "name": "operator",
          "type": "address"
        },
        {
          "indexed": false,
          "internalType": "bool",
          "name": "approved",
          "type": "bool"
        }
      ],
      "name": "ApprovalForAll",
      "type": "event"
    },
    {
      "anonymous": false,
      "inputs": [
        {
          "indexed": true,
          "internalType": "address",
          "name": "operator",
          "type": "address"
        },
        {
          "indexed": true,
          "internalType": "address",
          "name": "from",
          "type": "address"
        },
        {
          "indexed": true,
          "internalType": "address",
          "name": "to",
          "type": "address"
        },
        {
          "indexed": false,
          "internalType": "uint256[]",
          "name": "ids",
          "type": "uint256[]"
        },
        {
          "indexed": false,
          "internalType": "uint256[]",
          "name": "values",
          "type": "uint256[]"
        }
      ],
      "name": "TransferBatch",
      "type": "event"
    },
    {
      "anonymous": false,
      "inputs": [
        {
          "indexed": true,
          "internalType": "address",
          "name": "operator",
          "type": "address"
        },
        {
          "indexed": true,
          "internalType": "address",
          "name": "from",
          "type": "address"
        },
        {
          "indexed": true,
          "internalType": "address",
          "name": "to",
          "type": "address"
        },
        {
          "indexed": false,
          "internalType": "uint256",
          "name": "id",
          "type": "uint256"
        },
        {
          "indexed": false,
          "internalType": "uint256",
          "name": "value",
          "type": "uint256"
        }
      ],
      "name": "TransferSingle",
      "type": "event"
    },
    {
      "anonymous": false,
      "inputs": [
        {
          "indexed": false,
          "internalType": "string",
          "name": "value",
          "type": "string"
        },
        {
          "indexed": true,
          "internalType": "uint256",
          "name": "id",
          "type": "uint256"
        }
      ],
      "name": "URI",
      "type": "event"
    },
    {
      "constant": true,
      "inputs": [
        {
          "internalType": "address",
          "name": "account",
          "type": "address"
        },
        {
          "internalType": "uint256",
          "name": "id",
          "type": "uint256"
        }
      ],
      "name": "balanceOf",
      "outputs": [
        {
          "internalType": "uint256",
          "name": "",
          "type": "uint256"
        }
      ],
      "payable": false,
      "stateMutability": "view",
      "type": "function"
    },
    {
      "constant": true,
      "inputs": [
        {
          "internalType": "address[]",
          "name": "accounts",
          "type": "address[]"
        },
        {
          "internalType": "uint256[]",
          "name": "ids",
          "type": "uint256[]"
        }
      ],
      "name": "balanceOfBatch",
      "outputs": [
        {
          "internalType": "uint256[]",
          "name": "",
          "type": "uint256[]"
        }
      ],
      "payable": false,
      "stateMutability": "view",
      "type": "function"
    },
    {
      "constant": true,
      "inputs": [
        {
          "internalType": "address",
          "name": "account",
          "type": "address"
        },
        {
          "internalType": "address",
          "name": "operator",
          "type": "address"
        }
      ],
      "name": "isApprovedForAll",
      "outputs": [
        {
          "internalType": "bool",
          "name": "",
          "type": "bool"
        }
      ],
      "payable": false,
      "stateMutability": "view",
      "type": "function"
    },
    {
      "constant": false,
      "inputs": [
        {
          "internalType": "address",
          "name": "from",
          "type": "address"
        },
        {
          "internalType": "address",
          "name": "to",
          "type": "address"
        },
        {
          "internalType": "uint256[]",
          "name": "ids",
          "type": "uint256[]"
        },
        {
          "internalType": "uint256[]",
          "name": "amounts",
          "type": "uint256[]"
        },
        {
          "internalType": "bytes",
          "name": "data",
          "type": "bytes"
        }
      ],
      "name": "safeBatchTransferFrom",
      "outputs": [],
      "payable": false,
      "stateMutability": "nonpayable",
      "type": "function"
    },
    {
      "constant": false,
      "inputs": [
        {
          "internalType": "address",
          "name": "from",
          "type": "address"
        },
        {
          "internalType": "address",
          "name": "to",
          "type": "address"
        },
        {
          "internalType": "uint256",
          "name": "id",
          "type": "uint256"
        },
        {
          "internalType": "uint256",
          "name": "amount",
          "type": "uint256"
        },
        {
          "internalType": "bytes",
          "name": "data",
          "type": "bytes"
        }
      ],
      "name": "safeTransferFrom",
      "outputs": [],
      "payable": false,
      "stateMutability": "nonpayable",
      "type": "function"
    },
    {
      "constant": false,
      "inputs": [
        {
          "internalType": "address",
          "name": "operator",
          "type": "address"
        },
        {
          "internalType": "bool",
          "name": "approved",
          "type": "bool"
        }
      ],
      "name": "setApprovalForAll",
      "outputs": [],
      "payable": false,
      "stateMutability": "nonpayable",
      "type": "function"
    },
    {
      "constant": true,
      "inputs": [
        {
          "internalType": "bytes4",
          "name": "interfaceId",
          "type": "bytes4"
        }
      ],
      "name": "supportsInterface",
      "outputs": [
        {
          "internalType": "bool",
          "name": "",
          "type": "bool"
        }
      ],
      "payable": false,
      "stateMutability": "view",
      "type": "function"
    },
    {
      "constant": true,
      "inputs": [
        {
          "internalType": "uint256",
          "name": "_tokenId",
          "type": "uint256"
        }
      ],
      "name": "totalSupply",
      "outputs": [
        {
          "internalType": "uint256",
          "name": "",
          "type": "uint256"
        }
      ],
      "payable": false,
      "stateMutability": "view",
      "type": "function"
    },
    {
      "constant": true,
      "inputs": [
        {
          "internalType": "uint256",
          "name": "",
          "type": "uint256"
        }
      ],
      "name": "uri",
      "outputs": [
        {
          "internalType": "string",
          "name": "",
          "type": "string"
        }
      ],
      "payable": false,
      "stateMutability": "view",
      "type": "function"
    },
    {
      "constant": false,
      "inputs": [
        {
          "internalType": "string",
          "name": "newuri",
          "type": "string"
        }
      ],
      "name": "setURI",
      "outputs": [],
      "payable": false,
      "stateMutability": "nonpayable",
      "type": "function"
    },
    {
      "constant": false,
      "inputs": [
        {
          "internalType": "address",
          "name": "to",
          "type": "address"
        },
        {
          "internalType": "uint256",
          "name": "id",
          "type": "uint256"
        },
        {
          "internalType": "uint256",
          "name": "value",
          "type": "uint256"
        },
        {
          "internalType": "bytes",
          "name": "data",
          "type": "bytes"
        }
      ],
      "name": "mint",
      "outputs": [],
      "payable": false,
      "stateMutability": "nonpayable",
      "type": "function"
    },
    {
      "constant": false,
      "inputs": [
        {
          "internalType": "address",
          "name": "to",
          "type": "address"
        },
        {
          "internalType": "uint256[]",
          "name": "ids",
          "type": "uint256[]"
        },
        {
          "internalType": "uint256[]",
          "name": "values",
          "type": "uint256[]"
        },
        {
          "internalType": "bytes",
          "name": "data",
          "type": "bytes"
        }
      ],
      "name": "mintBatch",
      "outputs": [],
      "payable": false,
      "stateMutability": "nonpayable",
      "type": "function"
    },
    {
      "constant": false,
      "inputs": [
        {
          "internalType": "address",
          "name": "owner",
          "type": "address"
        },
        {
          "internalType": "uint256",
          "name": "id",
          "type": "uint256"
        },
        {
          "internalType": "uint256",
          "name": "value",
          "type": "uint256"
        }
      ],
      "name": "burn",
      "outputs": [],
      "payable": false,
      "stateMutability": "nonpayable",
      "type": "function"
    },
    {
      "constant": false,
      "inputs": [
        {
          "internalType": "address",
          "name": "owner",
          "type": "address"
        },
        {
          "internalType": "uint256[]",
          "name": "ids",
          "type": "uint256[]"
        },
        {
          "internalType": "uint256[]",
          "name": "values",
          "type": "uint256[]"
        }
      ],
      "name": "burnBatch",
      "outputs": [],
      "payable": false,
      "stateMutability": "nonpayable",
      "type": "function"
    }
  ],
  "bytecode": "0x60806040523480156200001157600080fd5b50604051620035df380380620035df833981810160405260208110156200003757600080fd5b81019080805160405193929190846401000000008211156200005857600080fd5b9083019060208201858111156200006e57600080fd5b82516401000000008111828201881017156200008957600080fd5b82525081516020918201929091019080838360005b83811015620000b85781810151838201526020016200009e565b50505050905090810190601f168015620000e65780820380516001836020036101000a031916815260200191505b50604052508291506200010b90506301ffc9a760e01b6001600160e01b036200015d16565b6200011f816001600160e01b03620001e216565b6200013a636433ca1f60e01b6001600160e01b036200015d16565b620001556303a24d0760e21b6001600160e01b036200015d16565b5050620002a0565b6001600160e01b03198082161415620001bd576040805162461bcd60e51b815260206004820152601b60248201527f4b495031333a20696e76616c696420696e746572666163652069640000000000604482015290519081900360640190fd5b6001600160e01b0319166000908152602081905260409020805460ff19166001179055565b8051620001f7906004906020840190620001fb565b5050565b828054600181600116156101000203166002900490600052602060002090601f016020900481019282601f106200023e57805160ff19168380011785556200026e565b828001600101855582156200026e579182015b828111156200026e57825182559160200191906001019062000251565b506200027c92915062000280565b5090565b6200029d91905b808211156200027c576000815560010162000287565b90565b61332f80620002b06000396000f3fe608060405234801561001057600080fd5b50600436106100e95760003560e01c80636b20c4541161008c578063bd85b03911610066578063bd85b03914610a2a578063e985e9c514610a47578063f242432a14610a82578063f5298aca14610b5a576100e9565b80636b20c454146107dc578063731133e914610920578063a22cb465146109ef576100e9565b80630e89341c116100c85780630e89341c146102345780631f7fdffa146102c65780632eb2c2d6146104915780634e1273f414610665576100e9565b8062fdd58e146100ee57806301ffc9a71461013957806302fe53051461018c575b600080fd5b6101276004803603604081101561010457600080fd5b5073ffffffffffffffffffffffffffffffffffffffff8135169060200135610b99565b60408051918252519081900360200190f35b6101786004803603602081101561014f57600080fd5b50357fffffffff0000000000000000000000000000000000000000000000000000000016610c3c565b604080519115158252519081900360200190f35b610232600480360360208110156101a257600080fd5b8101906020810181356401000000008111156101bd57600080fd5b8201836020820111156101cf57600080fd5b803590602001918460018302840111640100000000831117156101f157600080fd5b91908080601f016020809104026020016040519081016040528093929190818152602001838380828437600092019190915250929550610c73945050505050565b005b6102516004803603602081101561024a57600080fd5b5035610c7f565b6040805160208082528351818301528351919283929083019185019080838360005b8381101561028b578181015183820152602001610273565b50505050905090810190601f1680156102b85780820380516001836020036101000a031916815260200191505b509250505060405180910390f35b610232600480360360808110156102dc57600080fd5b73ffffffffffffffffffffffffffffffffffffffff823516919081019060408101602082013564010000000081111561031457600080fd5b82018360208201111561032657600080fd5b8035906020019184602083028401116401000000008311171561034857600080fd5b919080806020026020016040519081016040528093929190818152602001838360200280828437600092019190915250929594936020810193503591505064010000000081111561039857600080fd5b8201836020820111156103aa57600080fd5b803590602001918460208302840111640100000000831117156103cc57600080fd5b919080806020026020016040519081016040528093929190818152602001838360200280828437600092019190915250929594936020810193503591505064010000000081111561041c57600080fd5b82018360208201111561042e57600080fd5b8035906020019184600183028401116401000000008311171561045057600080fd5b91908080601f016020809104026020016040519081016040528093929190818152602001838380828437600092019190915250929550610d35945050505050565b610232600480360360a08110156104a757600080fd5b73ffffffffffffffffffffffffffffffffffffffff82358116926020810135909116918101906060810160408201356401000000008111156104e857600080fd5b8201836020820111156104fa57600080fd5b8035906020019184602083028401116401000000008311171561051c57600080fd5b919080806020026020016040519081016040528093929190818152602001838360200280828437600092019190915250929594936020810193503591505064010000000081111561056c57600080fd5b82018360208201111561057e57600080fd5b803590602001918460208302840111640100000000831117156105a057600080fd5b91908080602002602001604051908101604052809392919081815260200183836020028082843760009201919091525092959493602081019350359150506401000000008111156105f057600080fd5b82018360208201111561060257600080fd5b8035906020019184600183028401116401000000008311171561062457600080fd5b91908080601f016020809104026020016040519081016040528093929190818152602001838380828437600092019190915250929550610d47945050505050565b61078c6004803603604081101561067b57600080fd5b81019060208101813564010000000081111561069657600080fd5b8201836020820111156106a857600080fd5b803590602001918460208302840111640100000000831117156106ca57600080fd5b919080806020026020016040519081016040528093929190818152602001838360200280828437600092019190915250929594936020810193503591505064010000000081111561071a57600080fd5b82018360208201111561072c57600080fd5b8035906020019184602083028401116401000000008311171561074e57600080fd5b91908080602002602001604051908101604052809392919081815260200183836020028082843760009201919091525092955061116a945050505050565b60408051602080825283518183015283519192839290830191858101910280838360005b838110156107c85781810151838201526020016107b0565b505050509050019250505060405180910390f35b610232600480360360608110156107f257600080fd5b73ffffffffffffffffffffffffffffffffffffffff823516919081019060408101602082013564010000000081111561082a57600080fd5b82018360208201111561083c57600080fd5b8035906020019184602083028401116401000000008311171561085e57600080fd5b91908080602002602001604051908101604052809392919081815260200183836020028082843760009201919091525092959493602081019350359150506401000000008111156108ae57600080fd5b8201836020820111156108c057600080fd5b803590602001918460208302840111640100000000831117156108e257600080fd5b919080806020026020016040519081016040528093929190818152602001838360200280828437600092019190915250929550611339945050505050565b6102326004803603608081101561093657600080fd5b73ffffffffffffffffffffffffffffffffffffffff823516916020810135916040820135919081019060808101606082013564010000000081111561097a57600080fd5b82018360208201111561098c57600080fd5b803590602001918460018302840111640100000000831117156109ae57600080fd5b91908080601f016020809104026020016040519081016040528093929190818152602001838380828437600092019190915250929550611349945050505050565b61023260048036036040811015610a0557600080fd5b5073ffffffffffffffffffffffffffffffffffffffff81351690602001351515611355565b61012760048036036020811015610a4057600080fd5b50356114b0565b61017860048036036040811015610a5d57600080fd5b5073ffffffffffffffffffffffffffffffffffffffff813581169160200135166114c2565b610232600480360360a0811015610a9857600080fd5b73ffffffffffffffffffffffffffffffffffffffff823581169260208101359091169160408201359160608101359181019060a081016080820135640100000000811115610ae557600080fd5b820183602082011115610af757600080fd5b80359060200191846001830284011164010000000083111715610b1957600080fd5b91908080601f0160208091040260200160405190810160405280939291908181526020018383808284376000920191909152509295506114fd945050505050565b61023260048036036060811015610b7057600080fd5b5073ffffffffffffffffffffffffffffffffffffffff81351690602081013590604001356117a5565b600073ffffffffffffffffffffffffffffffffffffffff8316610c07576040517f08c379a00000000000000000000000000000000000000000000000000000000081526004018080602001828103825260298152602001806131276029913960400191505060405180910390fd5b50600090815260016020908152604080832073ffffffffffffffffffffffffffffffffffffffff949094168352929052205490565b7fffffffff000000000000000000000000000000000000000000000000000000001660009081526020819052604090205460ff1690565b610c7c816117b0565b50565b60048054604080516020601f60027fffffffffffffffffffffffffffffffffffffffffffffffffffffffffffffffff610100600188161502019095169490940493840181900481028201810190925282815260609390929091830182828015610d295780601f10610cfe57610100808354040283529160200191610d29565b820191906000526020600020905b815481529060010190602001808311610d0c57829003601f168201915b50505050509050919050565b610d41848484846117c7565b50505050565b8151835114610da1576040517f08c379a00000000000000000000000000000000000000000000000000000000081526004018080602001828103825260268152602001806131776026913960400191505060405180910390fd5b73ffffffffffffffffffffffffffffffffffffffff8416610e0d576040517f08c379a00000000000000000000000000000000000000000000000000000000081526004018080602001828103825260238152602001806132736023913960400191505060405180910390fd5b610e15611b90565b73ffffffffffffffffffffffffffffffffffffffff168573ffffffffffffffffffffffffffffffffffffffff161480610e5a5750610e5a85610e55611b90565b6114c2565b610eaf576040517f08c379a000000000000000000000000000000000000000000000000000000000815260040180806020018281038252603081526020018061319d6030913960400191505060405180910390fd5b6000610eb9611b90565b9050610ec9818787878787611162565b60005b8451811015610ffe576000858281518110610ee357fe5b602002602001015190506000858381518110610efb57fe5b60200260200101519050610f82816040518060600160405280602881526020016131cd602891396001600086815260200190815260200160002060008d73ffffffffffffffffffffffffffffffffffffffff1673ffffffffffffffffffffffffffffffffffffffff16815260200190815260200160002054611b959092919063ffffffff16565b600083815260016020908152604080832073ffffffffffffffffffffffffffffffffffffffff8e811685529252808320939093558a1681522054610fc69082611c46565b600092835260016020818152604080862073ffffffffffffffffffffffffffffffffffffffff8d168752909152909320555001610ecc565b508473ffffffffffffffffffffffffffffffffffffffff168673ffffffffffffffffffffffffffffffffffffffff168273ffffffffffffffffffffffffffffffffffffffff167f4a39dc06d4c0dbc64b70af90fd698a233a518aa5d07e595d983b8c0526c8f7fb8787604051808060200180602001838103835285818151815260200191508051906020019060200280838360005b838110156110ab578181015183820152602001611093565b50505050905001838103825284818151815260200191508051906020019060200280838360005b838110156110ea5781810151838201526020016110d2565b5050505090500194505050505060405180910390a461110d818787878787611cc1565b611162576040517f08c379a00000000000000000000000000000000000000000000000000000000081526004018080602001828103825260368152602001806132966036913960400191505060405180910390fd5b505050505050565b606081518351146111c6576040517f08c379a00000000000000000000000000000000000000000000000000000000081526004018080602001828103825260278152602001806130bd6027913960400191505060405180910390fd5b606083516040519080825280602002602001820160405280156111f3578160200160208202803883390190505b50905060005b845181101561133157600073ffffffffffffffffffffffffffffffffffffffff1685828151811061122657fe5b602002602001015173ffffffffffffffffffffffffffffffffffffffff16141561129b576040517f08c379a000000000000000000000000000000000000000000000000000000000815260040180806020018281038252602f8152602001806132cc602f913960400191505060405180910390fd5b600160008583815181106112ab57fe5b6020026020010151815260200190815260200160002060008683815181106112cf57fe5b602002602001015173ffffffffffffffffffffffffffffffffffffffff1673ffffffffffffffffffffffffffffffffffffffff1681526020019081526020016000205482828151811061131e57fe5b60209081029190910101526001016111f9565b509392505050565b61134483838361232f565b505050565b610d41848484846126d6565b8173ffffffffffffffffffffffffffffffffffffffff16611374611b90565b73ffffffffffffffffffffffffffffffffffffffff1614156113e1576040517f08c379a00000000000000000000000000000000000000000000000000000000081526004018080602001828103825260278152602001806131f56027913960400191505060405180910390fd5b80600260006113ee611b90565b73ffffffffffffffffffffffffffffffffffffffff90811682526020808301939093526040918201600090812091871680825291909352912080547fffffffffffffffffffffffffffffffffffffffffffffffffffffffffffffff00169215159290921790915561145d611b90565b604080518415158152905173ffffffffffffffffffffffffffffffffffffffff92909216917f17307eab39ab6107e8899845ad3d59bd9653f200f220920489ca2b5937696c319181900360200190a35050565b60009081526003602052604090205490565b73ffffffffffffffffffffffffffffffffffffffff918216600090815260026020908152604080832093909416825291909152205460ff1690565b73ffffffffffffffffffffffffffffffffffffffff8416611569576040517f08c379a00000000000000000000000000000000000000000000000000000000081526004018080602001828103825260238152602001806132736023913960400191505060405180910390fd5b611571611b90565b73ffffffffffffffffffffffffffffffffffffffff168573ffffffffffffffffffffffffffffffffffffffff1614806115b157506115b185610e55611b90565b611606576040517f08c379a000000000000000000000000000000000000000000000000000000000815260040180806020018281038252602781526020018061324c6027913960400191505060405180910390fd5b6000611610611b90565b9050611630818787611621886128ce565b61162a886128ce565b87611162565b61168a836040518060600160405280602881526020016131cd60289139600087815260016020908152604080832073ffffffffffffffffffffffffffffffffffffffff8d168452909152902054919063ffffffff611b9516565b600085815260016020908152604080832073ffffffffffffffffffffffffffffffffffffffff8b811685529252808320939093558716815220546116ce9084611c46565b600085815260016020908152604080832073ffffffffffffffffffffffffffffffffffffffff808b168086529184529382902094909455805188815291820187905280518a8416938616927fc3d58168c5ae7397731d063d5bbf3d657854427343f4c083240f7aacaa2d0f6292908290030190a4611750818787878787612912565b611162576040517f08c379a000000000000000000000000000000000000000000000000000000000815260040180806020018281038252603081526020018061321c6030913960400191505060405180910390fd5b611344838383612e41565b80516117c3906004906020840190613024565b5050565b73ffffffffffffffffffffffffffffffffffffffff841661184957604080517f08c379a000000000000000000000000000000000000000000000000000000000815260206004820152601f60248201527f4b495033373a206d696e7420746f20746865207a65726f206164647265737300604482015290519081900360640190fd5b81518351146118a3576040517f08c379a00000000000000000000000000000000000000000000000000000000081526004018080602001828103825260268152602001806131776026913960400191505060405180910390fd5b60006118ad611b90565b90506118be81600087878787611162565b60005b8451811015611a2357611953600160008784815181106118dd57fe5b6020026020010151815260200190815260200160002060008873ffffffffffffffffffffffffffffffffffffffff1673ffffffffffffffffffffffffffffffffffffffff1681526020019081526020016000205485838151811061193d57fe5b6020026020010151611c4690919063ffffffff16565b6001600087848151811061196357fe5b6020026020010151815260200190815260200160002060008873ffffffffffffffffffffffffffffffffffffffff1673ffffffffffffffffffffffffffffffffffffffff168152602001908152602001600020819055506119f0600360008784815181106119cd57fe5b602002602001015181526020019081526020016000205485838151811061193d57fe5b60036000878481518110611a0057fe5b6020908102919091018101518252810191909152604001600020556001016118c1565b508473ffffffffffffffffffffffffffffffffffffffff16600073ffffffffffffffffffffffffffffffffffffffff168273ffffffffffffffffffffffffffffffffffffffff167f4a39dc06d4c0dbc64b70af90fd698a233a518aa5d07e595d983b8c0526c8f7fb8787604051808060200180602001838103835285818151815260200191508051906020019060200280838360005b83811015611ad1578181015183820152602001611ab9565b50505050905001838103825284818151815260200191508051906020019060200280838360005b83811015611b10578181015183820152602001611af8565b5050505090500194505050505060405180910390a4611b3481600087878787611cc1565b611b89576040517f08c379a00000000000000000000000000000000000000000000000000000000081526004018080602001828103825260368152602001806132966036913960400191505060405180910390fd5b5050505050565b335b90565b60008184841115611c3e576040517f08c379a00000000000000000000000000000000000000000000000000000000081526004018080602001828103825283818151815260200191508051906020019080838360005b83811015611c03578181015183820152602001611beb565b50505050905090810190601f168015611c305780820380516001836020036101000a031916815260200191505b509250505060405180910390fd5b505050900390565b600082820183811015611cba57604080517f08c379a000000000000000000000000000000000000000000000000000000000815260206004820152601b60248201527f536166654d6174683a206164646974696f6e206f766572666c6f770000000000604482015290519081900360640190fd5b9392505050565b6000806060611ce58773ffffffffffffffffffffffffffffffffffffffff1661301e565b611cf457600192505050612325565b8673ffffffffffffffffffffffffffffffffffffffff1663bc197c8160e01b8a8a898989604051602401808673ffffffffffffffffffffffffffffffffffffffff1673ffffffffffffffffffffffffffffffffffffffff1681526020018573ffffffffffffffffffffffffffffffffffffffff1673ffffffffffffffffffffffffffffffffffffffff168152602001806020018060200180602001848103845287818151815260200191508051906020019060200280838360005b83811015611dc7578181015183820152602001611daf565b50505050905001848103835286818151815260200191508051906020019060200280838360005b83811015611e06578181015183820152602001611dee565b50505050905001848103825285818151815260200191508051906020019080838360005b83811015611e42578181015183820152602001611e2a565b50505050905090810190601f168015611e6f5780820380516001836020036101000a031916815260200191505b5098505050505050505050604051602081830303815290604052907bffffffffffffffffffffffffffffffffffffffffffffffffffffffff19166020820180517bffffffffffffffffffffffffffffffffffffffffffffffffffffffff83818316178352505050506040518082805190602001908083835b60208310611f2457805182527fffffffffffffffffffffffffffffffffffffffffffffffffffffffffffffffe09092019160209182019101611ee7565b6001836020036101000a0380198251168184511680821785525050505050509050019150506000604051808303816000865af19150503d8060008114611f86576040519150601f19603f3d011682016040523d82523d6000602084013e611f8b565b606091505b508051919350915015801590611ff9575080517fbc197c81000000000000000000000000000000000000000000000000000000009060208084019190811015611fd357600080fd5b50517fffffffff0000000000000000000000000000000000000000000000000000000016145b1561200957600192505050612325565b8673ffffffffffffffffffffffffffffffffffffffff16639b49e33260e01b8a8a898989604051602401808673ffffffffffffffffffffffffffffffffffffffff1673ffffffffffffffffffffffffffffffffffffffff1681526020018573ffffffffffffffffffffffffffffffffffffffff1673ffffffffffffffffffffffffffffffffffffffff168152602001806020018060200180602001848103845287818151815260200191508051906020019060200280838360005b838110156120dc5781810151838201526020016120c4565b50505050905001848103835286818151815260200191508051906020019060200280838360005b8381101561211b578181015183820152602001612103565b50505050905001848103825285818151815260200191508051906020019080838360005b8381101561215757818101518382015260200161213f565b50505050905090810190601f1680156121845780820380516001836020036101000a031916815260200191505b5098505050505050505050604051602081830303815290604052907bffffffffffffffffffffffffffffffffffffffffffffffffffffffff19166020820180517bffffffffffffffffffffffffffffffffffffffffffffffffffffffff83818316178352505050506040518082805190602001908083835b6020831061223957805182527fffffffffffffffffffffffffffffffffffffffffffffffffffffffffffffffe090920191602091820191016121fc565b6001836020036101000a0380198251168184511680821785525050505050509050019150506000604051808303816000865af19150503d806000811461229b576040519150601f19603f3d011682016040523d82523d6000602084013e6122a0565b606091505b50805191935091501580159061230e575080517f9b49e3320000000000000000000000000000000000000000000000000000000090602080840191908110156122e857600080fd5b50517fffffffff0000000000000000000000000000000000000000000000000000000016145b1561231e57600192505050612325565b6000925050505b9695505050505050565b73ffffffffffffffffffffffffffffffffffffffff831661239b576040517f08c379a00000000000000000000000000000000000000000000000000000000081526004018080602001828103825260218152602001806131066021913960400191505060405180910390fd5b80518251146123f5576040517f08c379a00000000000000000000000000000000000000000000000000000000081526004018080602001828103825260268152602001806131776026913960400191505060405180910390fd5b60006123ff611b90565b905061241f81856000868660405180602001604052806000815250611162565b60005b83518110156125ce576124ce83828151811061243a57fe5b60200260200101516040518060600160405280602281526020016130e4602291396001600088868151811061246b57fe5b6020026020010151815260200190815260200160002060008973ffffffffffffffffffffffffffffffffffffffff1673ffffffffffffffffffffffffffffffffffffffff16815260200190815260200160002054611b959092919063ffffffff16565b600160008684815181106124de57fe5b6020026020010151815260200190815260200160002060008773ffffffffffffffffffffffffffffffffffffffff1673ffffffffffffffffffffffffffffffffffffffff1681526020019081526020016000208190555061259b83828151811061254457fe5b6020026020010151604051806060016040528060278152602001613150602791396003600088868151811061257557fe5b6020026020010151815260200190815260200160002054611b959092919063ffffffff16565b600360008684815181106125ab57fe5b602090810291909101810151825281019190915260400160002055600101612422565b50600073ffffffffffffffffffffffffffffffffffffffff168473ffffffffffffffffffffffffffffffffffffffff168273ffffffffffffffffffffffffffffffffffffffff167f4a39dc06d4c0dbc64b70af90fd698a233a518aa5d07e595d983b8c0526c8f7fb8686604051808060200180602001838103835285818151815260200191508051906020019060200280838360005b8381101561267c578181015183820152602001612664565b50505050905001838103825284818151815260200191508051906020019060200280838360005b838110156126bb5781810151838201526020016126a3565b5050505090500194505050505060405180910390a450505050565b73ffffffffffffffffffffffffffffffffffffffff841661275857604080517f08c379a000000000000000000000000000000000000000000000000000000000815260206004820152601f60248201527f4b495033373a206d696e7420746f20746865207a65726f206164647265737300604482015290519081900360640190fd5b6000612762611b90565b905061277481600087611621886128ce565b600084815260016020908152604080832073ffffffffffffffffffffffffffffffffffffffff891684529091529020546127b4908463ffffffff611c4616565b600085815260016020908152604080832073ffffffffffffffffffffffffffffffffffffffff8a168452825280832093909355868252600390522054612800908463ffffffff611c4616565b6000858152600360209081526040808320939093558251878152908101869052825173ffffffffffffffffffffffffffffffffffffffff808a1694908616927fc3d58168c5ae7397731d063d5bbf3d657854427343f4c083240f7aacaa2d0f62929081900390910190a461287981600087878787612912565b611b89576040517f08c379a000000000000000000000000000000000000000000000000000000000815260040180806020018281038252603081526020018061321c6030913960400191505060405180910390fd5b60408051600180825281830190925260609182919060208083019080388339019050509050828160008151811061290157fe5b602090810291909101015292915050565b60008060606129368773ffffffffffffffffffffffffffffffffffffffff1661301e565b61294557600192505050612325565b8673ffffffffffffffffffffffffffffffffffffffff1663f23a6e6160e01b8a8a898989604051602401808673ffffffffffffffffffffffffffffffffffffffff1673ffffffffffffffffffffffffffffffffffffffff1681526020018573ffffffffffffffffffffffffffffffffffffffff1673ffffffffffffffffffffffffffffffffffffffff16815260200184815260200183815260200180602001828103825283818151815260200191508051906020019080838360005b83811015612a19578181015183820152602001612a01565b50505050905090810190601f168015612a465780820380516001836020036101000a031916815260200191505b509650505050505050604051602081830303815290604052907bffffffffffffffffffffffffffffffffffffffffffffffffffffffff19166020820180517bffffffffffffffffffffffffffffffffffffffffffffffffffffffff83818316178352505050506040518082805190602001908083835b60208310612af957805182527fffffffffffffffffffffffffffffffffffffffffffffffffffffffffffffffe09092019160209182019101612abc565b6001836020036101000a0380198251168184511680821785525050505050509050019150506000604051808303816000865af19150503d8060008114612b5b576040519150601f19603f3d011682016040523d82523d6000602084013e612b60565b606091505b508051919350915015801590612bce575080517ff23a6e61000000000000000000000000000000000000000000000000000000009060208084019190811015612ba857600080fd5b50517fffffffff0000000000000000000000000000000000000000000000000000000016145b15612bde57600192505050612325565b8673ffffffffffffffffffffffffffffffffffffffff1663e78b332560e01b8a8a898989604051602401808673ffffffffffffffffffffffffffffffffffffffff1673ffffffffffffffffffffffffffffffffffffffff1681526020018573ffffffffffffffffffffffffffffffffffffffff1673ffffffffffffffffffffffffffffffffffffffff16815260200184815260200183815260200180602001828103825283818151815260200191508051906020019080838360005b83811015612cb2578181015183820152602001612c9a565b50505050905090810190601f168015612cdf5780820380516001836020036101000a031916815260200191505b509650505050505050604051602081830303815290604052907bffffffffffffffffffffffffffffffffffffffffffffffffffffffff19166020820180517bffffffffffffffffffffffffffffffffffffffffffffffffffffffff83818316178352505050506040518082805190602001908083835b60208310612d9257805182527fffffffffffffffffffffffffffffffffffffffffffffffffffffffffffffffe09092019160209182019101612d55565b6001836020036101000a0380198251168184511680821785525050505050509050019150506000604051808303816000865af19150503d8060008114612df4576040519150601f19603f3d011682016040523d82523d6000602084013e612df9565b606091505b50805191935091501580159061230e575080517fe78b33250000000000000000000000000000000000000000000000000000000090602080840191908110156122e857600080fd5b73ffffffffffffffffffffffffffffffffffffffff8316612ead576040517f08c379a00000000000000000000000000000000000000000000000000000000081526004018080602001828103825260218152602001806131066021913960400191505060405180910390fd5b6000612eb7611b90565b9050612ee781856000612ec9876128ce565b612ed2876128ce565b60405180602001604052806000815250611162565b612f41826040518060600160405280602281526020016130e460229139600086815260016020908152604080832073ffffffffffffffffffffffffffffffffffffffff8b168452909152902054919063ffffffff611b9516565b600084815260016020908152604080832073ffffffffffffffffffffffffffffffffffffffff89168452825291829020929092558051606081019091526027808252612fae928592919061315090830139600086815260036020526040902054919063ffffffff611b9516565b60008481526003602090815260408083209390935582518681529081018590528251919273ffffffffffffffffffffffffffffffffffffffff88811693908616927fc3d58168c5ae7397731d063d5bbf3d657854427343f4c083240f7aacaa2d0f6292908290030190a450505050565b3b151590565b828054600181600116156101000203166002900490600052602060002090601f016020900481019282601f1061306557805160ff1916838001178555613092565b82800160010185558215613092579182015b82811115613092578251825591602001919060010190613077565b5061309e9291506130a2565b5090565b611b9291905b8082111561309e57600081556001016130a856fe4b495033373a206163636f756e747320616e6420696473206c656e677468206d69736d617463684b495033373a206275726e20616d6f756e7420657863656564732062616c616e63654b495033373a206275726e2066726f6d20746865207a65726f20616464726573734b495033373a2062616c616e636520717565727920666f7220746865207a65726f20616464726573734b495033373a206275726e20616d6f756e74206578636565647320746f74616c20737570706c794b495033373a2069647320616e6420616d6f756e7473206c656e677468206d69736d617463684b495033373a207472616e736665722063616c6c6572206973206e6f74206f776e6572206e6f7220617070726f7665644b495033373a20696e73756666696369656e742062616c616e636520666f72207472616e736665724b495033373a2073657474696e6720617070726f76616c2073746174757320666f722073656c664b495033373a207472616e7366657220746f206e6f6e204b49503337526563656976657220696d706c656d656e7465724b495033373a2063616c6c6572206973206e6f74206f776e6572206e6f7220617070726f7665644b495033373a207472616e7366657220746f20746865207a65726f20616464726573734b495033373a206261746368207472616e7366657220746f206e6f6e204b49503337526563656976657220696d706c656d656e7465724b495033373a2062617463682062616c616e636520717565727920666f7220746865207a65726f2061646472657373a265627a7a72315820a6c11aeca3edcb192209f2838efe824ebaf68afd90a4e1616da73a959500096064736f6c63430005110032",
  "source": "// SPDX-License-Identifier: MIT\n\npragma solidity ^0.5.0;\n\nimport \"../token/KIP37/KIP37.sol\";\n\n/**\n * @title KIP37Mock\n * This mock just publicizes internal functions for testing purposes\n */\ncontract KIP37Mock is KIP37 {\n    constructor (string memory uri) public KIP37(uri) {\n        // solhint-disable-previous-line no-empty-blocks\n    }\n\n    function setURI(string memory newuri) public {\n        _setURI(newuri);\n    }\n\n    function mint(address to, uint256 id, uint256 value, bytes memory data) public {\n        _mint(to, id, value, data);\n    }\n\n    function mintBatch(address to, uint256[] memory ids, uint256[] memory values, bytes memory data) public {\n        _mintBatch(to, ids, values, data);\n    }\n\n    function burn(address owner, uint256 id, uint256 value) public {\n        _burn(owner, id, value);\n    }\n\n    function burnBatch(address owner, uint256[] memory ids, uint256[] memory values) public {\n        _burnBatch(owner, ids, values);\n    }\n}\n",
  "sourcePath": "/root/Proj/Migration-Contract/contracts/klaytn-contracts/mocks/KIP37Mock.sol",
  "compiler": {
    "name": "solc",
    "version": "0.5.17+commit.d19bba13.Emscripten.clang"
  },
  "schemaVersion": "3.1.0",
  "updatedAt": "2022-04-05T10:24:04.366Z",
  "devdoc": {
    "methods": {
      "balanceOf(address,uint256)": {
        "details": "See {IKIP37-balanceOf}.     * Requirements:     * - `account` cannot be the zero address."
      },
      "balanceOfBatch(address[],uint256[])": {
        "details": "See {IKIP37-balanceOfBatch}.     * Requirements:     * - `accounts` and `ids` must have the same length."
      },
      "isApprovedForAll(address,address)": {
        "details": "See {IKIP37-isApprovedForAll}."
      },
      "safeBatchTransferFrom(address,address,uint256[],uint256[],bytes)": {
        "details": "See {IKIP37-safeBatchTransferFrom}."
      },
      "safeTransferFrom(address,address,uint256,uint256,bytes)": {
        "details": "See {IKIP37-safeTransferFrom}."
      },
      "setApprovalForAll(address,bool)": {
        "details": "See {IKIP37-setApprovalForAll}."
      },
      "supportsInterface(bytes4)": {
        "details": "See `IKIP13.supportsInterface`.     * Time complexity O(1), guaranteed to always use less than 30 000 gas."
      },
      "uri(uint256)": {
        "details": "See {IKIP37MetadataURI-uri}.     * This implementation returns the same URI for *all* token types. It relies on the token type ID substituion mechanism http://kips.klaytn.com/KIPs/kip-37#metadata     * Clients calling this function must replace the `\\{id\\}` substring with the actual token type ID."
      }
    },
    "title": "KIP37Mock This mock just publicizes internal functions for testing purposes"
  },
  "userdoc": {
    "methods": {}
  }
}