{
  "contractName": "KIP37",
  "abi": [
    {
      "inputs": [
        {
          "internalType": "string",
          "name": "uri",
          "type": "string"
        }
      ],
      "payable": false,
      "stateMutability": "nonpayable",
      "type": "constructor"
    },
    {
      "anonymous": false,
      "inputs": [
        {
          "indexed": true,
          "internalType": "address",
          "name": "account",
          "type": "address"
        },
        {
          "indexed": true,
          "internalType": "address",
          "name": "operator",
          "type": "address"
        },
        {
          "indexed": false,
          "internalType": "bool",
          "name": "approved",
          "type": "bool"
        }
      ],
      "name": "ApprovalForAll",
      "type": "event"
    },
    {
      "anonymous": false,
      "inputs": [
        {
          "indexed": true,
          "internalType": "address",
          "name": "operator",
          "type": "address"
        },
        {
          "indexed": true,
          "internalType": "address",
          "name": "from",
          "type": "address"
        },
        {
          "indexed": true,
          "internalType": "address",
          "name": "to",
          "type": "address"
        },
        {
          "indexed": false,
          "internalType": "uint256[]",
          "name": "ids",
          "type": "uint256[]"
        },
        {
          "indexed": false,
          "internalType": "uint256[]",
          "name": "values",
          "type": "uint256[]"
        }
      ],
      "name": "TransferBatch",
      "type": "event"
    },
    {
      "anonymous": false,
      "inputs": [
        {
          "indexed": true,
          "internalType": "address",
          "name": "operator",
          "type": "address"
        },
        {
          "indexed": true,
          "internalType": "address",
          "name": "from",
          "type": "address"
        },
        {
          "indexed": true,
          "internalType": "address",
          "name": "to",
          "type": "address"
        },
        {
          "indexed": false,
          "internalType": "uint256",
          "name": "id",
          "type": "uint256"
        },
        {
          "indexed": false,
          "internalType": "uint256",
          "name": "value",
          "type": "uint256"
        }
      ],
      "name": "TransferSingle",
      "type": "event"
    },
    {
      "anonymous": false,
      "inputs": [
        {
          "indexed": false,
          "internalType": "string",
          "name": "value",
          "type": "string"
        },
        {
          "indexed": true,
          "internalType": "uint256",
          "name": "id",
          "type": "uint256"
        }
      ],
      "name": "URI",
      "type": "event"
    },
    {
      "constant": true,
      "inputs": [
        {
          "internalType": "bytes4",
          "name": "interfaceId",
          "type": "bytes4"
        }
      ],
      "name": "supportsInterface",
      "outputs": [
        {
          "internalType": "bool",
          "name": "",
          "type": "bool"
        }
      ],
      "payable": false,
      "stateMutability": "view",
      "type": "function"
    },
    {
      "constant": true,
      "inputs": [
        {
          "internalType": "uint256",
          "name": "",
          "type": "uint256"
        }
      ],
      "name": "uri",
      "outputs": [
        {
          "internalType": "string",
          "name": "",
          "type": "string"
        }
      ],
      "payable": false,
      "stateMutability": "view",
      "type": "function"
    },
    {
      "constant": true,
      "inputs": [
        {
          "internalType": "address",
          "name": "account",
          "type": "address"
        },
        {
          "internalType": "uint256",
          "name": "id",
          "type": "uint256"
        }
      ],
      "name": "balanceOf",
      "outputs": [
        {
          "internalType": "uint256",
          "name": "",
          "type": "uint256"
        }
      ],
      "payable": false,
      "stateMutability": "view",
      "type": "function"
    },
    {
      "constant": true,
      "inputs": [
        {
          "internalType": "address[]",
          "name": "accounts",
          "type": "address[]"
        },
        {
          "internalType": "uint256[]",
          "name": "ids",
          "type": "uint256[]"
        }
      ],
      "name": "balanceOfBatch",
      "outputs": [
        {
          "internalType": "uint256[]",
          "name": "",
          "type": "uint256[]"
        }
      ],
      "payable": false,
      "stateMutability": "view",
      "type": "function"
    },
    {
      "constant": false,
      "inputs": [
        {
          "internalType": "address",
          "name": "operator",
          "type": "address"
        },
        {
          "internalType": "bool",
          "name": "approved",
          "type": "bool"
        }
      ],
      "name": "setApprovalForAll",
      "outputs": [],
      "payable": false,
      "stateMutability": "nonpayable",
      "type": "function"
    },
    {
      "constant": true,
      "inputs": [
        {
          "internalType": "address",
          "name": "account",
          "type": "address"
        },
        {
          "internalType": "address",
          "name": "operator",
          "type": "address"
        }
      ],
      "name": "isApprovedForAll",
      "outputs": [
        {
          "internalType": "bool",
          "name": "",
          "type": "bool"
        }
      ],
      "payable": false,
      "stateMutability": "view",
      "type": "function"
    },
    {
      "constant": true,
      "inputs": [
        {
          "internalType": "uint256",
          "name": "_tokenId",
          "type": "uint256"
        }
      ],
      "name": "totalSupply",
      "outputs": [
        {
          "internalType": "uint256",
          "name": "",
          "type": "uint256"
        }
      ],
      "payable": false,
      "stateMutability": "view",
      "type": "function"
    },
    {
      "constant": false,
      "inputs": [
        {
          "internalType": "address",
          "name": "from",
          "type": "address"
        },
        {
          "internalType": "address",
          "name": "to",
          "type": "address"
        },
        {
          "internalType": "uint256",
          "name": "id",
          "type": "uint256"
        },
        {
          "internalType": "uint256",
          "name": "amount",
          "type": "uint256"
        },
        {
          "internalType": "bytes",
          "name": "data",
          "type": "bytes"
        }
      ],
      "name": "safeTransferFrom",
      "outputs": [],
      "payable": false,
      "stateMutability": "nonpayable",
      "type": "function"
    },
    {
      "constant": false,
      "inputs": [
        {
          "internalType": "address",
          "name": "from",
          "type": "address"
        },
        {
          "internalType": "address",
          "name": "to",
          "type": "address"
        },
        {
          "internalType": "uint256[]",
          "name": "ids",
          "type": "uint256[]"
        },
        {
          "internalType": "uint256[]",
          "name": "amounts",
          "type": "uint256[]"
        },
        {
          "internalType": "bytes",
          "name": "data",
          "type": "bytes"
        }
      ],
      "name": "safeBatchTransferFrom",
      "outputs": [],
      "payable": false,
      "stateMutability": "nonpayable",
      "type": "function"
    }
  ],
  "bytecode": "0x60806040523480156200001157600080fd5b506040516200242f3803806200242f833981810160405260208110156200003757600080fd5b81019080805160405193929190846401000000008211156200005857600080fd5b9083019060208201858111156200006e57600080fd5b82516401000000008111828201881017156200008957600080fd5b82525081516020918201929091019080838360005b83811015620000b85781810151838201526020016200009e565b50505050905090810190601f168015620000e65780820380516001836020036101000a031916815260200191505b50604052506200010a91506301ffc9a760e01b90506001600160e01b036200015b16565b6200011e816001600160e01b03620001e016565b62000139636433ca1f60e01b6001600160e01b036200015b16565b620001546303a24d0760e21b6001600160e01b036200015b16565b506200029e565b6001600160e01b03198082161415620001bb576040805162461bcd60e51b815260206004820152601b60248201527f4b495031333a20696e76616c696420696e746572666163652069640000000000604482015290519081900360640190fd5b6001600160e01b0319166000908152602081905260409020805460ff19166001179055565b8051620001f5906004906020840190620001f9565b5050565b828054600181600116156101000203166002900490600052602060002090601f016020900481019282601f106200023c57805160ff19168380011785556200026c565b828001600101855582156200026c579182015b828111156200026c5782518255916020019190600101906200024f565b506200027a9291506200027e565b5090565b6200029b91905b808211156200027a576000815560010162000285565b90565b61218180620002ae6000396000f3fe608060405234801561001057600080fd5b50600436106100a25760003560e01c80634e1273f411610076578063bd85b0391161005b578063bd85b0391461055f578063e985e9c51461057c578063f242432a146105b7576100a2565b80634e1273f4146103ad578063a22cb46514610524576100a2565b8062fdd58e146100a757806301ffc9a7146100f25780630e89341c146101455780632eb2c2d6146101d7575b600080fd5b6100e0600480360360408110156100bd57600080fd5b5073ffffffffffffffffffffffffffffffffffffffff813516906020013561068f565b60408051918252519081900360200190f35b6101316004803603602081101561010857600080fd5b50357fffffffff0000000000000000000000000000000000000000000000000000000016610732565b604080519115158252519081900360200190f35b6101626004803603602081101561015b57600080fd5b5035610769565b6040805160208082528351818301528351919283929083019185019080838360005b8381101561019c578181015183820152602001610184565b50505050905090810190601f1680156101c95780820380516001836020036101000a031916815260200191505b509250505060405180910390f35b6103ab600480360360a08110156101ed57600080fd5b73ffffffffffffffffffffffffffffffffffffffff823581169260208101359091169181019060608101604082013564010000000081111561022e57600080fd5b82018360208201111561024057600080fd5b8035906020019184602083028401116401000000008311171561026257600080fd5b91908080602002602001604051908101604052809392919081815260200183836020028082843760009201919091525092959493602081019350359150506401000000008111156102b257600080fd5b8201836020820111156102c457600080fd5b803590602001918460208302840111640100000000831117156102e657600080fd5b919080806020026020016040519081016040528093929190818152602001838360200280828437600092019190915250929594936020810193503591505064010000000081111561033657600080fd5b82018360208201111561034857600080fd5b8035906020019184600183028401116401000000008311171561036a57600080fd5b91908080601f01602080910402602001604051908101604052809392919081815260200183838082843760009201919091525092955061081f945050505050565b005b6104d4600480360360408110156103c357600080fd5b8101906020810181356401000000008111156103de57600080fd5b8201836020820111156103f057600080fd5b8035906020019184602083028401116401000000008311171561041257600080fd5b919080806020026020016040519081016040528093929190818152602001838360200280828437600092019190915250929594936020810193503591505064010000000081111561046257600080fd5b82018360208201111561047457600080fd5b8035906020019184602083028401116401000000008311171561049657600080fd5b919080806020026020016040519081016040528093929190818152602001838360200280828437600092019190915250929550610c42945050505050565b60408051602080825283518183015283519192839290830191858101910280838360005b838110156105105781810151838201526020016104f8565b505050509050019250505060405180910390f35b6103ab6004803603604081101561053a57600080fd5b5073ffffffffffffffffffffffffffffffffffffffff81351690602001351515610e11565b6100e06004803603602081101561057557600080fd5b5035610f6c565b6101316004803603604081101561059257600080fd5b5073ffffffffffffffffffffffffffffffffffffffff81358116916020013516610f7e565b6103ab600480360360a08110156105cd57600080fd5b73ffffffffffffffffffffffffffffffffffffffff823581169260208101359091169160408201359160608101359181019060a08101608082013564010000000081111561061a57600080fd5b82018360208201111561062c57600080fd5b8035906020019184600183028401116401000000008311171561064e57600080fd5b91908080601f016020809104026020016040519081016040528093929190818152602001838380828437600092019190915250929550610fb9945050505050565b600073ffffffffffffffffffffffffffffffffffffffff83166106fd576040517f08c379a0000000000000000000000000000000000000000000000000000000008152600401808060200182810382526029815260200180611fa06029913960400191505060405180910390fd5b50600090815260016020908152604080832073ffffffffffffffffffffffffffffffffffffffff949094168352929052205490565b7fffffffff000000000000000000000000000000000000000000000000000000001660009081526020819052604090205460ff1690565b60048054604080516020601f60027fffffffffffffffffffffffffffffffffffffffffffffffffffffffffffffffff6101006001881615020190951694909404938401819004810282018101909252828152606093909290918301828280156108135780601f106107e857610100808354040283529160200191610813565b820191906000526020600020905b8154815290600101906020018083116107f657829003601f168201915b50505050509050919050565b8151835114610879576040517f08c379a0000000000000000000000000000000000000000000000000000000008152600401808060200182810382526026815260200180611fc96026913960400191505060405180910390fd5b73ffffffffffffffffffffffffffffffffffffffff84166108e5576040517f08c379a00000000000000000000000000000000000000000000000000000000081526004018080602001828103825260238152602001806120c56023913960400191505060405180910390fd5b6108ed611261565b73ffffffffffffffffffffffffffffffffffffffff168573ffffffffffffffffffffffffffffffffffffffff16148061093257506109328561092d611261565b610f7e565b610987576040517f08c379a0000000000000000000000000000000000000000000000000000000008152600401808060200182810382526030815260200180611fef6030913960400191505060405180910390fd5b6000610991611261565b90506109a1818787878787610c3a565b60005b8451811015610ad65760008582815181106109bb57fe5b6020026020010151905060008583815181106109d357fe5b60200260200101519050610a5a8160405180606001604052806028815260200161201f602891396001600086815260200190815260200160002060008d73ffffffffffffffffffffffffffffffffffffffff1673ffffffffffffffffffffffffffffffffffffffff168152602001908152602001600020546112659092919063ffffffff16565b600083815260016020908152604080832073ffffffffffffffffffffffffffffffffffffffff8e811685529252808320939093558a1681522054610a9e9082611316565b600092835260016020818152604080862073ffffffffffffffffffffffffffffffffffffffff8d1687529091529093205550016109a4565b508473ffffffffffffffffffffffffffffffffffffffff168673ffffffffffffffffffffffffffffffffffffffff168273ffffffffffffffffffffffffffffffffffffffff167f4a39dc06d4c0dbc64b70af90fd698a233a518aa5d07e595d983b8c0526c8f7fb8787604051808060200180602001838103835285818151815260200191508051906020019060200280838360005b83811015610b83578181015183820152602001610b6b565b50505050905001838103825284818151815260200191508051906020019060200280838360005b83811015610bc2578181015183820152602001610baa565b5050505090500194505050505060405180910390a4610be5818787878787611391565b610c3a576040517f08c379a00000000000000000000000000000000000000000000000000000000081526004018080602001828103825260368152602001806120e86036913960400191505060405180910390fd5b505050505050565b60608151835114610c9e576040517f08c379a0000000000000000000000000000000000000000000000000000000008152600401808060200182810382526027815260200180611f796027913960400191505060405180910390fd5b60608351604051908082528060200260200182016040528015610ccb578160200160208202803883390190505b50905060005b8451811015610e0957600073ffffffffffffffffffffffffffffffffffffffff16858281518110610cfe57fe5b602002602001015173ffffffffffffffffffffffffffffffffffffffff161415610d73576040517f08c379a000000000000000000000000000000000000000000000000000000000815260040180806020018281038252602f81526020018061211e602f913960400191505060405180910390fd5b60016000858381518110610d8357fe5b602002602001015181526020019081526020016000206000868381518110610da757fe5b602002602001015173ffffffffffffffffffffffffffffffffffffffff1673ffffffffffffffffffffffffffffffffffffffff16815260200190815260200160002054828281518110610df657fe5b6020908102919091010152600101610cd1565b509392505050565b8173ffffffffffffffffffffffffffffffffffffffff16610e30611261565b73ffffffffffffffffffffffffffffffffffffffff161415610e9d576040517f08c379a00000000000000000000000000000000000000000000000000000000081526004018080602001828103825260278152602001806120476027913960400191505060405180910390fd5b8060026000610eaa611261565b73ffffffffffffffffffffffffffffffffffffffff90811682526020808301939093526040918201600090812091871680825291909352912080547fffffffffffffffffffffffffffffffffffffffffffffffffffffffffffffff001692151592909217909155610f19611261565b604080518415158152905173ffffffffffffffffffffffffffffffffffffffff92909216917f17307eab39ab6107e8899845ad3d59bd9653f200f220920489ca2b5937696c319181900360200190a35050565b60009081526003602052604090205490565b73ffffffffffffffffffffffffffffffffffffffff918216600090815260026020908152604080832093909416825291909152205460ff1690565b73ffffffffffffffffffffffffffffffffffffffff8416611025576040517f08c379a00000000000000000000000000000000000000000000000000000000081526004018080602001828103825260238152602001806120c56023913960400191505060405180910390fd5b61102d611261565b73ffffffffffffffffffffffffffffffffffffffff168573ffffffffffffffffffffffffffffffffffffffff16148061106d575061106d8561092d611261565b6110c2576040517f08c379a000000000000000000000000000000000000000000000000000000000815260040180806020018281038252602781526020018061209e6027913960400191505060405180910390fd5b60006110cc611261565b90506110ec8187876110dd886119ff565b6110e6886119ff565b87610c3a565b6111468360405180606001604052806028815260200161201f60289139600087815260016020908152604080832073ffffffffffffffffffffffffffffffffffffffff8d168452909152902054919063ffffffff61126516565b600085815260016020908152604080832073ffffffffffffffffffffffffffffffffffffffff8b8116855292528083209390935587168152205461118a9084611316565b600085815260016020908152604080832073ffffffffffffffffffffffffffffffffffffffff808b168086529184529382902094909455805188815291820187905280518a8416938616927fc3d58168c5ae7397731d063d5bbf3d657854427343f4c083240f7aacaa2d0f6292908290030190a461120c818787878787611a43565b610c3a576040517f08c379a000000000000000000000000000000000000000000000000000000000815260040180806020018281038252603081526020018061206e6030913960400191505060405180910390fd5b3390565b6000818484111561130e576040517f08c379a00000000000000000000000000000000000000000000000000000000081526004018080602001828103825283818151815260200191508051906020019080838360005b838110156112d35781810151838201526020016112bb565b50505050905090810190601f1680156113005780820380516001836020036101000a031916815260200191505b509250505060405180910390fd5b505050900390565b60008282018381101561138a57604080517f08c379a000000000000000000000000000000000000000000000000000000000815260206004820152601b60248201527f536166654d6174683a206164646974696f6e206f766572666c6f770000000000604482015290519081900360640190fd5b9392505050565b60008060606113b58773ffffffffffffffffffffffffffffffffffffffff16611f72565b6113c4576001925050506119f5565b8673ffffffffffffffffffffffffffffffffffffffff1663bc197c8160e01b8a8a898989604051602401808673ffffffffffffffffffffffffffffffffffffffff1673ffffffffffffffffffffffffffffffffffffffff1681526020018573ffffffffffffffffffffffffffffffffffffffff1673ffffffffffffffffffffffffffffffffffffffff168152602001806020018060200180602001848103845287818151815260200191508051906020019060200280838360005b8381101561149757818101518382015260200161147f565b50505050905001848103835286818151815260200191508051906020019060200280838360005b838110156114d65781810151838201526020016114be565b50505050905001848103825285818151815260200191508051906020019080838360005b838110156115125781810151838201526020016114fa565b50505050905090810190601f16801561153f5780820380516001836020036101000a031916815260200191505b5098505050505050505050604051602081830303815290604052907bffffffffffffffffffffffffffffffffffffffffffffffffffffffff19166020820180517bffffffffffffffffffffffffffffffffffffffffffffffffffffffff83818316178352505050506040518082805190602001908083835b602083106115f457805182527fffffffffffffffffffffffffffffffffffffffffffffffffffffffffffffffe090920191602091820191016115b7565b6001836020036101000a0380198251168184511680821785525050505050509050019150506000604051808303816000865af19150503d8060008114611656576040519150601f19603f3d011682016040523d82523d6000602084013e61165b565b606091505b5080519193509150158015906116c9575080517fbc197c810000000000000000000000000000000000000000000000000000000090602080840191908110156116a357600080fd5b50517fffffffff0000000000000000000000000000000000000000000000000000000016145b156116d9576001925050506119f5565b8673ffffffffffffffffffffffffffffffffffffffff16639b49e33260e01b8a8a898989604051602401808673ffffffffffffffffffffffffffffffffffffffff1673ffffffffffffffffffffffffffffffffffffffff1681526020018573ffffffffffffffffffffffffffffffffffffffff1673ffffffffffffffffffffffffffffffffffffffff168152602001806020018060200180602001848103845287818151815260200191508051906020019060200280838360005b838110156117ac578181015183820152602001611794565b50505050905001848103835286818151815260200191508051906020019060200280838360005b838110156117eb5781810151838201526020016117d3565b50505050905001848103825285818151815260200191508051906020019080838360005b8381101561182757818101518382015260200161180f565b50505050905090810190601f1680156118545780820380516001836020036101000a031916815260200191505b5098505050505050505050604051602081830303815290604052907bffffffffffffffffffffffffffffffffffffffffffffffffffffffff19166020820180517bffffffffffffffffffffffffffffffffffffffffffffffffffffffff83818316178352505050506040518082805190602001908083835b6020831061190957805182527fffffffffffffffffffffffffffffffffffffffffffffffffffffffffffffffe090920191602091820191016118cc565b6001836020036101000a0380198251168184511680821785525050505050509050019150506000604051808303816000865af19150503d806000811461196b576040519150601f19603f3d011682016040523d82523d6000602084013e611970565b606091505b5080519193509150158015906119de575080517f9b49e3320000000000000000000000000000000000000000000000000000000090602080840191908110156119b857600080fd5b50517fffffffff0000000000000000000000000000000000000000000000000000000016145b156119ee576001925050506119f5565b6000925050505b9695505050505050565b604080516001808252818301909252606091829190602080830190803883390190505090508281600081518110611a3257fe5b602090810291909101015292915050565b6000806060611a678773ffffffffffffffffffffffffffffffffffffffff16611f72565b611a76576001925050506119f5565b8673ffffffffffffffffffffffffffffffffffffffff1663f23a6e6160e01b8a8a898989604051602401808673ffffffffffffffffffffffffffffffffffffffff1673ffffffffffffffffffffffffffffffffffffffff1681526020018573ffffffffffffffffffffffffffffffffffffffff1673ffffffffffffffffffffffffffffffffffffffff16815260200184815260200183815260200180602001828103825283818151815260200191508051906020019080838360005b83811015611b4a578181015183820152602001611b32565b50505050905090810190601f168015611b775780820380516001836020036101000a031916815260200191505b509650505050505050604051602081830303815290604052907bffffffffffffffffffffffffffffffffffffffffffffffffffffffff19166020820180517bffffffffffffffffffffffffffffffffffffffffffffffffffffffff83818316178352505050506040518082805190602001908083835b60208310611c2a57805182527fffffffffffffffffffffffffffffffffffffffffffffffffffffffffffffffe09092019160209182019101611bed565b6001836020036101000a0380198251168184511680821785525050505050509050019150506000604051808303816000865af19150503d8060008114611c8c576040519150601f19603f3d011682016040523d82523d6000602084013e611c91565b606091505b508051919350915015801590611cff575080517ff23a6e61000000000000000000000000000000000000000000000000000000009060208084019190811015611cd957600080fd5b50517fffffffff0000000000000000000000000000000000000000000000000000000016145b15611d0f576001925050506119f5565b8673ffffffffffffffffffffffffffffffffffffffff1663e78b332560e01b8a8a898989604051602401808673ffffffffffffffffffffffffffffffffffffffff1673ffffffffffffffffffffffffffffffffffffffff1681526020018573ffffffffffffffffffffffffffffffffffffffff1673ffffffffffffffffffffffffffffffffffffffff16815260200184815260200183815260200180602001828103825283818151815260200191508051906020019080838360005b83811015611de3578181015183820152602001611dcb565b50505050905090810190601f168015611e105780820380516001836020036101000a031916815260200191505b509650505050505050604051602081830303815290604052907bffffffffffffffffffffffffffffffffffffffffffffffffffffffff19166020820180517bffffffffffffffffffffffffffffffffffffffffffffffffffffffff83818316178352505050506040518082805190602001908083835b60208310611ec357805182527fffffffffffffffffffffffffffffffffffffffffffffffffffffffffffffffe09092019160209182019101611e86565b6001836020036101000a0380198251168184511680821785525050505050509050019150506000604051808303816000865af19150503d8060008114611f25576040519150601f19603f3d011682016040523d82523d6000602084013e611f2a565b606091505b5080519193509150158015906119de575080517fe78b33250000000000000000000000000000000000000000000000000000000090602080840191908110156119b857600080fd5b3b15159056fe4b495033373a206163636f756e747320616e6420696473206c656e677468206d69736d617463684b495033373a2062616c616e636520717565727920666f7220746865207a65726f20616464726573734b495033373a2069647320616e6420616d6f756e7473206c656e677468206d69736d617463684b495033373a207472616e736665722063616c6c6572206973206e6f74206f776e6572206e6f7220617070726f7665644b495033373a20696e73756666696369656e742062616c616e636520666f72207472616e736665724b495033373a2073657474696e6720617070726f76616c2073746174757320666f722073656c664b495033373a207472616e7366657220746f206e6f6e204b49503337526563656976657220696d706c656d656e7465724b495033373a2063616c6c6572206973206e6f74206f776e6572206e6f7220617070726f7665644b495033373a207472616e7366657220746f20746865207a65726f20616464726573734b495033373a206261746368207472616e7366657220746f206e6f6e204b49503337526563656976657220696d706c656d656e7465724b495033373a2062617463682062616c616e636520717565727920666f7220746865207a65726f2061646472657373a265627a7a72315820fbd8be52df08d50fff48d351cba9dae29ad91710cd7904d0818d0a540c63469e64736f6c63430005110032",
  "source": "// SPDX-License-Identifier: MIT\n\npragma solidity ^0.5.0;\n\nimport \"./IKIP37.sol\";\nimport \"./IKIP37MetadataURI.sol\";\nimport \"./IKIP37Receiver.sol\";\nimport \"./IERC1155Receiver.sol\";\nimport \"../../GSN/Context.sol\";\nimport \"../../introspection/KIP13.sol\";\nimport \"../../math/SafeMath.sol\";\nimport \"../../utils/Address.sol\";\n\n/**\n *\n * @dev Implementation of the basic standard multi-token.\n * Originally based on code by Enjin: https://github.com/enjin/erc-1155\n */\ncontract KIP37 is Context, KIP13, IKIP37, IKIP37MetadataURI {\n    using SafeMath for uint256;\n    using Address for address;\n\n    // Mapping from token ID to account balances\n    mapping(uint256 => mapping(address => uint256)) private _balances;\n\n    // Mapping from account to operator approvals\n    mapping(address => mapping(address => bool)) private _operatorApprovals;\n\n    // Mapping from token ID to the total supply of the token\n    mapping(uint256 => uint256) private _totalSupply;\n\n    // Used as the URI for all token types by relying on ID substition, e.g. https://token-cdn-domain/{id}.json\n    string internal _uri;\n\n    /*\n     *     bytes4(keccak256('balanceOf(address,uint256)')) == 0x00fdd58e\n     *     bytes4(keccak256('balanceOfBatch(address[],uint256[])')) == 0x4e1273f4\n     *     bytes4(keccak256('setApprovalForAll(address,bool)')) == 0xa22cb465\n     *     bytes4(keccak256('isApprovedForAll(address,address)')) == 0xe985e9c5\n     *     bytes4(keccak256('safeTransferFrom(address,address,uint256,uint256,bytes)')) == 0xf242432a\n     *     bytes4(keccak256('safeBatchTransferFrom(address,address,uint256[],uint256[],bytes)')) == 0x2eb2c2d6\n     *     bytes4(keccak256('totalSupply(uint256)')) == 0xbd85b039\n     *\n     *     => 0x00fdd58e ^ 0x4e1273f4 ^ 0xa22cb465 ^\n     *        0xe985e9c5 ^ 0xf242432a ^ 0x2eb2c2d6 ^ 0xbd85b039 == 0x6433ca1f\n     */\n    bytes4 private constant _INTERFACE_ID_KIP37 = 0x6433ca1f;\n\n    /*\n     *     bytes4(keccak256('uri(uint256)')) == 0x0e89341c\n     */\n    bytes4 private constant _INTERFACE_ID_KIP37_METADATA_URI = 0x0e89341c;\n\n    bytes4 private constant _INTERFACE_ID_KIP37_TOKEN_RECEIVER = 0x7cc2d017;\n\n    bytes4 private constant _INTERFACE_ID_ERC1155_TOKEN_RECEIVER = 0x4e2312e0;\n\n    // Equals to `bytes4(keccak256(\"onKIP37Received(address,address,uint256,uint256,bytes)\"))`\n    // which can be also obtained as `IKIP37Receiver(0).onKIP37Received.selector`\n    bytes4 private constant _KIP37_RECEIVED = 0xe78b3325;\n\n    // Equals to `bytes4(keccak256(\"onERC1155Received(address,address,uint256,uint256,bytes)\"))`\n    // which can be also obtained as `IERC1155Receiver(0).onERC1155Received.selector`\n    bytes4 private constant _ERC1155_RECEIVED = 0xf23a6e61;\n\n    // Equals to `bytes4(keccak256(\"onKIP37BatchReceived(address,address,uint256[],uint256[],bytes)\"))`\n    // which can be also obtained as `IKIP37Receiver(0).onKIP37BatchReceived.selector`\n    bytes4 private constant _KIP37_BATCH_RECEIVED = 0x9b49e332;\n\n    // Equals to `bytes4(keccak256(\"onERC1155BatchReceived(address,address,uint256[],uint256[],bytes)\"))`\n    // which can be also obtained as `IERC1155Receiver(0).onERC1155BatchReceived.selector`\n    bytes4 private constant _ERC1155_BATCH_RECEIVED = 0xbc197c81;\n\n    /**\n     * @dev See {_setURI}.\n     */\n    constructor(string memory uri) public {\n        _setURI(uri);\n\n        // register the supported interfaces to conform to KIP37 via KIP13\n        _registerInterface(_INTERFACE_ID_KIP37);\n\n        // register the supported interfaces to conform to KIP37MetadataURI via KIP13\n        _registerInterface(_INTERFACE_ID_KIP37_METADATA_URI);\n    }\n\n    /**\n     * @dev See {IKIP37MetadataURI-uri}.\n     *\n     * This implementation returns the same URI for *all* token types. It relies\n     * on the token type ID substituion mechanism\n     * http://kips.klaytn.com/KIPs/kip-37#metadata\n     *\n     * Clients calling this function must replace the `\\{id\\}` substring with the\n     * actual token type ID.\n     */\n    function uri(uint256) external view returns (string memory) {\n        return _uri;\n    }\n\n    /**\n     * @dev See {IKIP37-balanceOf}.\n     *\n     * Requirements:\n     *\n     * - `account` cannot be the zero address.\n     */\n    function balanceOf(address account, uint256 id)\n        public\n        view\n        returns (uint256)\n    {\n        require(\n            account != address(0),\n            \"KIP37: balance query for the zero address\"\n        );\n        return _balances[id][account];\n    }\n\n    /**\n     * @dev See {IKIP37-balanceOfBatch}.\n     *\n     * Requirements:\n     *\n     * - `accounts` and `ids` must have the same length.\n     */\n    function balanceOfBatch(address[] memory accounts, uint256[] memory ids)\n        public\n        view\n        returns (uint256[] memory)\n    {\n        require(\n            accounts.length == ids.length,\n            \"KIP37: accounts and ids length mismatch\"\n        );\n\n        uint256[] memory batchBalances = new uint256[](accounts.length);\n\n        for (uint256 i = 0; i < accounts.length; ++i) {\n            require(\n                accounts[i] != address(0),\n                \"KIP37: batch balance query for the zero address\"\n            );\n            batchBalances[i] = _balances[ids[i]][accounts[i]];\n        }\n\n        return batchBalances;\n    }\n\n    /**\n     * @dev See {IKIP37-setApprovalForAll}.\n     */\n    function setApprovalForAll(address operator, bool approved) public {\n        require(\n            _msgSender() != operator,\n            \"KIP37: setting approval status for self\"\n        );\n\n        _operatorApprovals[_msgSender()][operator] = approved;\n        emit ApprovalForAll(_msgSender(), operator, approved);\n    }\n\n    /**\n     * @dev See {IKIP37-isApprovedForAll}.\n     */\n    function isApprovedForAll(address account, address operator)\n        public\n        view\n        returns (bool)\n    {\n        return _operatorApprovals[account][operator];\n    }\n\n    function totalSupply(uint256 _tokenId) public view returns (uint256) {\n        return _totalSupply[_tokenId];\n    }\n\n    /**\n     * @dev See {IKIP37-safeTransferFrom}.\n     */\n    function safeTransferFrom(\n        address from,\n        address to,\n        uint256 id,\n        uint256 amount,\n        bytes memory data\n    ) public {\n        require(to != address(0), \"KIP37: transfer to the zero address\");\n        require(\n            from == _msgSender() || isApprovedForAll(from, _msgSender()),\n            \"KIP37: caller is not owner nor approved\"\n        );\n\n        address operator = _msgSender();\n\n        _beforeTokenTransfer(\n            operator,\n            from,\n            to,\n            _asSingletonArray(id),\n            _asSingletonArray(amount),\n            data\n        );\n\n        _balances[id][from] = _balances[id][from].sub(\n            amount,\n            \"KIP37: insufficient balance for transfer\"\n        );\n        _balances[id][to] = _balances[id][to].add(amount);\n\n        emit TransferSingle(operator, from, to, id, amount);\n\n        require(\n            _doSafeTransferAcceptanceCheck(\n                operator,\n                from,\n                to,\n                id,\n                amount,\n                data\n            ),\n            \"KIP37: transfer to non KIP37Receiver implementer\"\n        );\n    }\n\n    /**\n     * @dev See {IKIP37-safeBatchTransferFrom}.\n     */\n    function safeBatchTransferFrom(\n        address from,\n        address to,\n        uint256[] memory ids,\n        uint256[] memory amounts,\n        bytes memory data\n    ) public {\n        require(\n            ids.length == amounts.length,\n            \"KIP37: ids and amounts length mismatch\"\n        );\n        require(to != address(0), \"KIP37: transfer to the zero address\");\n        require(\n            from == _msgSender() || isApprovedForAll(from, _msgSender()),\n            \"KIP37: transfer caller is not owner nor approved\"\n        );\n\n        address operator = _msgSender();\n\n        _beforeTokenTransfer(operator, from, to, ids, amounts, data);\n\n        for (uint256 i = 0; i < ids.length; ++i) {\n            uint256 id = ids[i];\n            uint256 amount = amounts[i];\n\n            _balances[id][from] = _balances[id][from].sub(\n                amount,\n                \"KIP37: insufficient balance for transfer\"\n            );\n            _balances[id][to] = _balances[id][to].add(amount);\n        }\n\n        emit TransferBatch(operator, from, to, ids, amounts);\n\n        require(\n            _doSafeBatchTransferAcceptanceCheck(\n                operator,\n                from,\n                to,\n                ids,\n                amounts,\n                data\n            ),\n            \"KIP37: batch transfer to non KIP37Receiver implementer\"\n        );\n    }\n\n    /**\n     * @dev Sets a new URI for all token types, by relying on the token type ID\n     * substituion mechanism\n     * http://kips.klaytn.com/KIPs/kip-37#metadata.\n     *\n     * By this mechanism, any occurence of the `\\{id\\}` substring in either the\n     * URI or any of the amounts in the JSON file at said URI will be replaced by\n     * clients with the token type ID.\n     *\n     * For example, the `https://token-cdn-domain/\\{id\\}.json` URI would be\n     * interpreted by clients as\n     * `https://token-cdn-domain/000000000000000000000000000000000000000000000000000000000004cce0.json`\n     * for token type ID 0x4cce0.\n     *\n     * See {uri}.\n     *\n     * Because these URIs cannot be meaningfully represented by the {URI} event,\n     * this function emits no events.\n     */\n    function _setURI(string memory newuri) internal {\n        _uri = newuri;\n    }\n\n    /**\n     * @dev Creates `amount` tokens of token type `id`, and assigns them to `account`.\n     *\n     * Emits a {TransferSingle} event.\n     *\n     * Requirements:\n     *\n     * - `account` cannot be the zero address.\n     * - If `to` refers to a smart contract, it must implement {IKIP37Receiver-onKIP37Received} and return the\n     * acceptance magic value.\n     */\n    function _mint(\n        address account,\n        uint256 id,\n        uint256 amount,\n        bytes memory data\n    ) internal {\n        require(account != address(0), \"KIP37: mint to the zero address\");\n\n        address operator = _msgSender();\n\n        _beforeTokenTransfer(\n            operator,\n            address(0),\n            account,\n            _asSingletonArray(id),\n            _asSingletonArray(amount),\n            data\n        );\n\n        _balances[id][account] = _balances[id][account].add(amount);\n        _totalSupply[id] = _totalSupply[id].add(amount);\n        emit TransferSingle(operator, address(0), account, id, amount);\n\n        require(\n            _doSafeTransferAcceptanceCheck(\n                operator,\n                address(0),\n                account,\n                id,\n                amount,\n                data\n            ),\n            \"KIP37: transfer to non KIP37Receiver implementer\"\n        );\n    }\n\n    /**\n     * @dev Batch-operations version of {_mint}.\n     *\n     * Requirements:\n     *\n     * - `ids` and `amounts` must have the same length.\n     * - If `to` refers to a smart contract, it must implement {IKIP37Receiver-onKIP37BatchReceived} and return the\n     * acceptance magic value.\n     */\n    function _mintBatch(\n        address to,\n        uint256[] memory ids,\n        uint256[] memory amounts,\n        bytes memory data\n    ) internal {\n        require(to != address(0), \"KIP37: mint to the zero address\");\n        require(\n            ids.length == amounts.length,\n            \"KIP37: ids and amounts length mismatch\"\n        );\n\n        address operator = _msgSender();\n\n        _beforeTokenTransfer(operator, address(0), to, ids, amounts, data);\n\n        for (uint256 i = 0; i < ids.length; i++) {\n            _balances[ids[i]][to] = amounts[i].add(_balances[ids[i]][to]);\n            _totalSupply[ids[i]] = amounts[i].add(_totalSupply[ids[i]]);\n        }\n\n        emit TransferBatch(operator, address(0), to, ids, amounts);\n\n        require(\n            _doSafeBatchTransferAcceptanceCheck(\n                operator,\n                address(0),\n                to,\n                ids,\n                amounts,\n                data\n            ),\n            \"KIP37: batch transfer to non KIP37Receiver implementer\"\n        );\n    }\n\n    /**\n     * @dev Destroys `amount` tokens of token type `id` from `account`\n     *\n     * Requirements:\n     *\n     * - `account` cannot be the zero address.\n     * - `account` must have at least `amount` tokens of token type `id`.\n     */\n    function _burn(\n        address account,\n        uint256 id,\n        uint256 amount\n    ) internal {\n        require(account != address(0), \"KIP37: burn from the zero address\");\n\n        address operator = _msgSender();\n\n        _beforeTokenTransfer(\n            operator,\n            account,\n            address(0),\n            _asSingletonArray(id),\n            _asSingletonArray(amount),\n            \"\"\n        );\n\n        _balances[id][account] = _balances[id][account].sub(\n            amount,\n            \"KIP37: burn amount exceeds balance\"\n        );\n\n        _totalSupply[id] = _totalSupply[id].sub(\n            amount,\n            \"KIP37: burn amount exceeds total supply\"\n        );\n\n        emit TransferSingle(operator, account, address(0), id, amount);\n    }\n\n    /**\n     * @dev Batch-operations version of {_burn}.\n     *\n     * Requirements:\n     *\n     * - `ids` and `amounts` must have the same length.\n     */\n    function _burnBatch(\n        address account,\n        uint256[] memory ids,\n        uint256[] memory amounts\n    ) internal {\n        require(account != address(0), \"KIP37: burn from the zero address\");\n        require(\n            ids.length == amounts.length,\n            \"KIP37: ids and amounts length mismatch\"\n        );\n\n        address operator = _msgSender();\n\n        _beforeTokenTransfer(operator, account, address(0), ids, amounts, \"\");\n\n        for (uint256 i = 0; i < ids.length; i++) {\n            _balances[ids[i]][account] = _balances[ids[i]][account].sub(\n                amounts[i],\n                \"KIP37: burn amount exceeds balance\"\n            );\n\n            _totalSupply[ids[i]] = _totalSupply[ids[i]].sub(\n                amounts[i],\n                \"KIP37: burn amount exceeds total supply\"\n            );\n        }\n\n        emit TransferBatch(operator, account, address(0), ids, amounts);\n    }\n\n    /**\n     * @dev Hook that is called before any token transfer. This includes minting\n     * and burning, as well as batched variants.\n     *\n     * The same hook is called on both single and batched variants. For single\n     * transfers, the length of the `id` and `amount` arrays will be 1.\n     *\n     * Calling conditions (for each `id` and `amount` pair):\n     *\n     * - When `from` and `to` are both non-zero, `amount` of ``from``'s tokens\n     * of token type `id` will be  transferred to `to`.\n     * - When `from` is zero, `amount` tokens of token type `id` will be minted\n     * for `to`.\n     * - when `to` is zero, `amount` of ``from``'s tokens of token type `id`\n     * will be burned.\n     * - `from` and `to` are never both zero.\n     * - `ids` and `amounts` have the same, non-zero length.\n     *\n     * To learn more about hooks, head to xref:ROOT:extending-contracts.adoc#using-hooks[Using Hooks].\n     */\n    function _beforeTokenTransfer(\n        address operator,\n        address from,\n        address to,\n        uint256[] memory ids,\n        uint256[] memory amounts,\n        bytes memory data\n    ) internal {}\n\n    function _doSafeTransferAcceptanceCheck(\n        address operator,\n        address from,\n        address to,\n        uint256 id,\n        uint256 amount,\n        bytes memory data\n    ) private returns (bool) {\n        bool success;\n        bytes memory returndata;\n\n        if (!to.isContract()) {\n            return true;\n        }\n\n        (success, returndata) = to.call(\n            abi.encodeWithSelector(\n                _ERC1155_RECEIVED,\n                operator,\n                from,\n                id,\n                amount,\n                data\n            )\n        );\n        if (\n            returndata.length != 0 &&\n            abi.decode(returndata, (bytes4)) == _ERC1155_RECEIVED\n        ) {\n            return true;\n        }\n\n        (success, returndata) = to.call(\n            abi.encodeWithSelector(\n                _KIP37_RECEIVED,\n                operator,\n                from,\n                id,\n                amount,\n                data\n            )\n        );\n        if (\n            returndata.length != 0 &&\n            abi.decode(returndata, (bytes4)) == _KIP37_RECEIVED\n        ) {\n            return true;\n        }\n\n        return false;\n    }\n\n    function _doSafeBatchTransferAcceptanceCheck(\n        address operator,\n        address from,\n        address to,\n        uint256[] memory ids,\n        uint256[] memory amounts,\n        bytes memory data\n    ) private returns (bool) {\n        bool success;\n        bytes memory returndata;\n\n        if (!to.isContract()) {\n            return true;\n        }\n\n        (success, returndata) = to.call(\n            abi.encodeWithSelector(\n                _ERC1155_BATCH_RECEIVED,\n                operator,\n                from,\n                ids,\n                amounts,\n                data\n            )\n        );\n        if (\n            returndata.length != 0 &&\n            abi.decode(returndata, (bytes4)) == _ERC1155_BATCH_RECEIVED\n        ) {\n            return true;\n        }\n\n        (success, returndata) = to.call(\n            abi.encodeWithSelector(\n                _KIP37_BATCH_RECEIVED,\n                operator,\n                from,\n                ids,\n                amounts,\n                data\n            )\n        );\n        if (\n            returndata.length != 0 &&\n            abi.decode(returndata, (bytes4)) == _KIP37_BATCH_RECEIVED\n        ) {\n            return true;\n        }\n\n        return false;\n    }\n\n    function _asSingletonArray(uint256 element)\n        private\n        pure\n        returns (uint256[] memory)\n    {\n        uint256[] memory array = new uint256[](1);\n        array[0] = element;\n\n        return array;\n    }\n}\n",
  "sourcePath": "/root/Proj/Migration-Contract/contracts/klaytn-contracts/token/KIP37/KIP37.sol",
  "compiler": {
    "name": "solc",
    "version": "0.5.17+commit.d19bba13.Emscripten.clang"
  },
  "schemaVersion": "3.1.0",
  "updatedAt": "2022-04-05T10:24:04.448Z",
  "devdoc": {
    "details": "Implementation of the basic standard multi-token. Originally based on code by Enjin: https://github.com/enjin/erc-1155",
    "methods": {
      "balanceOf(address,uint256)": {
        "details": "See {IKIP37-balanceOf}.     * Requirements:     * - `account` cannot be the zero address."
      },
      "balanceOfBatch(address[],uint256[])": {
        "details": "See {IKIP37-balanceOfBatch}.     * Requirements:     * - `accounts` and `ids` must have the same length."
      },
      "constructor": {
        "details": "See {_setURI}."
      },
      "isApprovedForAll(address,address)": {
        "details": "See {IKIP37-isApprovedForAll}."
      },
      "safeBatchTransferFrom(address,address,uint256[],uint256[],bytes)": {
        "details": "See {IKIP37-safeBatchTransferFrom}."
      },
      "safeTransferFrom(address,address,uint256,uint256,bytes)": {
        "details": "See {IKIP37-safeTransferFrom}."
      },
      "setApprovalForAll(address,bool)": {
        "details": "See {IKIP37-setApprovalForAll}."
      },
      "supportsInterface(bytes4)": {
        "details": "See `IKIP13.supportsInterface`.     * Time complexity O(1), guaranteed to always use less than 30 000 gas."
      },
      "uri(uint256)": {
        "details": "See {IKIP37MetadataURI-uri}.     * This implementation returns the same URI for *all* token types. It relies on the token type ID substituion mechanism http://kips.klaytn.com/KIPs/kip-37#metadata     * Clients calling this function must replace the `\\{id\\}` substring with the actual token type ID."
      }
    }
  },
  "userdoc": {
    "methods": {}
  }
}