{
  "contractName": "KIP37TokenMock",
  "abi": [
    {
      "inputs": [
        {
          "internalType": "string",
          "name": "uri",
          "type": "string"
        }
      ],
      "payable": false,
      "stateMutability": "nonpayable",
      "type": "constructor"
    },
    {
      "anonymous": false,
      "inputs": [
        {
          "indexed": true,
          "internalType": "address",
          "name": "account",
          "type": "address"
        },
        {
          "indexed": true,
          "internalType": "address",
          "name": "operator",
          "type": "address"
        },
        {
          "indexed": false,
          "internalType": "bool",
          "name": "approved",
          "type": "bool"
        }
      ],
      "name": "ApprovalForAll",
      "type": "event"
    },
    {
      "anonymous": false,
      "inputs": [
        {
          "indexed": true,
          "internalType": "address",
          "name": "account",
          "type": "address"
        }
      ],
      "name": "MinterAdded",
      "type": "event"
    },
    {
      "anonymous": false,
      "inputs": [
        {
          "indexed": true,
          "internalType": "address",
          "name": "account",
          "type": "address"
        }
      ],
      "name": "MinterRemoved",
      "type": "event"
    },
    {
      "anonymous": false,
      "inputs": [
        {
          "indexed": false,
          "internalType": "uint256",
          "name": "tokenId",
          "type": "uint256"
        },
        {
          "indexed": false,
          "internalType": "address",
          "name": "account",
          "type": "address"
        }
      ],
      "name": "Paused",
      "type": "event"
    },
    {
      "anonymous": false,
      "inputs": [
        {
          "indexed": false,
          "internalType": "address",
          "name": "account",
          "type": "address"
        }
      ],
      "name": "Paused",
      "type": "event"
    },
    {
      "anonymous": false,
      "inputs": [
        {
          "indexed": true,
          "internalType": "address",
          "name": "account",
          "type": "address"
        }
      ],
      "name": "PauserAdded",
      "type": "event"
    },
    {
      "anonymous": false,
      "inputs": [
        {
          "indexed": true,
          "internalType": "address",
          "name": "account",
          "type": "address"
        }
      ],
      "name": "PauserRemoved",
      "type": "event"
    },
    {
      "anonymous": false,
      "inputs": [
        {
          "indexed": true,
          "internalType": "address",
          "name": "operator",
          "type": "address"
        },
        {
          "indexed": true,
          "internalType": "address",
          "name": "from",
          "type": "address"
        },
        {
          "indexed": true,
          "internalType": "address",
          "name": "to",
          "type": "address"
        },
        {
          "indexed": false,
          "internalType": "uint256[]",
          "name": "ids",
          "type": "uint256[]"
        },
        {
          "indexed": false,
          "internalType": "uint256[]",
          "name": "values",
          "type": "uint256[]"
        }
      ],
      "name": "TransferBatch",
      "type": "event"
    },
    {
      "anonymous": false,
      "inputs": [
        {
          "indexed": true,
          "internalType": "address",
          "name": "operator",
          "type": "address"
        },
        {
          "indexed": true,
          "internalType": "address",
          "name": "from",
          "type": "address"
        },
        {
          "indexed": true,
          "internalType": "address",
          "name": "to",
          "type": "address"
        },
        {
          "indexed": false,
          "internalType": "uint256",
          "name": "id",
          "type": "uint256"
        },
        {
          "indexed": false,
          "internalType": "uint256",
          "name": "value",
          "type": "uint256"
        }
      ],
      "name": "TransferSingle",
      "type": "event"
    },
    {
      "anonymous": false,
      "inputs": [
        {
          "indexed": false,
          "internalType": "string",
          "name": "value",
          "type": "string"
        },
        {
          "indexed": true,
          "internalType": "uint256",
          "name": "id",
          "type": "uint256"
        }
      ],
      "name": "URI",
      "type": "event"
    },
    {
      "anonymous": false,
      "inputs": [
        {
          "indexed": false,
          "internalType": "uint256",
          "name": "tokenId",
          "type": "uint256"
        },
        {
          "indexed": false,
          "internalType": "address",
          "name": "account",
          "type": "address"
        }
      ],
      "name": "Unpaused",
      "type": "event"
    },
    {
      "anonymous": false,
      "inputs": [
        {
          "indexed": false,
          "internalType": "address",
          "name": "account",
          "type": "address"
        }
      ],
      "name": "Unpaused",
      "type": "event"
    },
    {
      "constant": false,
      "inputs": [
        {
          "internalType": "address",
          "name": "account",
          "type": "address"
        }
      ],
      "name": "addMinter",
      "outputs": [],
      "payable": false,
      "stateMutability": "nonpayable",
      "type": "function"
    },
    {
      "constant": false,
      "inputs": [
        {
          "internalType": "address",
          "name": "account",
          "type": "address"
        }
      ],
      "name": "addPauser",
      "outputs": [],
      "payable": false,
      "stateMutability": "nonpayable",
      "type": "function"
    },
    {
      "constant": true,
      "inputs": [
        {
          "internalType": "address",
          "name": "account",
          "type": "address"
        },
        {
          "internalType": "uint256",
          "name": "id",
          "type": "uint256"
        }
      ],
      "name": "balanceOf",
      "outputs": [
        {
          "internalType": "uint256",
          "name": "",
          "type": "uint256"
        }
      ],
      "payable": false,
      "stateMutability": "view",
      "type": "function"
    },
    {
      "constant": true,
      "inputs": [
        {
          "internalType": "address[]",
          "name": "accounts",
          "type": "address[]"
        },
        {
          "internalType": "uint256[]",
          "name": "ids",
          "type": "uint256[]"
        }
      ],
      "name": "balanceOfBatch",
      "outputs": [
        {
          "internalType": "uint256[]",
          "name": "",
          "type": "uint256[]"
        }
      ],
      "payable": false,
      "stateMutability": "view",
      "type": "function"
    },
    {
      "constant": false,
      "inputs": [
        {
          "internalType": "address",
          "name": "account",
          "type": "address"
        },
        {
          "internalType": "uint256",
          "name": "id",
          "type": "uint256"
        },
        {
          "internalType": "uint256",
          "name": "value",
          "type": "uint256"
        }
      ],
      "name": "burn",
      "outputs": [],
      "payable": false,
      "stateMutability": "nonpayable",
      "type": "function"
    },
    {
      "constant": false,
      "inputs": [
        {
          "internalType": "address",
          "name": "account",
          "type": "address"
        },
        {
          "internalType": "uint256[]",
          "name": "ids",
          "type": "uint256[]"
        },
        {
          "internalType": "uint256[]",
          "name": "values",
          "type": "uint256[]"
        }
      ],
      "name": "burnBatch",
      "outputs": [],
      "payable": false,
      "stateMutability": "nonpayable",
      "type": "function"
    },
    {
      "constant": false,
      "inputs": [
        {
          "internalType": "uint256",
          "name": "_id",
          "type": "uint256"
        },
        {
          "internalType": "uint256",
          "name": "_initialSupply",
          "type": "uint256"
        },
        {
          "internalType": "string",
          "name": "_uri",
          "type": "string"
        }
      ],
      "name": "create",
      "outputs": [
        {
          "internalType": "bool",
          "name": "",
          "type": "bool"
        }
      ],
      "payable": false,
      "stateMutability": "nonpayable",
      "type": "function"
    },
    {
      "constant": true,
      "inputs": [
        {
          "internalType": "uint256",
          "name": "",
          "type": "uint256"
        }
      ],
      "name": "creators",
      "outputs": [
        {
          "internalType": "address",
          "name": "",
          "type": "address"
        }
      ],
      "payable": false,
      "stateMutability": "view",
      "type": "function"
    },
    {
      "constant": true,
      "inputs": [
        {
          "internalType": "address",
          "name": "account",
          "type": "address"
        },
        {
          "internalType": "address",
          "name": "operator",
          "type": "address"
        }
      ],
      "name": "isApprovedForAll",
      "outputs": [
        {
          "internalType": "bool",
          "name": "",
          "type": "bool"
        }
      ],
      "payable": false,
      "stateMutability": "view",
      "type": "function"
    },
    {
      "constant": true,
      "inputs": [
        {
          "internalType": "address",
          "name": "account",
          "type": "address"
        }
      ],
      "name": "isMinter",
      "outputs": [
        {
          "internalType": "bool",
          "name": "",
          "type": "bool"
        }
      ],
      "payable": false,
      "stateMutability": "view",
      "type": "function"
    },
    {
      "constant": true,
      "inputs": [
        {
          "internalType": "address",
          "name": "account",
          "type": "address"
        }
      ],
      "name": "isPauser",
      "outputs": [
        {
          "internalType": "bool",
          "name": "",
          "type": "bool"
        }
      ],
      "payable": false,
      "stateMutability": "view",
      "type": "function"
    },
    {
      "constant": false,
      "inputs": [
        {
          "internalType": "uint256",
          "name": "_id",
          "type": "uint256"
        },
        {
          "internalType": "address",
          "name": "_to",
          "type": "address"
        },
        {
          "internalType": "uint256",
          "name": "_value",
          "type": "uint256"
        }
      ],
      "name": "mint",
      "outputs": [],
      "payable": false,
      "stateMutability": "nonpayable",
      "type": "function"
    },
    {
      "constant": false,
      "inputs": [
        {
          "internalType": "uint256",
          "name": "_id",
          "type": "uint256"
        },
        {
          "internalType": "address[]",
          "name": "_toList",
          "type": "address[]"
        },
        {
          "internalType": "uint256[]",
          "name": "_values",
          "type": "uint256[]"
        }
      ],
      "name": "mint",
      "outputs": [],
      "payable": false,
      "stateMutability": "nonpayable",
      "type": "function"
    },
    {
      "constant": false,
      "inputs": [
        {
          "internalType": "address",
          "name": "_to",
          "type": "address"
        },
        {
          "internalType": "uint256[]",
          "name": "_ids",
          "type": "uint256[]"
        },
        {
          "internalType": "uint256[]",
          "name": "_values",
          "type": "uint256[]"
        }
      ],
      "name": "mintBatch",
      "outputs": [],
      "payable": false,
      "stateMutability": "nonpayable",
      "type": "function"
    },
    {
      "constant": false,
      "inputs": [
        {
          "internalType": "uint256",
          "name": "_id",
          "type": "uint256"
        }
      ],
      "name": "pause",
      "outputs": [],
      "payable": false,
      "stateMutability": "nonpayable",
      "type": "function"
    },
    {
      "constant": false,
      "inputs": [],
      "name": "pause",
      "outputs": [],
      "payable": false,
      "stateMutability": "nonpayable",
      "type": "function"
    },
    {
      "constant": true,
      "inputs": [
        {
          "internalType": "uint256",
          "name": "_id",
          "type": "uint256"
        }
      ],
      "name": "paused",
      "outputs": [
        {
          "internalType": "bool",
          "name": "",
          "type": "bool"
        }
      ],
      "payable": false,
      "stateMutability": "view",
      "type": "function"
    },
    {
      "constant": true,
      "inputs": [],
      "name": "paused",
      "outputs": [
        {
          "internalType": "bool",
          "name": "",
          "type": "bool"
        }
      ],
      "payable": false,
      "stateMutability": "view",
      "type": "function"
    },
    {
      "constant": false,
      "inputs": [],
      "name": "renounceMinter",
      "outputs": [],
      "payable": false,
      "stateMutability": "nonpayable",
      "type": "function"
    },
    {
      "constant": false,
      "inputs": [],
      "name": "renouncePauser",
      "outputs": [],
      "payable": false,
      "stateMutability": "nonpayable",
      "type": "function"
    },
    {
      "constant": false,
      "inputs": [
        {
          "internalType": "address",
          "name": "from",
          "type": "address"
        },
        {
          "internalType": "address",
          "name": "to",
          "type": "address"
        },
        {
          "internalType": "uint256[]",
          "name": "ids",
          "type": "uint256[]"
        },
        {
          "internalType": "uint256[]",
          "name": "amounts",
          "type": "uint256[]"
        },
        {
          "internalType": "bytes",
          "name": "data",
          "type": "bytes"
        }
      ],
      "name": "safeBatchTransferFrom",
      "outputs": [],
      "payable": false,
      "stateMutability": "nonpayable",
      "type": "function"
    },
    {
      "constant": false,
      "inputs": [
        {
          "internalType": "address",
          "name": "from",
          "type": "address"
        },
        {
          "internalType": "address",
          "name": "to",
          "type": "address"
        },
        {
          "internalType": "uint256",
          "name": "id",
          "type": "uint256"
        },
        {
          "internalType": "uint256",
          "name": "amount",
          "type": "uint256"
        },
        {
          "internalType": "bytes",
          "name": "data",
          "type": "bytes"
        }
      ],
      "name": "safeTransferFrom",
      "outputs": [],
      "payable": false,
      "stateMutability": "nonpayable",
      "type": "function"
    },
    {
      "constant": false,
      "inputs": [
        {
          "internalType": "address",
          "name": "operator",
          "type": "address"
        },
        {
          "internalType": "bool",
          "name": "approved",
          "type": "bool"
        }
      ],
      "name": "setApprovalForAll",
      "outputs": [],
      "payable": false,
      "stateMutability": "nonpayable",
      "type": "function"
    },
    {
      "constant": true,
      "inputs": [
        {
          "internalType": "bytes4",
          "name": "interfaceId",
          "type": "bytes4"
        }
      ],
      "name": "supportsInterface",
      "outputs": [
        {
          "internalType": "bool",
          "name": "",
          "type": "bool"
        }
      ],
      "payable": false,
      "stateMutability": "view",
      "type": "function"
    },
    {
      "constant": true,
      "inputs": [
        {
          "internalType": "uint256",
          "name": "_tokenId",
          "type": "uint256"
        }
      ],
      "name": "totalSupply",
      "outputs": [
        {
          "internalType": "uint256",
          "name": "",
          "type": "uint256"
        }
      ],
      "payable": false,
      "stateMutability": "view",
      "type": "function"
    },
    {
      "constant": false,
      "inputs": [],
      "name": "unpause",
      "outputs": [],
      "payable": false,
      "stateMutability": "nonpayable",
      "type": "function"
    },
    {
      "constant": false,
      "inputs": [
        {
          "internalType": "uint256",
          "name": "_id",
          "type": "uint256"
        }
      ],
      "name": "unpause",
      "outputs": [],
      "payable": false,
      "stateMutability": "nonpayable",
      "type": "function"
    },
    {
      "constant": true,
      "inputs": [
        {
          "internalType": "uint256",
          "name": "tokenId",
          "type": "uint256"
        }
      ],
      "name": "uri",
      "outputs": [
        {
          "internalType": "string",
          "name": "",
          "type": "string"
        }
      ],
      "payable": false,
      "stateMutability": "view",
      "type": "function"
    }
  ],
  "bytecode": "0x60806040523480156200001157600080fd5b5060405162004df038038062004df0833981810160405260208110156200003757600080fd5b81019080805160405193929190846401000000008211156200005857600080fd5b9083019060208201858111156200006e57600080fd5b82516401000000008111828201881017156200008957600080fd5b82525081516020918201929091019080838360005b83811015620000b85781810151838201526020016200009e565b50505050905090810190601f168015620000e65780820380516001836020036101000a031916815260200191505b50604052508291508190506200010c6301ffc9a760e01b6001600160e01b03620001e216565b62000120816001600160e01b036200026716565b6200013b636433ca1f60e01b6001600160e01b03620001e216565b620001566303a24d0760e21b6001600160e01b03620001e216565b5062000172634f04a74f60e11b6001600160e01b03620001e216565b62000186336001600160e01b036200028016565b6006805460ff19169055620001ab630e8ffdb760e01b6001600160e01b03620001e216565b620001bf336001600160e01b03620002d216565b620001da6337f6767b60e21b6001600160e01b03620001e216565b5050620004bf565b6001600160e01b0319808216141562000242576040805162461bcd60e51b815260206004820152601b60248201527f4b495031333a20696e76616c696420696e746572666163652069640000000000604482015290519081900360640190fd5b6001600160e01b0319166000908152602081905260409020805460ff19166001179055565b80516200027c9060049060208401906200041a565b5050565b6200029b8160056200032460201b620044161790919060201c565b6040516001600160a01b038216907f6719d08c1888103bea251a4ed56406bd0c3e69723c8a1686e017e7bbe159b6f890600090a250565b620002ed8160086200032460201b620044161790919060201c565b6040516001600160a01b038216907f6ae172837ea30b801fbfcdd4108aa1d5bf8ff775444fd70256b44e6bf3dfc3f690600090a250565b6200033982826001600160e01b03620003b116565b156200038c576040805162461bcd60e51b815260206004820152601f60248201527f526f6c65733a206163636f756e7420616c72656164792068617320726f6c6500604482015290519081900360640190fd5b6001600160a01b0316600090815260209190915260409020805460ff19166001179055565b60006001600160a01b038216620003fa5760405162461bcd60e51b815260040180806020018281038252602281526020018062004dce6022913960400191505060405180910390fd5b506001600160a01b03166000908152602091909152604090205460ff1690565b828054600181600116156101000203166002900490600052602060002090601f016020900481019282601f106200045d57805160ff19168380011785556200048d565b828001600101855582156200048d579182015b828111156200048d57825182559160200191906001019062000470565b506200049b9291506200049f565b5090565b620004bc91905b808211156200049b5760008155600101620004a6565b90565b6148ff80620004cf6000396000f3fe608060405234801561001057600080fd5b50600436106101c25760003560e01c8063836a1040116100f9578063cd53d08e11610097578063e985e9c511610071578063e985e9c514610cb7578063f242432a14610cf2578063f5298aca14610dca578063fabc1cbc14610e09576101c2565b8063cd53d08e146109ff578063cfa84fc114610a45578063d81d0a1514610b73576101c2565b806398650275116100d3578063986502751461096c578063a22cb46514610974578063aa271e1a146109af578063bd85b039146109e2576101c2565b8063836a1040146108f25780638456cb5914610931578063983b2d5614610939576101c2565b806346fbf68e116101665780635c975abb116101405780635c975abb1461076b5780636b20c454146107735780636ef8d66d146108b757806382dc1ec4146108bf576101c2565b806346fbf68e1461050f5780634b068c78146105425780634e1273f4146105f4576101c2565b80630e89341c116101a25780630e89341c14610282578063136439dd146103145780632eb2c2d6146103335780633f4ba83a14610507576101c2565b8062dde10e146101c7578062fdd58e146101f857806301ffc9a714610243575b600080fd5b6101e4600480360360208110156101dd57600080fd5b5035610e26565b604080519115158252519081900360200190f35b6102316004803603604081101561020e57600080fd5b5073ffffffffffffffffffffffffffffffffffffffff8135169060200135610e3e565b60408051918252519081900360200190f35b6101e46004803603602081101561025957600080fd5b50357fffffffff0000000000000000000000000000000000000000000000000000000016610ee1565b61029f6004803603602081101561029857600080fd5b5035610f18565b6040805160208082528351818301528351919283929083019185019080838360005b838110156102d95781810151838201526020016102c1565b50505050905090810190601f1680156103065780820380516001836020036101000a031916815260200191505b509250505060405180910390f35b6103316004803603602081101561032a57600080fd5b5035611096565b005b610331600480360360a081101561034957600080fd5b73ffffffffffffffffffffffffffffffffffffffff823581169260208101359091169181019060608101604082013564010000000081111561038a57600080fd5b82018360208201111561039c57600080fd5b803590602001918460208302840111640100000000831117156103be57600080fd5b919080806020026020016040519081016040528093929190818152602001838360200280828437600092019190915250929594936020810193503591505064010000000081111561040e57600080fd5b82018360208201111561042057600080fd5b8035906020019184602083028401116401000000008311171561044257600080fd5b919080806020026020016040519081016040528093929190818152602001838360200280828437600092019190915250929594936020810193503591505064010000000081111561049257600080fd5b8201836020820111156104a457600080fd5b803590602001918460018302840111640100000000831117156104c657600080fd5b91908080601f0160208091040260200160405190810160405280939291908181526020018383808284376000920191909152509295506111ea945050505050565b61033161160d565b6101e46004803603602081101561052557600080fd5b503573ffffffffffffffffffffffffffffffffffffffff16611739565b6101e46004803603606081101561055857600080fd5b81359160208101359181019060608101604082013564010000000081111561057f57600080fd5b82018360208201111561059157600080fd5b803590602001918460018302840111640100000000831117156105b357600080fd5b91908080601f016020809104026020016040519081016040528093929190818152602001838380828437600092019190915250929550611752945050505050565b61071b6004803603604081101561060a57600080fd5b81019060208101813564010000000081111561062557600080fd5b82018360208201111561063757600080fd5b8035906020019184602083028401116401000000008311171561065957600080fd5b91908080602002602001604051908101604052809392919081815260200183836020028082843760009201919091525092959493602081019350359150506401000000008111156106a957600080fd5b8201836020820111156106bb57600080fd5b803590602001918460208302840111640100000000831117156106dd57600080fd5b919080806020026020016040519081016040528093929190818152602001838360200280828437600092019190915250929550611945945050505050565b60408051602080825283518183015283519192839290830191858101910280838360005b8381101561075757818101518382015260200161073f565b505050509050019250505060405180910390f35b6101e4611b14565b6103316004803603606081101561078957600080fd5b73ffffffffffffffffffffffffffffffffffffffff82351691908101906040810160208201356401000000008111156107c157600080fd5b8201836020820111156107d357600080fd5b803590602001918460208302840111640100000000831117156107f557600080fd5b919080806020026020016040519081016040528093929190818152602001838360200280828437600092019190915250929594936020810193503591505064010000000081111561084557600080fd5b82018360208201111561085757600080fd5b8035906020019184602083028401116401000000008311171561087957600080fd5b919080806020026020016040519081016040528093929190818152602001838360200280828437600092019190915250929550611b1e945050505050565b610331611bcb565b610331600480360360208110156108d557600080fd5b503573ffffffffffffffffffffffffffffffffffffffff16611bd6565b6103316004803603606081101561090857600080fd5b5080359073ffffffffffffffffffffffffffffffffffffffff6020820135169060400135611c40565b610331611d2d565b6103316004803603602081101561094f57600080fd5b503573ffffffffffffffffffffffffffffffffffffffff16611e5d565b610331611ec4565b6103316004803603604081101561098a57600080fd5b5073ffffffffffffffffffffffffffffffffffffffff81351690602001351515611ecd565b6101e4600480360360208110156109c557600080fd5b503573ffffffffffffffffffffffffffffffffffffffff16612028565b610231600480360360208110156109f857600080fd5b503561203b565b610a1c60048036036020811015610a1557600080fd5b503561204d565b6040805173ffffffffffffffffffffffffffffffffffffffff9092168252519081900360200190f35b61033160048036036060811015610a5b57600080fd5b81359190810190604081016020820135640100000000811115610a7d57600080fd5b820183602082011115610a8f57600080fd5b80359060200191846020830284011164010000000083111715610ab157600080fd5b9190808060200260200160405190810160405280939291908181526020018383602002808284376000920191909152509295949360208101935035915050640100000000811115610b0157600080fd5b820183602082011115610b1357600080fd5b80359060200191846020830284011164010000000083111715610b3557600080fd5b919080806020026020016040519081016040528093929190818152602001838360200280828437600092019190915250929550612075945050505050565b61033160048036036060811015610b8957600080fd5b73ffffffffffffffffffffffffffffffffffffffff8235169190810190604081016020820135640100000000811115610bc157600080fd5b820183602082011115610bd357600080fd5b80359060200191846020830284011164010000000083111715610bf557600080fd5b9190808060200260200160405190810160405280939291908181526020018383602002808284376000920191909152509295949360208101935035915050640100000000811115610c4557600080fd5b820183602082011115610c5757600080fd5b80359060200191846020830284011164010000000083111715610c7957600080fd5b919080806020026020016040519081016040528093929190818152602001838360200280828437600092019190915250929550612208945050505050565b6101e460048036036040811015610ccd57600080fd5b5073ffffffffffffffffffffffffffffffffffffffff8135811691602001351661231d565b610331600480360360a0811015610d0857600080fd5b73ffffffffffffffffffffffffffffffffffffffff823581169260208101359091169160408201359160608101359181019060a081016080820135640100000000811115610d5557600080fd5b820183602082011115610d6757600080fd5b80359060200191846001830284011164010000000083111715610d8957600080fd5b91908080601f016020809104026020016040519081016040528093929190818152602001838380828437600092019190915250929550612358945050505050565b61033160048036036060811015610de057600080fd5b5073ffffffffffffffffffffffffffffffffffffffff8135169060208101359060400135612600565b61033160048036036020811015610e1f57600080fd5b50356126a8565b60008181526007602052604090205460ff165b919050565b600073ffffffffffffffffffffffffffffffffffffffff8316610eac576040517f08c379a000000000000000000000000000000000000000000000000000000000815260040180806020018281038252602981526020018061460f6029913960400191505060405180910390fd5b50600090815260016020908152604080832073ffffffffffffffffffffffffffffffffffffffff949094168352929052205490565b7fffffffff000000000000000000000000000000000000000000000000000000001660009081526020819052604090205460ff1690565b6000818152600a60209081526040918290208054835160026001831615610100027fffffffffffffffffffffffffffffffffffffffffffffffffffffffffffffffff0190921691909104601f81018490048402820184019094528381526060938493919291830182828015610fce5780601f10610fa357610100808354040283529160200191610fce565b820191906000526020600020905b815481529060010190602001808311610fb157829003601f168201915b505050505090508051600014610fe5579050610e39565b6004805460408051602060026001851615610100027fffffffffffffffffffffffffffffffffffffffffffffffffffffffffffffffff0190941693909304601f810184900484028201840190925281815292918301828280156110895780601f1061105e57610100808354040283529160200191611089565b820191906000526020600020905b81548152906001019060200180831161106c57829003601f168201915b5050505050915050919050565b61109f33611739565b6110f4576040517f08c379a000000000000000000000000000000000000000000000000000000000815260040180806020018281038252603081526020018061459c6030913960400191505060405180910390fd5b60008181526007602052604090205460ff161561117257604080517f08c379a000000000000000000000000000000000000000000000000000000000815260206004820152601d60248201527f4b495033375061757361626c653a20616c726561647920706175736564000000604482015290519081900360640190fd5b60008181526007602090815260409182902080547fffffffffffffffffffffffffffffffffffffffffffffffffffffffffffffff001660011790558151838152339181019190915281517fabdb1c9133626eb4f8c5f2ec7e3c60a969a2fb148a0c341a3cf6597242c8f8f5929181900390910190a150565b8151835114611244576040517f08c379a00000000000000000000000000000000000000000000000000000000081526004018080602001828103825260268152602001806146886026913960400191505060405180910390fd5b73ffffffffffffffffffffffffffffffffffffffff84166112b0576040517f08c379a00000000000000000000000000000000000000000000000000000000081526004018080602001828103825260238152602001806148216023913960400191505060405180910390fd5b6112b86127fd565b73ffffffffffffffffffffffffffffffffffffffff168573ffffffffffffffffffffffffffffffffffffffff1614806112fd57506112fd856112f86127fd565b61231d565b611352576040517f08c379a00000000000000000000000000000000000000000000000000000000081526004018080602001828103825260308152602001806146ae6030913960400191505060405180910390fd5b600061135c6127fd565b905061136c818787878787612801565b60005b84518110156114a157600085828151811061138657fe5b60200260200101519050600085838151811061139e57fe5b60200260200101519050611425816040518060600160405280602881526020016146de602891396001600086815260200190815260200160002060008d73ffffffffffffffffffffffffffffffffffffffff1673ffffffffffffffffffffffffffffffffffffffff168152602001908152602001600020546129009092919063ffffffff16565b600083815260016020908152604080832073ffffffffffffffffffffffffffffffffffffffff8e811685529252808320939093558a168152205461146990826129b1565b600092835260016020818152604080862073ffffffffffffffffffffffffffffffffffffffff8d16875290915290932055500161136f565b508473ffffffffffffffffffffffffffffffffffffffff168673ffffffffffffffffffffffffffffffffffffffff168273ffffffffffffffffffffffffffffffffffffffff167f4a39dc06d4c0dbc64b70af90fd698a233a518aa5d07e595d983b8c0526c8f7fb8787604051808060200180602001838103835285818151815260200191508051906020019060200280838360005b8381101561154e578181015183820152602001611536565b50505050905001838103825284818151815260200191508051906020019060200280838360005b8381101561158d578181015183820152602001611575565b5050505090500194505050505060405180910390a46115b0818787878787612a25565b611605576040517f08c379a00000000000000000000000000000000000000000000000000000000081526004018080602001828103825260368152602001806148446036913960400191505060405180910390fd5b505050505050565b61161633611739565b61166b576040517f08c379a000000000000000000000000000000000000000000000000000000000815260040180806020018281038252603081526020018061459c6030913960400191505060405180910390fd5b60065460ff166116dc57604080517f08c379a000000000000000000000000000000000000000000000000000000000815260206004820152601460248201527f5061757361626c653a206e6f7420706175736564000000000000000000000000604482015290519081900360640190fd5b600680547fffffffffffffffffffffffffffffffffffffffffffffffffffffffffffffff001690556040805133815290517f5db9ee0a495bf2e6ff9c91a7834c1ba4fdd244a5e8aa4e537bd38aeae4b073aa9181900360200190a1565b600061174c60058363ffffffff61309316565b92915050565b600061175d33612028565b6117b2576040517f08c379a00000000000000000000000000000000000000000000000000000000081526004018080602001828103825260308152602001806147066030913960400191505060405180910390fd5b6117bb8461312e565b1561182757604080517f08c379a000000000000000000000000000000000000000000000000000000000815260206004820152601c60248201527f4b495033373a20746f6b656e20616c7265616479206372656174656400000000604482015290519081900360640190fd5b600084815260096020908152604080832080547fffffffffffffffffffffffff00000000000000000000000000000000000000001633908117909155815192830190915291815261187c919086908690613158565b81511561193e576000848152600a6020908152604090912083516118a2928501906144dc565b50837f6bb7ff708619ba0610cba295a58592e0451dee2622938c8755667688daf3529b836040518080602001828103825283818151815260200191508051906020019080838360005b838110156119035781810151838201526020016118eb565b50505050905090810190601f1680156119305780820380516001836020036101000a031916815260200191505b509250505060405180910390a25b9392505050565b606081518351146119a1576040517f08c379a00000000000000000000000000000000000000000000000000000000081526004018080602001828103825260278152602001806145756027913960400191505060405180910390fd5b606083516040519080825280602002602001820160405280156119ce578160200160208202803883390190505b50905060005b8451811015611b0c57600073ffffffffffffffffffffffffffffffffffffffff16858281518110611a0157fe5b602002602001015173ffffffffffffffffffffffffffffffffffffffff161415611a76576040517f08c379a000000000000000000000000000000000000000000000000000000000815260040180806020018281038252602f81526020018061487a602f913960400191505060405180910390fd5b60016000858381518110611a8657fe5b602002602001015181526020019081526020016000206000868381518110611aaa57fe5b602002602001015173ffffffffffffffffffffffffffffffffffffffff1673ffffffffffffffffffffffffffffffffffffffff16815260200190815260200160002054828281518110611af957fe5b60209081029190910101526001016119d4565b509392505050565b60065460ff165b90565b611b266127fd565b73ffffffffffffffffffffffffffffffffffffffff168373ffffffffffffffffffffffffffffffffffffffff161480611b665750611b66836112f86127fd565b611bbb576040517f08c379a00000000000000000000000000000000000000000000000000000000081526004018080602001828103825260278152602001806147fa6027913960400191505060405180910390fd5b611bc6838383613357565b505050565b611bd4336136fe565b565b611bdf33611739565b611c34576040517f08c379a000000000000000000000000000000000000000000000000000000000815260040180806020018281038252603081526020018061459c6030913960400191505060405180910390fd5b611c3d81613753565b50565b611c4933612028565b611c9e576040517f08c379a00000000000000000000000000000000000000000000000000000000081526004018080602001828103825260308152602001806147066030913960400191505060405180910390fd5b611ca78361312e565b611d1257604080517f08c379a000000000000000000000000000000000000000000000000000000000815260206004820152601860248201527f4b495033373a206e6f6e6578697374656e7420746f6b656e0000000000000000604482015290519081900360640190fd5b611bc682848360405180602001604052806000815250613158565b611d3633611739565b611d8b576040517f08c379a000000000000000000000000000000000000000000000000000000000815260040180806020018281038252603081526020018061459c6030913960400191505060405180910390fd5b60065460ff1615611dfd57604080517f08c379a000000000000000000000000000000000000000000000000000000000815260206004820152601060248201527f5061757361626c653a2070617573656400000000000000000000000000000000604482015290519081900360640190fd5b600680547fffffffffffffffffffffffffffffffffffffffffffffffffffffffffffffff001660011790556040805133815290517f62e78cea01bee320cd4e420270b5ea74000d11b0c9f74754ebdbfc544b05a2589181900360200190a1565b611e6633612028565b611ebb576040517f08c379a00000000000000000000000000000000000000000000000000000000081526004018080602001828103825260308152602001806147066030913960400191505060405180910390fd5b611c3d816137a8565b611bd4336137fd565b8173ffffffffffffffffffffffffffffffffffffffff16611eec6127fd565b73ffffffffffffffffffffffffffffffffffffffff161415611f59576040517f08c379a00000000000000000000000000000000000000000000000000000000081526004018080602001828103825260278152602001806147816027913960400191505060405180910390fd5b8060026000611f666127fd565b73ffffffffffffffffffffffffffffffffffffffff90811682526020808301939093526040918201600090812091871680825291909352912080547fffffffffffffffffffffffffffffffffffffffffffffffffffffffffffffff001692151592909217909155611fd56127fd565b604080518415158152905173ffffffffffffffffffffffffffffffffffffffff92909216917f17307eab39ab6107e8899845ad3d59bd9653f200f220920489ca2b5937696c319181900360200190a35050565b600061174c60088363ffffffff61309316565b60009081526003602052604090205490565b60096020526000908152604090205473ffffffffffffffffffffffffffffffffffffffff1681565b61207e33612028565b6120d3576040517f08c379a00000000000000000000000000000000000000000000000000000000081526004018080602001828103825260308152602001806147066030913960400191505060405180910390fd5b6120dc8361312e565b61214757604080517f08c379a000000000000000000000000000000000000000000000000000000000815260206004820152601860248201527f4b495033373a206e6f6e6578697374656e7420746f6b656e0000000000000000604482015290519081900360640190fd5b80518251146121a1576040517f08c379a000000000000000000000000000000000000000000000000000000000815260040180806020018281038252602981526020018061465f6029913960400191505060405180910390fd5b60005b82518110156122025760008382815181106121bb57fe5b6020026020010151905060008383815181106121d357fe5b602002602001015190506121f882878360405180602001604052806000815250613158565b50506001016121a4565b50505050565b61221133612028565b612266576040517f08c379a00000000000000000000000000000000000000000000000000000000081526004018080602001828103825260308152602001806147066030913960400191505060405180910390fd5b60005b82518110156123015761228e83828151811061228157fe5b602002602001015161312e565b6122f957604080517f08c379a000000000000000000000000000000000000000000000000000000000815260206004820152601860248201527f4b495033373a206e6f6e6578697374656e7420746f6b656e0000000000000000604482015290519081900360640190fd5b600101612269565b50611bc683838360405180602001604052806000815250613852565b73ffffffffffffffffffffffffffffffffffffffff918216600090815260026020908152604080832093909416825291909152205460ff1690565b73ffffffffffffffffffffffffffffffffffffffff84166123c4576040517f08c379a00000000000000000000000000000000000000000000000000000000081526004018080602001828103825260238152602001806148216023913960400191505060405180910390fd5b6123cc6127fd565b73ffffffffffffffffffffffffffffffffffffffff168573ffffffffffffffffffffffffffffffffffffffff16148061240c575061240c856112f86127fd565b612461576040517f08c379a00000000000000000000000000000000000000000000000000000000081526004018080602001828103825260278152602001806147fa6027913960400191505060405180910390fd5b600061246b6127fd565b905061248b81878761247c88613c14565b61248588613c14565b87612801565b6124e5836040518060600160405280602881526020016146de60289139600087815260016020908152604080832073ffffffffffffffffffffffffffffffffffffffff8d168452909152902054919063ffffffff61290016565b600085815260016020908152604080832073ffffffffffffffffffffffffffffffffffffffff8b8116855292528083209390935587168152205461252990846129b1565b600085815260016020908152604080832073ffffffffffffffffffffffffffffffffffffffff808b168086529184529382902094909455805188815291820187905280518a8416938616927fc3d58168c5ae7397731d063d5bbf3d657854427343f4c083240f7aacaa2d0f6292908290030190a46125ab818787878787613c58565b611605576040517f08c379a00000000000000000000000000000000000000000000000000000000081526004018080602001828103825260308152602001806147ca6030913960400191505060405180910390fd5b6126086127fd565b73ffffffffffffffffffffffffffffffffffffffff168373ffffffffffffffffffffffffffffffffffffffff1614806126485750612648836112f86127fd565b61269d576040517f08c379a00000000000000000000000000000000000000000000000000000000081526004018080602001828103825260278152602001806147fa6027913960400191505060405180910390fd5b611bc6838383614187565b6126b133611739565b612706576040517f08c379a000000000000000000000000000000000000000000000000000000000815260040180806020018281038252603081526020018061459c6030913960400191505060405180910390fd5b60008181526007602052604090205460ff16151560011461278857604080517f08c379a000000000000000000000000000000000000000000000000000000000815260206004820152601f60248201527f4b495033375061757361626c653a20616c726561647920756e70617573656400604482015290519081900360640190fd5b60008181526007602090815260409182902080547fffffffffffffffffffffffffffffffffffffffffffffffffffffffffffffff001690558151838152339181019190915281517ffe9b5e5216db9de81757f43d20f846bea509c040a560d136b8263dd8cd764238929181900390910190a150565b3390565b612809611b14565b1561285f576040517f08c379a000000000000000000000000000000000000000000000000000000000815260040180806020018281038252602a815260200180614757602a913960400191505060405180910390fd5b60005b83518110156128f7576007600085838151811061287b57fe5b60209081029190910181015182528101919091526040016000205460ff16156128ef576040517f08c379a00000000000000000000000000000000000000000000000000000000081526004018080602001828103825260228152602001806148a96022913960400191505060405180910390fd5b600101612862565b50505050505050565b600081848411156129a9576040517f08c379a00000000000000000000000000000000000000000000000000000000081526004018080602001828103825283818151815260200191508051906020019080838360005b8381101561296e578181015183820152602001612956565b50505050905090810190601f16801561299b5780820380516001836020036101000a031916815260200191505b509250505060405180910390fd5b505050900390565b60008282018381101561193e57604080517f08c379a000000000000000000000000000000000000000000000000000000000815260206004820152601b60248201527f536166654d6174683a206164646974696f6e206f766572666c6f770000000000604482015290519081900360640190fd5b6000806060612a498773ffffffffffffffffffffffffffffffffffffffff16614364565b612a5857600192505050613089565b8673ffffffffffffffffffffffffffffffffffffffff1663bc197c8160e01b8a8a898989604051602401808673ffffffffffffffffffffffffffffffffffffffff1673ffffffffffffffffffffffffffffffffffffffff1681526020018573ffffffffffffffffffffffffffffffffffffffff1673ffffffffffffffffffffffffffffffffffffffff168152602001806020018060200180602001848103845287818151815260200191508051906020019060200280838360005b83811015612b2b578181015183820152602001612b13565b50505050905001848103835286818151815260200191508051906020019060200280838360005b83811015612b6a578181015183820152602001612b52565b50505050905001848103825285818151815260200191508051906020019080838360005b83811015612ba6578181015183820152602001612b8e565b50505050905090810190601f168015612bd35780820380516001836020036101000a031916815260200191505b5098505050505050505050604051602081830303815290604052907bffffffffffffffffffffffffffffffffffffffffffffffffffffffff19166020820180517bffffffffffffffffffffffffffffffffffffffffffffffffffffffff83818316178352505050506040518082805190602001908083835b60208310612c8857805182527fffffffffffffffffffffffffffffffffffffffffffffffffffffffffffffffe09092019160209182019101612c4b565b6001836020036101000a0380198251168184511680821785525050505050509050019150506000604051808303816000865af19150503d8060008114612cea576040519150601f19603f3d011682016040523d82523d6000602084013e612cef565b606091505b508051919350915015801590612d5d575080517fbc197c81000000000000000000000000000000000000000000000000000000009060208084019190811015612d3757600080fd5b50517fffffffff0000000000000000000000000000000000000000000000000000000016145b15612d6d57600192505050613089565b8673ffffffffffffffffffffffffffffffffffffffff16639b49e33260e01b8a8a898989604051602401808673ffffffffffffffffffffffffffffffffffffffff1673ffffffffffffffffffffffffffffffffffffffff1681526020018573ffffffffffffffffffffffffffffffffffffffff1673ffffffffffffffffffffffffffffffffffffffff168152602001806020018060200180602001848103845287818151815260200191508051906020019060200280838360005b83811015612e40578181015183820152602001612e28565b50505050905001848103835286818151815260200191508051906020019060200280838360005b83811015612e7f578181015183820152602001612e67565b50505050905001848103825285818151815260200191508051906020019080838360005b83811015612ebb578181015183820152602001612ea3565b50505050905090810190601f168015612ee85780820380516001836020036101000a031916815260200191505b5098505050505050505050604051602081830303815290604052907bffffffffffffffffffffffffffffffffffffffffffffffffffffffff19166020820180517bffffffffffffffffffffffffffffffffffffffffffffffffffffffff83818316178352505050506040518082805190602001908083835b60208310612f9d57805182527fffffffffffffffffffffffffffffffffffffffffffffffffffffffffffffffe09092019160209182019101612f60565b6001836020036101000a0380198251168184511680821785525050505050509050019150506000604051808303816000865af19150503d8060008114612fff576040519150601f19603f3d011682016040523d82523d6000602084013e613004565b606091505b508051919350915015801590613072575080517f9b49e33200000000000000000000000000000000000000000000000000000000906020808401919081101561304c57600080fd5b50517fffffffff0000000000000000000000000000000000000000000000000000000016145b1561308257600192505050613089565b6000925050505b9695505050505050565b600073ffffffffffffffffffffffffffffffffffffffff8216613101576040517f08c379a00000000000000000000000000000000000000000000000000000000081526004018080602001828103825260228152602001806147a86022913960400191505060405180910390fd5b5073ffffffffffffffffffffffffffffffffffffffff166000908152602091909152604090205460ff1690565b60009081526009602052604090205473ffffffffffffffffffffffffffffffffffffffff16151590565b73ffffffffffffffffffffffffffffffffffffffff84166131da57604080517f08c379a000000000000000000000000000000000000000000000000000000000815260206004820152601f60248201527f4b495033373a206d696e7420746f20746865207a65726f206164647265737300604482015290519081900360640190fd5b60006131e46127fd565b90506131f68160008761247c88613c14565b600084815260016020908152604080832073ffffffffffffffffffffffffffffffffffffffff89168452909152902054613236908463ffffffff6129b116565b600085815260016020908152604080832073ffffffffffffffffffffffffffffffffffffffff8a168452825280832093909355868252600390522054613282908463ffffffff6129b116565b6000858152600360209081526040808320939093558251878152908101869052825173ffffffffffffffffffffffffffffffffffffffff808a1694908616927fc3d58168c5ae7397731d063d5bbf3d657854427343f4c083240f7aacaa2d0f62929081900390910190a46132fb81600087878787613c58565b613350576040517f08c379a00000000000000000000000000000000000000000000000000000000081526004018080602001828103825260308152602001806147ca6030913960400191505060405180910390fd5b5050505050565b73ffffffffffffffffffffffffffffffffffffffff83166133c3576040517f08c379a00000000000000000000000000000000000000000000000000000000081526004018080602001828103825260218152602001806145ee6021913960400191505060405180910390fd5b805182511461341d576040517f08c379a00000000000000000000000000000000000000000000000000000000081526004018080602001828103825260268152602001806146886026913960400191505060405180910390fd5b60006134276127fd565b905061344781856000868660405180602001604052806000815250612801565b60005b83518110156135f6576134f683828151811061346257fe5b60200260200101516040518060600160405280602281526020016145cc602291396001600088868151811061349357fe5b6020026020010151815260200190815260200160002060008973ffffffffffffffffffffffffffffffffffffffff1673ffffffffffffffffffffffffffffffffffffffff168152602001908152602001600020546129009092919063ffffffff16565b6001600086848151811061350657fe5b6020026020010151815260200190815260200160002060008773ffffffffffffffffffffffffffffffffffffffff1673ffffffffffffffffffffffffffffffffffffffff168152602001908152602001600020819055506135c383828151811061356c57fe5b6020026020010151604051806060016040528060278152602001614638602791396003600088868151811061359d57fe5b60200260200101518152602001908152602001600020546129009092919063ffffffff16565b600360008684815181106135d357fe5b60209081029190910181015182528101919091526040016000205560010161344a565b50600073ffffffffffffffffffffffffffffffffffffffff168473ffffffffffffffffffffffffffffffffffffffff168273ffffffffffffffffffffffffffffffffffffffff167f4a39dc06d4c0dbc64b70af90fd698a233a518aa5d07e595d983b8c0526c8f7fb8686604051808060200180602001838103835285818151815260200191508051906020019060200280838360005b838110156136a457818101518382015260200161368c565b50505050905001838103825284818151815260200191508051906020019060200280838360005b838110156136e35781810151838201526020016136cb565b5050505090500194505050505060405180910390a450505050565b61370f60058263ffffffff61436a16565b60405173ffffffffffffffffffffffffffffffffffffffff8216907fcd265ebaf09df2871cc7bd4133404a235ba12eff2041bb89d9c714a2621c7c7e90600090a250565b61376460058263ffffffff61441616565b60405173ffffffffffffffffffffffffffffffffffffffff8216907f6719d08c1888103bea251a4ed56406bd0c3e69723c8a1686e017e7bbe159b6f890600090a250565b6137b960088263ffffffff61441616565b60405173ffffffffffffffffffffffffffffffffffffffff8216907f6ae172837ea30b801fbfcdd4108aa1d5bf8ff775444fd70256b44e6bf3dfc3f690600090a250565b61380e60088263ffffffff61436a16565b60405173ffffffffffffffffffffffffffffffffffffffff8216907fe94479a9f7e1952cc78f2d6baab678adc1b772d936c6583def489e524cb6669290600090a250565b73ffffffffffffffffffffffffffffffffffffffff84166138d457604080517f08c379a000000000000000000000000000000000000000000000000000000000815260206004820152601f60248201527f4b495033373a206d696e7420746f20746865207a65726f206164647265737300604482015290519081900360640190fd5b815183511461392e576040517f08c379a00000000000000000000000000000000000000000000000000000000081526004018080602001828103825260268152602001806146886026913960400191505060405180910390fd5b60006139386127fd565b905061394981600087878787612801565b60005b8451811015613aae576139de6001600087848151811061396857fe5b6020026020010151815260200190815260200160002060008873ffffffffffffffffffffffffffffffffffffffff1673ffffffffffffffffffffffffffffffffffffffff168152602001908152602001600020548583815181106139c857fe5b60200260200101516129b190919063ffffffff16565b600160008784815181106139ee57fe5b6020026020010151815260200190815260200160002060008873ffffffffffffffffffffffffffffffffffffffff1673ffffffffffffffffffffffffffffffffffffffff16815260200190815260200160002081905550613a7b60036000878481518110613a5857fe5b60200260200101518152602001908152602001600020548583815181106139c857fe5b60036000878481518110613a8b57fe5b60209081029190910181015182528101919091526040016000205560010161394c565b508473ffffffffffffffffffffffffffffffffffffffff16600073ffffffffffffffffffffffffffffffffffffffff168273ffffffffffffffffffffffffffffffffffffffff167f4a39dc06d4c0dbc64b70af90fd698a233a518aa5d07e595d983b8c0526c8f7fb8787604051808060200180602001838103835285818151815260200191508051906020019060200280838360005b83811015613b5c578181015183820152602001613b44565b50505050905001838103825284818151815260200191508051906020019060200280838360005b83811015613b9b578181015183820152602001613b83565b5050505090500194505050505060405180910390a4613bbf81600087878787612a25565b613350576040517f08c379a00000000000000000000000000000000000000000000000000000000081526004018080602001828103825260368152602001806148446036913960400191505060405180910390fd5b604080516001808252818301909252606091829190602080830190803883390190505090508281600081518110613c4757fe5b602090810291909101015292915050565b6000806060613c7c8773ffffffffffffffffffffffffffffffffffffffff16614364565b613c8b57600192505050613089565b8673ffffffffffffffffffffffffffffffffffffffff1663f23a6e6160e01b8a8a898989604051602401808673ffffffffffffffffffffffffffffffffffffffff1673ffffffffffffffffffffffffffffffffffffffff1681526020018573ffffffffffffffffffffffffffffffffffffffff1673ffffffffffffffffffffffffffffffffffffffff16815260200184815260200183815260200180602001828103825283818151815260200191508051906020019080838360005b83811015613d5f578181015183820152602001613d47565b50505050905090810190601f168015613d8c5780820380516001836020036101000a031916815260200191505b509650505050505050604051602081830303815290604052907bffffffffffffffffffffffffffffffffffffffffffffffffffffffff19166020820180517bffffffffffffffffffffffffffffffffffffffffffffffffffffffff83818316178352505050506040518082805190602001908083835b60208310613e3f57805182527fffffffffffffffffffffffffffffffffffffffffffffffffffffffffffffffe09092019160209182019101613e02565b6001836020036101000a0380198251168184511680821785525050505050509050019150506000604051808303816000865af19150503d8060008114613ea1576040519150601f19603f3d011682016040523d82523d6000602084013e613ea6565b606091505b508051919350915015801590613f14575080517ff23a6e61000000000000000000000000000000000000000000000000000000009060208084019190811015613eee57600080fd5b50517fffffffff0000000000000000000000000000000000000000000000000000000016145b15613f2457600192505050613089565b8673ffffffffffffffffffffffffffffffffffffffff1663e78b332560e01b8a8a898989604051602401808673ffffffffffffffffffffffffffffffffffffffff1673ffffffffffffffffffffffffffffffffffffffff1681526020018573ffffffffffffffffffffffffffffffffffffffff1673ffffffffffffffffffffffffffffffffffffffff16815260200184815260200183815260200180602001828103825283818151815260200191508051906020019080838360005b83811015613ff8578181015183820152602001613fe0565b50505050905090810190601f1680156140255780820380516001836020036101000a031916815260200191505b509650505050505050604051602081830303815290604052907bffffffffffffffffffffffffffffffffffffffffffffffffffffffff19166020820180517bffffffffffffffffffffffffffffffffffffffffffffffffffffffff83818316178352505050506040518082805190602001908083835b602083106140d857805182527fffffffffffffffffffffffffffffffffffffffffffffffffffffffffffffffe0909201916020918201910161409b565b6001836020036101000a0380198251168184511680821785525050505050509050019150506000604051808303816000865af19150503d806000811461413a576040519150601f19603f3d011682016040523d82523d6000602084013e61413f565b606091505b508051919350915015801590613072575080517fe78b332500000000000000000000000000000000000000000000000000000000906020808401919081101561304c57600080fd5b73ffffffffffffffffffffffffffffffffffffffff83166141f3576040517f08c379a00000000000000000000000000000000000000000000000000000000081526004018080602001828103825260218152602001806145ee6021913960400191505060405180910390fd5b60006141fd6127fd565b905061422d8185600061420f87613c14565b61421887613c14565b60405180602001604052806000815250612801565b614287826040518060600160405280602281526020016145cc60229139600086815260016020908152604080832073ffffffffffffffffffffffffffffffffffffffff8b168452909152902054919063ffffffff61290016565b600084815260016020908152604080832073ffffffffffffffffffffffffffffffffffffffff891684528252918290209290925580516060810190915260278082526142f4928592919061463890830139600086815260036020526040902054919063ffffffff61290016565b60008481526003602090815260408083209390935582518681529081018590528251919273ffffffffffffffffffffffffffffffffffffffff88811693908616927fc3d58168c5ae7397731d063d5bbf3d657854427343f4c083240f7aacaa2d0f6292908290030190a450505050565b3b151590565b6143748282613093565b6143c9576040517f08c379a00000000000000000000000000000000000000000000000000000000081526004018080602001828103825260218152602001806147366021913960400191505060405180910390fd5b73ffffffffffffffffffffffffffffffffffffffff1660009081526020919091526040902080547fffffffffffffffffffffffffffffffffffffffffffffffffffffffffffffff00169055565b6144208282613093565b1561448c57604080517f08c379a000000000000000000000000000000000000000000000000000000000815260206004820152601f60248201527f526f6c65733a206163636f756e7420616c72656164792068617320726f6c6500604482015290519081900360640190fd5b73ffffffffffffffffffffffffffffffffffffffff1660009081526020919091526040902080547fffffffffffffffffffffffffffffffffffffffffffffffffffffffffffffff00166001179055565b828054600181600116156101000203166002900490600052602060002090601f016020900481019282601f1061451d57805160ff191683800117855561454a565b8280016001018555821561454a579182015b8281111561454a57825182559160200191906001019061452f565b5061455692915061455a565b5090565b611b1b91905b80821115614556576000815560010161456056fe4b495033373a206163636f756e747320616e6420696473206c656e677468206d69736d61746368506175736572526f6c653a2063616c6c657220646f6573206e6f742068617665207468652050617573657220726f6c654b495033373a206275726e20616d6f756e7420657863656564732062616c616e63654b495033373a206275726e2066726f6d20746865207a65726f20616464726573734b495033373a2062616c616e636520717565727920666f7220746865207a65726f20616464726573734b495033373a206275726e20616d6f756e74206578636565647320746f74616c20737570706c794b495033373a20746f4c69737420616e64205f76616c756573206c656e677468206d69736d617463684b495033373a2069647320616e6420616d6f756e7473206c656e677468206d69736d617463684b495033373a207472616e736665722063616c6c6572206973206e6f74206f776e6572206e6f7220617070726f7665644b495033373a20696e73756666696369656e742062616c616e636520666f72207472616e736665724d696e746572526f6c653a2063616c6c657220646f6573206e6f74206861766520746865204d696e74657220726f6c65526f6c65733a206163636f756e7420646f6573206e6f74206861766520726f6c654b495033375061757361626c653a20746f6b656e207472616e73666572207768696c65207061757365644b495033373a2073657474696e6720617070726f76616c2073746174757320666f722073656c66526f6c65733a206163636f756e7420697320746865207a65726f20616464726573734b495033373a207472616e7366657220746f206e6f6e204b49503337526563656976657220696d706c656d656e7465724b495033373a2063616c6c6572206973206e6f74206f776e6572206e6f7220617070726f7665644b495033373a207472616e7366657220746f20746865207a65726f20616464726573734b495033373a206261746368207472616e7366657220746f206e6f6e204b49503337526563656976657220696d706c656d656e7465724b495033373a2062617463682062616c616e636520717565727920666f7220746865207a65726f20616464726573734b495033375061757361626c653a2074686520746f6b656e20697320706175736564a265627a7a72315820a0fbabd5be56076d74c142cda605c14e07722c3ed659f596b1ceaaf024e1716264736f6c63430005110032526f6c65733a206163636f756e7420697320746865207a65726f2061646472657373",
  "source": "// SPDX-License-Identifier: MIT\n\npragma solidity ^0.5.0;\n\nimport \"../token/KIP37/KIP37Token.sol\";\n\n/**\n * @title KIP37TokenMock\n * This mock just publicizes internal functions for testing purposes\n */\ncontract KIP37TokenMock is KIP37Token {\n    constructor (string memory uri) public KIP37Token(uri) {\n        // solhint-disable-previous-line no-empty-blocks\n    }\n}\n",
  "sourcePath": "/root/Proj/Migration-Contract/contracts/klaytn-contracts/mocks/KIP37TokenMock.sol",
  "compiler": {
    "name": "solc",
    "version": "0.5.17+commit.d19bba13.Emscripten.clang"
  },
  "schemaVersion": "3.1.0",
  "updatedAt": "2022-04-05T10:24:04.375Z",
  "devdoc": {
    "methods": {
      "balanceOf(address,uint256)": {
        "details": "See {IKIP37-balanceOf}.     * Requirements:     * - `account` cannot be the zero address."
      },
      "balanceOfBatch(address[],uint256[])": {
        "details": "See {IKIP37-balanceOfBatch}.     * Requirements:     * - `accounts` and `ids` must have the same length."
      },
      "create(uint256,uint256,string)": {
        "details": "Throws if `msg.sender` is not allowed to create.   Throws if the token id is already used.",
        "params": {
          "_id": "The token id to create.",
          "_initialSupply": "The amount of tokens being minted.",
          "_uri": "The token URI of the created token."
        },
        "return": "A boolean that indicates if the operation was successful."
      },
      "isApprovedForAll(address,address)": {
        "details": "See {IKIP37-isApprovedForAll}."
      },
      "mint(uint256,address,uint256)": {
        "details": "Throws if `msg.sender` is not allowed to mint.   MUST emit an event `TransferSingle`.",
        "params": {
          "_id": "The token id to mint.",
          "_to": "The address that will receive the minted tokens.",
          "_value": "The quantity of tokens being minted."
        }
      },
      "mint(uint256,address[],uint256[])": {
        "details": "Throws if `msg.sender` is not allowed to mint.   MUST emit one or more `TransferSingle` events.   MUST revert if the length of `_toList` is not the same as the length of `_values`.",
        "params": {
          "_id": "The token id to mint.",
          "_toList": "The list of addresses that will receive the minted tokens.",
          "_values": "The list of quantities of tokens being minted."
        }
      },
      "mintBatch(address,uint256[],uint256[])": {
        "details": "Throws if `msg.sender` is not allowed to mint.   MUST emit one or more `TransferSingle` events or a single `TransferBatch` event.   MUST revert if the length of `_ids` is not the same as the length of `_values`.",
        "params": {
          "_ids": "The list of the token ids to mint.",
          "_to": "The address that will receive the minted tokens.",
          "_values": "The list of quantities of tokens being minted."
        }
      },
      "pause()": {
        "details": "Called by a pauser to pause, triggers stopped state."
      },
      "pause(uint256)": {
        "details": "Throws if `msg.sender` is not allowed to pause.   Throws if the specific token is paused."
      },
      "paused()": {
        "details": "Returns true if the contract is paused, and false otherwise."
      },
      "paused(uint256)": {
        "return": "True if the specific token is paused, false otherwise"
      },
      "safeBatchTransferFrom(address,address,uint256[],uint256[],bytes)": {
        "details": "See {IKIP37-safeBatchTransferFrom}."
      },
      "safeTransferFrom(address,address,uint256,uint256,bytes)": {
        "details": "See {IKIP37-safeTransferFrom}."
      },
      "setApprovalForAll(address,bool)": {
        "details": "See {IKIP37-setApprovalForAll}."
      },
      "supportsInterface(bytes4)": {
        "details": "See `IKIP13.supportsInterface`.     * Time complexity O(1), guaranteed to always use less than 30 000 gas."
      },
      "unpause()": {
        "details": "Called by a pauser to unpause, returns to normal state."
      },
      "unpause(uint256)": {
        "details": "Throws if `msg.sender` is not allowed to unpause.   Throws if the specific token is not paused."
      },
      "uri(uint256)": {
        "details": "See {IKIP37MetadataURI-uri}.     * This implementation returns the same URI for *all* token types. It relies on the token type ID substituion mechanism http://kips.klaytn.com/KIPs/kip-37#metadata     * Clients calling this function must replace the `\\{id\\}` substring with the actual token type ID."
      }
    },
    "title": "KIP37TokenMock This mock just publicizes internal functions for testing purposes"
  },
  "userdoc": {
    "methods": {
      "create(uint256,uint256,string)": {
        "notice": "Creates a new token type and assigns _initialSupply to the minter."
      },
      "mint(uint256,address,uint256)": {
        "notice": "Mints tokens of the specific token type `_id` and assigns the tokens according to the variables `_to` and `_value`."
      },
      "mint(uint256,address[],uint256[])": {
        "notice": "Mints tokens of the specific token type `_id` in a batch and assigns the tokens according to the variables `_toList` and `_values`."
      },
      "mintBatch(address,uint256[],uint256[])": {
        "notice": "Mints multiple KIP37 tokens of the specific token types `_ids` in a batch and assigns the tokens according to the variables `_to` and `_values`."
      },
      "pause(uint256)": {
        "notice": "Pauses actions related to transfer and approval of the specific token."
      },
      "paused(uint256)": {
        "notice": "Checks whether the specific token is paused."
      },
      "unpause(uint256)": {
        "notice": "Resumes from the paused state of the specific token."
      }
    }
  }
}