{
  "contractName": "SupportsInterfaceWithLookupMock",
  "abi": [
    {
      "inputs": [],
      "payable": false,
      "stateMutability": "nonpayable",
      "type": "constructor"
    },
    {
      "constant": true,
      "inputs": [],
      "name": "INTERFACE_ID_KIP13",
      "outputs": [
        {
          "internalType": "bytes4",
          "name": "",
          "type": "bytes4"
        }
      ],
      "payable": false,
      "stateMutability": "view",
      "type": "function"
    },
    {
      "constant": true,
      "inputs": [
        {
          "internalType": "bytes4",
          "name": "interfaceId",
          "type": "bytes4"
        }
      ],
      "name": "supportsInterface",
      "outputs": [
        {
          "internalType": "bool",
          "name": "",
          "type": "bool"
        }
      ],
      "payable": false,
      "stateMutability": "view",
      "type": "function"
    }
  ],
  "bytecode": "0x608060405234801561001057600080fd5b5061002a6301ffc9a760e01b6001600160e01b0361002f16565b61009d565b6001600160e01b031980821614156100785760405162461bcd60e51b815260040180806020018281038252602e815260200180610207602e913960400191505060405180910390fd5b6001600160e01b0319166000908152602081905260409020805460ff19166001179055565b61015b806100ac6000396000f3fe608060405234801561001057600080fd5b50600436106100365760003560e01c806301ffc9a71461003b578063d81037cd1461008e575b600080fd5b61007a6004803603602081101561005157600080fd5b50357fffffffff00000000000000000000000000000000000000000000000000000000166100cb565b604080519115158252519081900360200190f35b610096610102565b604080517fffffffff000000000000000000000000000000000000000000000000000000009092168252519081900360200190f35b7fffffffff000000000000000000000000000000000000000000000000000000001660009081526020819052604090205460ff1690565b7f01ffc9a7000000000000000000000000000000000000000000000000000000008156fea265627a7a72315820677653153ef0d28217f005b450e7ef06a6c3783a0fa1fa2ac4c7617a30527d2b64736f6c634300051100324b49503133496e7465726661636573537570706f727465643a20696e76616c696420696e74657266616365206964",
  "source": "pragma solidity ^0.5.0;\n\nimport \"../../introspection/IKIP13.sol\";\n\n/**\n * https://eips.ethereum.org/EIPS/eip-214#specification\n * From the specification:\n * > Any attempts to make state-changing operations inside an execution instance with STATIC set to true will instead\n * throw an exception.\n * > These operations include [...], LOG0, LOG1, LOG2, [...]\n *\n * therefore, because this contract is staticcall'd we need to not emit events (which is how solidity-coverage works)\n * solidity-coverage ignores the /mocks folder, so we duplicate its implementation here to avoid instrumenting it\n */\ncontract SupportsInterfaceWithLookupMock is IKIP13 {\n    /*\n     * bytes4(keccak256('supportsInterface(bytes4)')) == 0x01ffc9a7\n     */\n    bytes4 public constant INTERFACE_ID_KIP13 = 0x01ffc9a7;\n\n    /**\n     * @dev A mapping of interface id to whether or not it's supported.\n     */\n    mapping(bytes4 => bool) private _supportedInterfaces;\n\n    /**\n     * @dev A contract implementing SupportsInterfaceWithLookup\n     * implement KIP13 itself.\n     */\n    constructor () public {\n        _registerInterface(INTERFACE_ID_KIP13);\n    }\n\n    /**\n     * @dev Implement supportsInterface(bytes4) using a lookup table.\n     */\n    function supportsInterface(bytes4 interfaceId) external view returns (bool) {\n        return _supportedInterfaces[interfaceId];\n    }\n\n    /**\n     * @dev Private method for registering an interface.\n     */\n    function _registerInterface(bytes4 interfaceId) internal {\n        require(interfaceId != 0xffffffff, \"KIP13InterfacesSupported: invalid interface id\");\n        _supportedInterfaces[interfaceId] = true;\n    }\n}\n\ncontract KIP13InterfacesSupported is SupportsInterfaceWithLookupMock {\n    constructor (bytes4[] memory interfaceIds) public {\n        for (uint256 i = 0; i < interfaceIds.length; i++) {\n            _registerInterface(interfaceIds[i]);\n        }\n    }\n}\n",
  "sourcePath": "/root/Proj/Migration-Contract/contracts/klaytn-contracts/mocks/KIP13/KIP13InterfacesSupported.sol",
  "compiler": {
    "name": "solc",
    "version": "0.5.17+commit.d19bba13.Emscripten.clang"
  },
  "schemaVersion": "3.1.0",
  "updatedAt": "2022-04-05T10:24:04.348Z",
  "devdoc": {
    "methods": {
      "constructor": {
        "details": "A contract implementing SupportsInterfaceWithLookup implement KIP13 itself."
      },
      "supportsInterface(bytes4)": {
        "details": "Implement supportsInterface(bytes4) using a lookup table."
      }
    }
  },
  "userdoc": {
    "methods": {},
    "notice": "https://eips.ethereum.org/EIPS/eip-214#specification From the specification: > Any attempts to make state-changing operations inside an execution instance with STATIC set to true will instead throw an exception. > These operations include [...], LOG0, LOG1, LOG2, [...] * therefore, because this contract is staticcall'd we need to not emit events (which is how solidity-coverage works) solidity-coverage ignores the /mocks folder, so we duplicate its implementation here to avoid instrumenting it"
  }
}